{
  "_format": "hh-sol-artifact-1",
  "contractName": "FtsoManager",
  "sourceName": "contracts/ftso/implementation/FtsoManager.sol",
  "abi": [
    {
      "inputs": [
        {
          "internalType": "address",
          "name": "_governance",
          "type": "address"
        },
        {
          "internalType": "contract FlareDaemon",
          "name": "_flareDaemon",
          "type": "address"
        },
        {
          "internalType": "address",
          "name": "_addressUpdater",
          "type": "address"
        },
        {
          "internalType": "contract IIFtsoManagerV1",
          "name": "_oldFtsoManager",
          "type": "address"
        },
        {
          "internalType": "uint256",
          "name": "_firstPriceEpochStartTs",
          "type": "uint256"
        },
        {
          "internalType": "uint256",
          "name": "_priceEpochDurationSeconds",
          "type": "uint256"
        },
        {
          "internalType": "uint256",
          "name": "_revealEpochDurationSeconds",
          "type": "uint256"
        },
        {
          "internalType": "uint256",
          "name": "_firstRewardEpochStartTs",
          "type": "uint256"
        },
        {
          "internalType": "uint256",
          "name": "_rewardEpochDurationSeconds",
          "type": "uint256"
        },
        {
          "internalType": "uint256",
          "name": "_votePowerIntervalFraction",
          "type": "uint256"
        }
      ],
      "stateMutability": "nonpayable",
      "type": "constructor"
    },
    {
      "anonymous": false,
      "inputs": [
        {
          "indexed": false,
          "internalType": "uint256",
          "name": "epochId",
          "type": "uint256"
        }
      ],
      "name": "AccruingUnearnedRewardsFailed",
      "type": "event"
    },
    {
      "anonymous": false,
      "inputs": [],
      "name": "ChillingNonrevealingDataProvidersFailed",
      "type": "event"
    },
    {
      "anonymous": false,
      "inputs": [
        {
          "indexed": false,
          "internalType": "uint256",
          "name": "blockNumber",
          "type": "uint256"
        }
      ],
      "name": "CleanupBlockNumberManagerFailedForBlock",
      "type": "event"
    },
    {
      "anonymous": false,
      "inputs": [
        {
          "indexed": false,
          "internalType": "uint256",
          "name": "rewardEpoch",
          "type": "uint256"
        }
      ],
      "name": "ClosingExpiredRewardEpochFailed",
      "type": "event"
    },
    {
      "anonymous": false,
      "inputs": [
        {
          "indexed": false,
          "internalType": "address",
          "name": "theContract",
          "type": "address"
        },
        {
          "indexed": false,
          "internalType": "uint256",
          "name": "atBlock",
          "type": "uint256"
        },
        {
          "indexed": false,
          "internalType": "string",
          "name": "theMessage",
          "type": "string"
        }
      ],
      "name": "ContractRevertError",
      "type": "event"
    },
    {
      "anonymous": false,
      "inputs": [
        {
          "indexed": false,
          "internalType": "address",
          "name": "ftso",
          "type": "address"
        },
        {
          "indexed": false,
          "internalType": "uint256",
          "name": "epochId",
          "type": "uint256"
        }
      ],
      "name": "DistributingRewardsFailed",
      "type": "event"
    },
    {
      "anonymous": false,
      "inputs": [
        {
          "indexed": false,
          "internalType": "bool",
          "name": "fallbackMode",
          "type": "bool"
        }
      ],
      "name": "FallbackMode",
      "type": "event"
    },
    {
      "anonymous": false,
      "inputs": [
        {
          "indexed": false,
          "internalType": "contract IIFtso",
          "name": "ftso",
          "type": "address"
        },
        {
          "indexed": false,
          "internalType": "uint256",
          "name": "epochId",
          "type": "uint256"
        },
        {
          "indexed": false,
          "internalType": "enum IFtso.PriceFinalizationType",
          "name": "failingType",
          "type": "uint8"
        }
      ],
      "name": "FinalizingPriceEpochFailed",
      "type": "event"
    },
    {
      "anonymous": false,
      "inputs": [
        {
          "indexed": false,
          "internalType": "contract IIFtso",
          "name": "ftso",
          "type": "address"
        },
        {
          "indexed": false,
          "internalType": "bool",
          "name": "add",
          "type": "bool"
        }
      ],
      "name": "FtsoAdded",
      "type": "event"
    },
    {
      "anonymous": false,
      "inputs": [
        {
          "indexed": false,
          "internalType": "contract IIFtso",
          "name": "ftso",
          "type": "address"
        }
      ],
      "name": "FtsoDeactivationFailed",
      "type": "event"
    },
    {
      "anonymous": false,
      "inputs": [
        {
          "indexed": false,
          "internalType": "contract IIFtso",
          "name": "ftso",
          "type": "address"
        },
        {
          "indexed": false,
          "internalType": "bool",
          "name": "fallbackMode",
          "type": "bool"
        }
      ],
      "name": "FtsoFallbackMode",
      "type": "event"
    },
    {
      "anonymous": false,
      "inputs": [
        {
          "indexed": false,
          "internalType": "bytes4",
          "name": "selector",
          "type": "bytes4"
        },
        {
          "indexed": false,
          "internalType": "uint256",
          "name": "allowedAfterTimestamp",
          "type": "uint256"
        },
        {
          "indexed": false,
          "internalType": "bytes",
          "name": "encodedCall",
          "type": "bytes"
        }
      ],
      "name": "GovernanceCallTimelocked",
      "type": "event"
    },
    {
      "anonymous": false,
      "inputs": [
        {
          "indexed": false,
          "internalType": "address",
          "name": "initialGovernance",
          "type": "address"
        }
      ],
      "name": "GovernanceInitialised",
      "type": "event"
    },
    {
      "anonymous": false,
      "inputs": [
        {
          "indexed": false,
          "internalType": "address",
          "name": "governanceSettings",
          "type": "address"
        }
      ],
      "name": "GovernedProductionModeEntered",
      "type": "event"
    },
    {
      "anonymous": false,
      "inputs": [
        {
          "indexed": false,
          "internalType": "contract IIFtso",
          "name": "ftso",
          "type": "address"
        },
        {
          "indexed": false,
          "internalType": "uint256",
          "name": "epochId",
          "type": "uint256"
        }
      ],
      "name": "InitializingCurrentEpochStateForRevealFailed",
      "type": "event"
    },
    {
      "anonymous": false,
      "inputs": [
        {
          "indexed": false,
          "internalType": "address",
          "name": "chosenFtso",
          "type": "address"
        },
        {
          "indexed": false,
          "internalType": "uint256",
          "name": "rewardEpochId",
          "type": "uint256"
        }
      ],
      "name": "PriceEpochFinalized",
      "type": "event"
    },
    {
      "anonymous": false,
      "inputs": [
        {
          "indexed": false,
          "internalType": "uint256",
          "name": "votepowerBlock",
          "type": "uint256"
        },
        {
          "indexed": false,
          "internalType": "uint256",
          "name": "startBlock",
          "type": "uint256"
        }
      ],
      "name": "RewardEpochFinalized",
      "type": "event"
    },
    {
      "anonymous": false,
      "inputs": [
        {
          "indexed": false,
          "internalType": "bytes4",
          "name": "selector",
          "type": "bytes4"
        },
        {
          "indexed": false,
          "internalType": "uint256",
          "name": "timestamp",
          "type": "uint256"
        }
      ],
      "name": "TimelockedGovernanceCallCanceled",
      "type": "event"
    },
    {
      "anonymous": false,
      "inputs": [
        {
          "indexed": false,
          "internalType": "bytes4",
          "name": "selector",
          "type": "bytes4"
        },
        {
          "indexed": false,
          "internalType": "uint256",
          "name": "timestamp",
          "type": "uint256"
        }
      ],
      "name": "TimelockedGovernanceCallExecuted",
      "type": "event"
    },
    {
      "anonymous": false,
      "inputs": [
        {
          "indexed": false,
          "internalType": "uint256",
          "name": "rewardEpoch",
          "type": "uint256"
        }
      ],
      "name": "UpdatingActiveValidatorsTriggerFailed",
      "type": "event"
    },
    {
      "anonymous": false,
      "inputs": [
        {
          "indexed": false,
          "internalType": "bool",
          "name": "useGoodRandom",
          "type": "bool"
        },
        {
          "indexed": false,
          "internalType": "uint256",
          "name": "maxWaitForGoodRandomSeconds",
          "type": "uint256"
        }
      ],
      "name": "UseGoodRandomSet",
      "type": "event"
    },
    {
      "inputs": [],
      "name": "MAX_TRUSTED_ADDRESSES_LENGTH",
      "outputs": [
        {
          "internalType": "uint256",
          "name": "",
          "type": "uint256"
        }
      ],
      "stateMutability": "view",
      "type": "function"
    },
    {
      "inputs": [],
      "name": "activate",
      "outputs": [],
      "stateMutability": "nonpayable",
      "type": "function"
    },
    {
      "inputs": [],
      "name": "active",
      "outputs": [
        {
          "internalType": "bool",
          "name": "",
          "type": "bool"
        }
      ],
      "stateMutability": "view",
      "type": "function"
    },
    {
      "inputs": [
        {
          "internalType": "contract IIFtso",
          "name": "_ftso",
          "type": "address"
        }
      ],
      "name": "addFtso",
      "outputs": [],
      "stateMutability": "nonpayable",
      "type": "function"
    },
    {
      "inputs": [
        {
          "internalType": "contract IIFtso[]",
          "name": "_ftsos",
          "type": "address[]"
        }
      ],
      "name": "addFtsosBulk",
      "outputs": [],
      "stateMutability": "nonpayable",
      "type": "function"
    },
    {
      "inputs": [
        {
          "internalType": "bytes4",
          "name": "_selector",
          "type": "bytes4"
        }
      ],
      "name": "cancelGovernanceCall",
      "outputs": [],
      "stateMutability": "nonpayable",
      "type": "function"
    },
    {
      "inputs": [],
      "name": "cleanupBlockNumberManager",
      "outputs": [
        {
          "internalType": "contract CleanupBlockNumberManager",
          "name": "",
          "type": "address"
        }
      ],
      "stateMutability": "view",
      "type": "function"
    },
    {
      "inputs": [],
      "name": "currentRewardEpochEnds",
      "outputs": [
        {
          "internalType": "uint256",
          "name": "",
          "type": "uint256"
        }
      ],
      "stateMutability": "view",
      "type": "function"
    },
    {
      "inputs": [],
      "name": "daemonize",
      "outputs": [
        {
          "internalType": "bool",
          "name": "",
          "type": "bool"
        }
      ],
      "stateMutability": "nonpayable",
      "type": "function"
    },
    {
      "inputs": [
        {
          "internalType": "contract IIFtso[]",
          "name": "_ftsos",
          "type": "address[]"
        }
      ],
      "name": "deactivateFtsos",
      "outputs": [],
      "stateMutability": "nonpayable",
      "type": "function"
    },
    {
      "inputs": [],
      "name": "errorData",
      "outputs": [
        {
          "internalType": "uint192",
          "name": "totalRevertedErrors",
          "type": "uint192"
        },
        {
          "internalType": "uint64",
          "name": "lastErrorTypeIndex",
          "type": "uint64"
        }
      ],
      "stateMutability": "view",
      "type": "function"
    },
    {
      "inputs": [
        {
          "internalType": "bytes4",
          "name": "_selector",
          "type": "bytes4"
        }
      ],
      "name": "executeGovernanceCall",
      "outputs": [],
      "stateMutability": "nonpayable",
      "type": "function"
    },
    {
      "inputs": [],
      "name": "flareDaemon",
      "outputs": [
        {
          "internalType": "contract FlareDaemon",
          "name": "",
          "type": "address"
        }
      ],
      "stateMutability": "view",
      "type": "function"
    },
    {
      "inputs": [],
      "name": "ftsoRegistry",
      "outputs": [
        {
          "internalType": "contract IIFtsoRegistry",
          "name": "",
          "type": "address"
        }
      ],
      "stateMutability": "view",
      "type": "function"
    },
    {
      "inputs": [],
      "name": "getAddressUpdater",
      "outputs": [
        {
          "internalType": "address",
          "name": "_addressUpdater",
          "type": "address"
        }
      ],
      "stateMutability": "view",
      "type": "function"
    },
    {
      "inputs": [],
      "name": "getContractName",
      "outputs": [
        {
          "internalType": "string",
          "name": "",
          "type": "string"
        }
      ],
      "stateMutability": "pure",
      "type": "function"
    },
    {
      "inputs": [],
      "name": "getCurrentPriceEpochData",
      "outputs": [
        {
          "internalType": "uint256",
          "name": "_priceEpochId",
          "type": "uint256"
        },
        {
          "internalType": "uint256",
          "name": "_priceEpochStartTimestamp",
          "type": "uint256"
        },
        {
          "internalType": "uint256",
          "name": "_priceEpochEndTimestamp",
          "type": "uint256"
        },
        {
          "internalType": "uint256",
          "name": "_priceEpochRevealEndTimestamp",
          "type": "uint256"
        },
        {
          "internalType": "uint256",
          "name": "_currentTimestamp",
          "type": "uint256"
        }
      ],
      "stateMutability": "view",
      "type": "function"
    },
    {
      "inputs": [],
      "name": "getCurrentPriceEpochId",
      "outputs": [
        {
          "internalType": "uint256",
          "name": "_priceEpochId",
          "type": "uint256"
        }
      ],
      "stateMutability": "view",
      "type": "function"
    },
    {
      "inputs": [],
      "name": "getCurrentRewardEpoch",
      "outputs": [
        {
          "internalType": "uint256",
          "name": "",
          "type": "uint256"
        }
      ],
      "stateMutability": "view",
      "type": "function"
    },
    {
      "inputs": [
        {
          "internalType": "contract IIFtso",
          "name": "_ftso",
          "type": "address"
        }
      ],
      "name": "getElasticBandWidthPPMFtso",
      "outputs": [
        {
          "internalType": "uint256",
          "name": "",
          "type": "uint256"
        }
      ],
      "stateMutability": "view",
      "type": "function"
    },
    {
      "inputs": [],
      "name": "getFallbackMode",
      "outputs": [
        {
          "internalType": "bool",
          "name": "_fallbackMode",
          "type": "bool"
        },
        {
          "internalType": "contract IIFtso[]",
          "name": "_ftsos",
          "type": "address[]"
        },
        {
          "internalType": "bool[]",
          "name": "_ftsoInFallbackMode",
          "type": "bool[]"
        }
      ],
      "stateMutability": "view",
      "type": "function"
    },
    {
      "inputs": [],
      "name": "getFtsos",
      "outputs": [
        {
          "internalType": "contract IIFtso[]",
          "name": "_ftsos",
          "type": "address[]"
        }
      ],
      "stateMutability": "view",
      "type": "function"
    },
    {
      "inputs": [],
      "name": "getGovernanceParameters",
      "outputs": [
        {
          "internalType": "uint256",
          "name": "_maxVotePowerNatThresholdFraction",
          "type": "uint256"
        },
        {
          "internalType": "uint256",
          "name": "_maxVotePowerAssetThresholdFraction",
          "type": "uint256"
        },
        {
          "internalType": "uint256",
          "name": "_lowAssetUSDThreshold",
          "type": "uint256"
        },
        {
          "internalType": "uint256",
          "name": "_highAssetUSDThreshold",
          "type": "uint256"
        },
        {
          "internalType": "uint256",
          "name": "_highAssetTurnoutThresholdBIPS",
          "type": "uint256"
        },
        {
          "internalType": "uint256",
          "name": "_lowNatTurnoutThresholdBIPS",
          "type": "uint256"
        },
        {
          "internalType": "uint256",
          "name": "_elasticBandRewardBIPS",
          "type": "uint256"
        },
        {
          "internalType": "uint256",
          "name": "_rewardExpiryOffsetSeconds",
          "type": "uint256"
        },
        {
          "internalType": "address[]",
          "name": "_trustedAddresses",
          "type": "address[]"
        },
        {
          "internalType": "bool",
          "name": "_initialized",
          "type": "bool"
        },
        {
          "internalType": "bool",
          "name": "_changed",
          "type": "bool"
        }
      ],
      "stateMutability": "view",
      "type": "function"
    },
    {
      "inputs": [],
      "name": "getLastUnprocessedPriceEpochData",
      "outputs": [
        {
          "internalType": "uint256",
          "name": "_lastUnprocessedPriceEpoch",
          "type": "uint256"
        },
        {
          "internalType": "uint256",
          "name": "_lastUnprocessedPriceEpochRevealEnds",
          "type": "uint256"
        },
        {
          "internalType": "bool",
          "name": "_lastUnprocessedPriceEpochInitialized",
          "type": "bool"
        }
      ],
      "stateMutability": "view",
      "type": "function"
    },
    {
      "inputs": [],
      "name": "getPriceEpochConfiguration",
      "outputs": [
        {
          "internalType": "uint256",
          "name": "_firstPriceEpochStartTs",
          "type": "uint256"
        },
        {
          "internalType": "uint256",
          "name": "_priceEpochDurationSeconds",
          "type": "uint256"
        },
        {
          "internalType": "uint256",
          "name": "_revealEpochDurationSeconds",
          "type": "uint256"
        }
      ],
      "stateMutability": "view",
      "type": "function"
    },
    {
      "inputs": [],
      "name": "getPriceSubmitter",
      "outputs": [
        {
          "internalType": "contract IIPriceSubmitter",
          "name": "",
          "type": "address"
        }
      ],
      "stateMutability": "view",
      "type": "function"
    },
    {
      "inputs": [],
      "name": "getRewardEpochConfiguration",
      "outputs": [
        {
          "internalType": "uint256",
          "name": "_firstRewardEpochStartTs",
          "type": "uint256"
        },
        {
          "internalType": "uint256",
          "name": "_rewardEpochDurationSeconds",
          "type": "uint256"
        }
      ],
      "stateMutability": "view",
      "type": "function"
    },
    {
      "inputs": [
        {
          "internalType": "uint256",
          "name": "_rewardEpochId",
          "type": "uint256"
        }
      ],
      "name": "getRewardEpochData",
      "outputs": [
        {
          "components": [
            {
              "internalType": "uint256",
              "name": "votepowerBlock",
              "type": "uint256"
            },
            {
              "internalType": "uint256",
              "name": "startBlock",
              "type": "uint256"
            },
            {
              "internalType": "uint256",
              "name": "startTimestamp",
              "type": "uint256"
            }
          ],
          "internalType": "struct IIFtsoManager.RewardEpochData",
          "name": "",
          "type": "tuple"
        }
      ],
      "stateMutability": "view",
      "type": "function"
    },
    {
      "inputs": [],
      "name": "getRewardEpochToExpireNext",
      "outputs": [
        {
          "internalType": "uint256",
          "name": "",
          "type": "uint256"
        }
      ],
      "stateMutability": "view",
      "type": "function"
    },
    {
      "inputs": [
        {
          "internalType": "uint256",
          "name": "_rewardEpoch",
          "type": "uint256"
        }
      ],
      "name": "getRewardEpochVotePowerBlock",
      "outputs": [
        {
          "internalType": "uint256",
          "name": "_votepowerBlock",
          "type": "uint256"
        }
      ],
      "stateMutability": "view",
      "type": "function"
    },
    {
      "inputs": [],
      "name": "getRewardExpiryOffsetSeconds",
      "outputs": [
        {
          "internalType": "uint256",
          "name": "",
          "type": "uint256"
        }
      ],
      "stateMutability": "view",
      "type": "function"
    },
    {
      "inputs": [],
      "name": "getUpdateGovernanceParametersTs",
      "outputs": [
        {
          "internalType": "uint256",
          "name": "",
          "type": "uint256"
        }
      ],
      "stateMutability": "view",
      "type": "function"
    },
    {
      "inputs": [],
      "name": "getVotePowerIntervalFraction",
      "outputs": [
        {
          "internalType": "uint256",
          "name": "",
          "type": "uint256"
        }
      ],
      "stateMutability": "view",
      "type": "function"
    },
    {
      "inputs": [],
      "name": "governance",
      "outputs": [
        {
          "internalType": "address",
          "name": "",
          "type": "address"
        }
      ],
      "stateMutability": "view",
      "type": "function"
    },
    {
      "inputs": [],
      "name": "governanceSettings",
      "outputs": [
        {
          "internalType": "contract IGovernanceSettings",
          "name": "",
          "type": "address"
        }
      ],
      "stateMutability": "view",
      "type": "function"
    },
    {
      "inputs": [
        {
          "internalType": "address",
          "name": "_initialGovernance",
          "type": "address"
        }
      ],
      "name": "initialise",
      "outputs": [],
      "stateMutability": "nonpayable",
      "type": "function"
    },
    {
      "inputs": [],
      "name": "lastRewardedFtsoAddress",
      "outputs": [
        {
          "internalType": "address",
          "name": "",
          "type": "address"
        }
      ],
      "stateMutability": "view",
      "type": "function"
    },
    {
      "inputs": [],
      "name": "maxWaitForGoodRandomSeconds",
      "outputs": [
        {
          "internalType": "uint256",
          "name": "",
          "type": "uint256"
        }
      ],
      "stateMutability": "view",
      "type": "function"
    },
    {
      "inputs": [
        {
          "internalType": "contract IIFtso",
          "name": "_ftso",
          "type": "address"
        }
      ],
      "name": "notInitializedFtsos",
      "outputs": [
        {
          "internalType": "bool",
          "name": "",
          "type": "bool"
        }
      ],
      "stateMutability": "view",
      "type": "function"
    },
    {
      "inputs": [],
      "name": "oldFtsoManager",
      "outputs": [
        {
          "internalType": "contract IIFtsoManagerV1",
          "name": "",
          "type": "address"
        }
      ],
      "stateMutability": "view",
      "type": "function"
    },
    {
      "inputs": [],
      "name": "priceSubmitter",
      "outputs": [
        {
          "internalType": "contract IIPriceSubmitter",
          "name": "",
          "type": "address"
        }
      ],
      "stateMutability": "view",
      "type": "function"
    },
    {
      "inputs": [],
      "name": "productionMode",
      "outputs": [
        {
          "internalType": "bool",
          "name": "",
          "type": "bool"
        }
      ],
      "stateMutability": "view",
      "type": "function"
    },
    {
      "inputs": [
        {
          "internalType": "contract IIFtso",
          "name": "_ftso",
          "type": "address"
        }
      ],
      "name": "removeFtso",
      "outputs": [],
      "stateMutability": "nonpayable",
      "type": "function"
    },
    {
      "inputs": [
        {
          "internalType": "contract IIFtso",
          "name": "_ftsoToAdd",
          "type": "address"
        },
        {
          "internalType": "bool",
          "name": "_copyCurrentPrice",
          "type": "bool"
        },
        {
          "internalType": "bool",
          "name": "_copyAssetOrAssetFtsos",
          "type": "bool"
        }
      ],
      "name": "replaceFtso",
      "outputs": [],
      "stateMutability": "nonpayable",
      "type": "function"
    },
    {
      "inputs": [
        {
          "internalType": "contract IIFtso[]",
          "name": "_ftsosToAdd",
          "type": "address[]"
        },
        {
          "internalType": "bool",
          "name": "_copyCurrentPrice",
          "type": "bool"
        },
        {
          "internalType": "bool",
          "name": "_copyAssetOrAssetFtsos",
          "type": "bool"
        }
      ],
      "name": "replaceFtsosBulk",
      "outputs": [],
      "stateMutability": "nonpayable",
      "type": "function"
    },
    {
      "inputs": [],
      "name": "rewardEpochDurationSeconds",
      "outputs": [
        {
          "internalType": "uint256",
          "name": "",
          "type": "uint256"
        }
      ],
      "stateMutability": "view",
      "type": "function"
    },
    {
      "inputs": [
        {
          "internalType": "uint256",
          "name": "_rewardEpochId",
          "type": "uint256"
        }
      ],
      "name": "rewardEpochs",
      "outputs": [
        {
          "internalType": "uint256",
          "name": "_votepowerBlock",
          "type": "uint256"
        },
        {
          "internalType": "uint256",
          "name": "_startBlock",
          "type": "uint256"
        },
        {
          "internalType": "uint256",
          "name": "_startTimestamp",
          "type": "uint256"
        }
      ],
      "stateMutability": "view",
      "type": "function"
    },
    {
      "inputs": [],
      "name": "rewardEpochsStartTs",
      "outputs": [
        {
          "internalType": "uint256",
          "name": "",
          "type": "uint256"
        }
      ],
      "stateMutability": "view",
      "type": "function"
    },
    {
      "inputs": [],
      "name": "rewardManager",
      "outputs": [
        {
          "internalType": "contract IIFtsoRewardManager",
          "name": "",
          "type": "address"
        }
      ],
      "stateMutability": "view",
      "type": "function"
    },
    {
      "inputs": [
        {
          "internalType": "uint256",
          "name": "_updateTs",
          "type": "uint256"
        },
        {
          "internalType": "contract IIFtso[]",
          "name": "_ftsos",
          "type": "address[]"
        },
        {
          "internalType": "uint256[]",
          "name": "_widths",
          "type": "uint256[]"
        }
      ],
      "name": "setElasticBandWidthPPMFtsos",
      "outputs": [],
      "stateMutability": "nonpayable",
      "type": "function"
    },
    {
      "inputs": [
        {
          "internalType": "bool",
          "name": "_fallbackMode",
          "type": "bool"
        }
      ],
      "name": "setFallbackMode",
      "outputs": [],
      "stateMutability": "nonpayable",
      "type": "function"
    },
    {
      "inputs": [
        {
          "internalType": "contract IIFtso",
          "name": "_ftso",
          "type": "address"
        },
        {
          "internalType": "contract IIVPToken",
          "name": "_asset",
          "type": "address"
        }
      ],
      "name": "setFtsoAsset",
      "outputs": [],
      "stateMutability": "nonpayable",
      "type": "function"
    },
    {
      "inputs": [
        {
          "internalType": "contract IIFtso",
          "name": "_ftso",
          "type": "address"
        },
        {
          "internalType": "contract IIFtso[]",
          "name": "_assetFtsos",
          "type": "address[]"
        }
      ],
      "name": "setFtsoAssetFtsos",
      "outputs": [],
      "stateMutability": "nonpayable",
      "type": "function"
    },
    {
      "inputs": [
        {
          "internalType": "contract IIFtso",
          "name": "_ftso",
          "type": "address"
        },
        {
          "internalType": "bool",
          "name": "_fallbackMode",
          "type": "bool"
        }
      ],
      "name": "setFtsoFallbackMode",
      "outputs": [],
      "stateMutability": "nonpayable",
      "type": "function"
    },
    {
      "inputs": [
        {
          "internalType": "uint256",
          "name": "_updateTs",
          "type": "uint256"
        },
        {
          "internalType": "uint256",
          "name": "_maxVotePowerNatThresholdFraction",
          "type": "uint256"
        },
        {
          "internalType": "uint256",
          "name": "_maxVotePowerAssetThresholdFraction",
          "type": "uint256"
        },
        {
          "internalType": "uint256",
          "name": "_lowAssetUSDThreshold",
          "type": "uint256"
        },
        {
          "internalType": "uint256",
          "name": "_highAssetUSDThreshold",
          "type": "uint256"
        },
        {
          "internalType": "uint256",
          "name": "_highAssetTurnoutThresholdBIPS",
          "type": "uint256"
        },
        {
          "internalType": "uint256",
          "name": "_lowNatTurnoutThresholdBIPS",
          "type": "uint256"
        },
        {
          "internalType": "uint256",
          "name": "_elasticBandRewardBIPS",
          "type": "uint256"
        },
        {
          "internalType": "uint256",
          "name": "_rewardExpiryOffsetSeconds",
          "type": "uint256"
        },
        {
          "internalType": "address[]",
          "name": "_trustedAddresses",
          "type": "address[]"
        }
      ],
      "name": "setGovernanceParameters",
      "outputs": [],
      "stateMutability": "nonpayable",
      "type": "function"
    },
    {
      "inputs": [
        {
          "internalType": "uint256",
          "name": "_nextRewardEpochToExpire",
          "type": "uint256"
        },
        {
          "internalType": "uint256",
          "name": "_rewardEpochsLength",
          "type": "uint256"
        },
        {
          "internalType": "uint256",
          "name": "_currentRewardEpochEnds",
          "type": "uint256"
        }
      ],
      "name": "setInitialRewardData",
      "outputs": [],
      "stateMutability": "nonpayable",
      "type": "function"
    },
    {
      "inputs": [
        {
          "internalType": "uint256",
          "name": "_rewardEpochDurationSeconds",
          "type": "uint256"
        }
      ],
      "name": "setRewardEpochDurationSeconds",
      "outputs": [],
      "stateMutability": "nonpayable",
      "type": "function"
    },
    {
      "inputs": [
        {
          "internalType": "contract IUpdateValidators",
          "name": "_updateValidators",
          "type": "address"
        }
      ],
      "name": "setUpdateOnRewardEpochSwitchover",
      "outputs": [],
      "stateMutability": "nonpayable",
      "type": "function"
    },
    {
      "inputs": [
        {
          "internalType": "bool",
          "name": "_useGoodRandom",
          "type": "bool"
        },
        {
          "internalType": "uint256",
          "name": "_maxWaitForGoodRandomSeconds",
          "type": "uint256"
        }
      ],
      "name": "setUseGoodRandom",
      "outputs": [],
      "stateMutability": "nonpayable",
      "type": "function"
    },
    {
      "inputs": [
        {
          "internalType": "uint256",
          "name": "_votePowerIntervalFraction",
          "type": "uint256"
        }
      ],
      "name": "setVotePowerIntervalFraction",
      "outputs": [],
      "stateMutability": "nonpayable",
      "type": "function"
    },
    {
      "inputs": [],
      "name": "showLastRevertedError",
      "outputs": [
        {
          "internalType": "uint256[]",
          "name": "_lastErrorBlock",
          "type": "uint256[]"
        },
        {
          "internalType": "uint256[]",
          "name": "_numErrors",
          "type": "uint256[]"
        },
        {
          "internalType": "string[]",
          "name": "_errorString",
          "type": "string[]"
        },
        {
          "internalType": "address[]",
          "name": "_erroringContract",
          "type": "address[]"
        },
        {
          "internalType": "uint256",
          "name": "_totalRevertedErrors",
          "type": "uint256"
        }
      ],
      "stateMutability": "view",
      "type": "function"
    },
    {
      "inputs": [
        {
          "internalType": "uint256",
          "name": "startIndex",
          "type": "uint256"
        },
        {
          "internalType": "uint256",
          "name": "numErrorTypesToShow",
          "type": "uint256"
        }
      ],
      "name": "showRevertedErrors",
      "outputs": [
        {
          "internalType": "uint256[]",
          "name": "_lastErrorBlock",
          "type": "uint256[]"
        },
        {
          "internalType": "uint256[]",
          "name": "_numErrors",
          "type": "uint256[]"
        },
        {
          "internalType": "string[]",
          "name": "_errorString",
          "type": "string[]"
        },
        {
          "internalType": "address[]",
          "name": "_erroringContract",
          "type": "address[]"
        },
        {
          "internalType": "uint256",
          "name": "_totalRevertedErrors",
          "type": "uint256"
        }
      ],
      "stateMutability": "view",
      "type": "function"
    },
    {
      "inputs": [],
      "name": "supply",
      "outputs": [
        {
          "internalType": "contract IISupply",
          "name": "",
          "type": "address"
        }
      ],
      "stateMutability": "view",
      "type": "function"
    },
    {
      "inputs": [],
      "name": "switchToFallbackMode",
      "outputs": [
        {
          "internalType": "bool",
          "name": "",
          "type": "bool"
        }
      ],
      "stateMutability": "nonpayable",
      "type": "function"
    },
    {
      "inputs": [],
      "name": "switchToProductionMode",
      "outputs": [],
      "stateMutability": "nonpayable",
      "type": "function"
    },
    {
      "inputs": [
        {
          "internalType": "bytes4",
          "name": "",
          "type": "bytes4"
        }
      ],
      "name": "timelockedCalls",
      "outputs": [
        {
          "internalType": "uint256",
          "name": "allowedAfterTimestamp",
          "type": "uint256"
        },
        {
          "internalType": "bytes",
          "name": "encodedCall",
          "type": "bytes"
        }
      ],
      "stateMutability": "view",
      "type": "function"
    },
    {
      "inputs": [
        {
          "internalType": "bytes32[]",
          "name": "_contractNameHashes",
          "type": "bytes32[]"
        },
        {
          "internalType": "address[]",
          "name": "_contractAddresses",
          "type": "address[]"
        }
      ],
      "name": "updateContractAddresses",
      "outputs": [],
      "stateMutability": "nonpayable",
      "type": "function"
    },
    {
      "inputs": [],
      "name": "updateOnRewardEpochSwitchover",
      "outputs": [
        {
          "internalType": "contract IUpdateValidators",
          "name": "",
          "type": "address"
        }
      ],
      "stateMutability": "view",
      "type": "function"
    },
    {
      "inputs": [],
      "name": "useGoodRandom",
      "outputs": [
        {
          "internalType": "bool",
          "name": "",
          "type": "bool"
        }
      ],
      "stateMutability": "view",
      "type": "function"
    },
    {
      "inputs": [],
      "name": "voterWhitelister",
      "outputs": [
        {
          "internalType": "contract IIVoterWhitelister",
          "name": "",
          "type": "address"
        }
      ],
      "stateMutability": "view",
      "type": "function"
    },
    {
      "inputs": [],
      "name": "waitingForGoodRandomSinceTs",
      "outputs": [
        {
          "internalType": "uint256",
          "name": "",
          "type": "uint256"
        }
      ],
      "stateMutability": "view",
      "type": "function"
    }
  ],
  "bytecode": "0x6101406040523480156200001257600080fd5b50604051620064c3380380620064c383398101604081905262000035916200053e565b878a8a81806001600160a01b038116156200005557620000558162000457565b506001600160a01b038116620000a5576040805162461bcd60e51b815260206004820152601060248201526f5f676f7665726e616e6365207a65726f60801b604482015290519081900360640190fd5b506001600160a01b038116620000f6576040805162461bcd60e51b8152602060048201526011602482015270666c617265206461656d6f6e207a65726f60781b604482015290519081900360640190fd5b60601b6001600160601b0319166080525062000112816200051a565b50854210156040518060400160405280601e81526020017f46697273742065706f636820737461727420747320696e20667574757265000081525090620001775760405162461bcd60e51b81526004016200016e9190620005e3565b60405180910390fd5b5060408051808201909152600e81526d05265776172642065706f636820360941b602082015282620001be5760405162461bcd60e51b81526004016200016e9190620005e3565b5060408051808201909152600d81526c050726963652065706f6368203609c1b602082015285620002045760405162461bcd60e51b81526004016200016e9190620005e3565b5060408051808201909152601481527f52657665616c2070726963652065706f636820300000000000000000000000006020820152846200025a5760405162461bcd60e51b81526004016200016e9190620005e3565b5060408051808201909152601e81527f566f746520706f77657220696e74657276616c206672616374696f6e20300000602082015281620002b05760405162461bcd60e51b81526004016200016e9190620005e3565b5060408051808201909152601b81527f52657665616c2070726963652065706f636820746f6f206c6f6e6700000000006020820152858510620003085760405162461bcd60e51b81526004016200016e9190620005e3565b508284870111156040518060400160405280601b81526020017f5265776172642065706f636820737461727420746f6f20736f6f6e000000000081525090620003665760405162461bcd60e51b81526004016200016e9190620005e3565b50848685850303816200037557fe5b066000146040518060600160405280602481526020016200649f6024913990620003b45760405162461bcd60e51b81526004016200016e9190620005e3565b50848281620003bf57fe5b06600014604051806060016040528060278152602001620064786027913990620003fe5760405162461bcd60e51b81526004016200016e9190620005e3565b506101008390526020829055602181905560a086905260c085905260e0849052601c83905584868403816200042f57fe5b04601b55505050505060609190911b6001600160601b03191661012052506200065292505050565b600054600160a01b900460ff1615620004b7576040805162461bcd60e51b815260206004820152601460248201527f696e697469616c6973656420213d2066616c7365000000000000000000000000604482015290519081900360640190fd5b60008054600160a01b60ff60a01b19909116176001600160a01b0319166001600160a01b03831690811790915560408051918252517f9789733827840833afc031fb2ef9ab6894271f77bad2085687cf4ae5c7bee4db916020908290030190a150565b7f714f205b2abd25bef1d06a1af944e38c113fe6160375c4e1d6d5cf28848e771955565b6000806000806000806000806000806101408b8d0312156200055e578586fd5b8a516200056b8162000639565b60208c0151909a506200057e8162000639565b60408c0151909950620005918162000639565b60608c0151909850620005a48162000639565b8097505060808b0151955060a08b0151945060c08b0151935060e08b015192506101008b015191506101208b015190509295989b9194979a5092959850565b6000602080835283518082850152825b818110156200061157858101830151858201604001528201620005f3565b81811115620006235783604083870101525b50601f01601f1916929092016040019392505050565b6001600160a01b03811681146200064f57600080fd5b50565b60805160601c60a05160c05160e051610100516101205160601c615d68620007106000398061258e528061454f525080610b8b528061218c528061309f52806131ba525080610b5c528061207c528061467d5280614c69525080610a9d5280610b3b528061204b5280612a1f52806135ce528061465b52806147ca528061480a5280614c46525080610b1a528061202a5280612a40528061463952806147a55280614c21525080611526528061216252806126f25250615d686000f3fe608060405234801561001057600080fd5b506004361061041d5760003560e01c806374e6310e1161022b578063b4dba0f311610130578063e371aef0116100b8578063f2edab5a11610087578063f2edab5a1461082c578063f5a983831461083f578063f5f5ba7214610847578063f937d6ad1461085c578063ff882fbb146108645761041d565b8063e371aef0146107e6578063e5399da3146107fc578063e7c830d41461081c578063ec31db0c146108245761041d565b8063d429cfe5116100ff578063d429cfe5146107a8578063d89c39e6146107bb578063e080a970146107c3578063e17f212e146107d6578063e22fdece146107de5761041d565b8063b4dba0f31461077b578063c2b0d47b14610783578063cb063fa21461078b578063ce69f833146107935761041d565b8063a157713b116101b3578063a90a38e111610182578063a90a38e114610727578063a93a6f421461073a578063af946af71461074d578063b00c0b7614610760578063b23b6ef1146107735761041d565b8063a157713b146106f1578063a578f55b146106f9578063a670ff8714610701578063a795f409146107145761041d565b8063882376c3116101fa578063882376c3146106975780638de306b1146106aa57806393a79025146106bd5780639d6a890f146106d6578063a1077532146106e95761041d565b806374e6310e14610648578063758ff1da14610669578063823033a91461067c57806385f3c9c91461068f5761041d565b80633e7ff857116103315780635ff27079116102b957806369b11ac61161028857806369b11ac6146105fb5780636b65cc34146106035780636ca051e6146106165780636d0e8c341461062d5780636ea0aa31146106355761041d565b80635ff27079146105c557806360f2c5b2146105d857806362354e03146105e057806367fc4029146105e85761041d565b80635267a15d116103005780635267a15d1461057b5780635835cf30146105835780635904089a146105a25780635aa6e675146105aa5780635bb44e9a146105b25761041d565b80633e7ff857146105415780633fdeb7e1146105495780634b48dd5e1461055c5780634eac870f146105735761041d565b8063144e1591116103b45780632b3c41a4116103835780632b3c41a4146104f25780632fd8eb7d1461050b578063361b5459146105135780633758e6791461052657806338b5f869146105395761041d565b8063144e1591146104aa57806315c29c5b146104c15780631cb513f7146104c95780632663f1b4146104df5761041d565b80630f15f4c0116103f05780630f15f4c0146104725780630f4ef8a61461047c5780631322679314610484578063132c7e1f146104975761041d565b806302fb0c5e14610422578063047fc9aa1461044057806308a7f402146104555780630e063d7d1461046a575b600080fd5b61042a610877565b6040516104379190615840565b60405180910390f35b610448610880565b6040516104379190615699565b61045d61088f565b6040516104379190615a32565b61044861089f565b61047a6108ae565b005b6104486108fc565b61047a61049236600461550e565b61090b565b61047a6104a5366004615381565b610a28565b6104b2610b18565b60405161043793929190615a7a565b61045d610b80565b6104d1610b86565b604051610437929190615a54565b61047a6104ed366004614f64565b610bad565b6104fa610bec565b6040516104379594939291906157a1565b610448610c27565b61047a610521366004615381565b610c36565b61047a610534366004615325565b610cc2565b610448610d11565b61045d610d20565b61047a610557366004614f64565b610d26565b610564610d75565b6040516104379392919061584b565b610448610e54565b610448610e63565b61058b610e88565b6040516104379b9a99989796959493929190615ab3565b610448610f57565b610448610f66565b61045d6105c0366004614f64565b610ffa565b61047a6105d3366004615282565b611019565b61045d61136e565b610448611374565b61047a6105f6366004615282565b61137f565b61045d611462565b61047a610611366004615354565b611467565b61061e611508565b60405161043793929190615a62565b61042a611519565b6104fa610643366004615495565b61191b565b61065b610656366004615282565b611c76565b604051610437929190615a3b565b61047a6106773660046151da565b611d1c565b61042a61068a366004614f64565b611d83565b61045d611da1565b61047a6106a53660046153b1565b611da7565b61047a6106b8366004615108565b611f76565b6106c5612014565b604051610437959493929190615a90565b61047a6106e4366004614f64565b6120a7565b610448612160565b61045d612184565b61045d61218a565b61047a61070f366004614f64565b6121ae565b6104b2610722366004615381565b61221a565b61047a610735366004615257565b612243565b61047a6107483660046152aa565b612380565b61047a61075b3660046152ed565b612417565b61047a61076e366004615052565b6124df565b61045d612586565b61044861258c565b6104486125b0565b61042a6125bf565b61079b6125cd565b604051610437919061578e565b61047a6107b6366004615108565b6125d7565b61045d61263e565b61047a6107d13660046154b6565b612644565b61042a6126d5565b61042a6126e5565b6107ee6127c3565b604051610437929190615a10565b61080f61080a366004615381565b6127e4565b6040516104379190615926565b61045d612855565b61045d6128bb565b61045d61083a366004615381565b6128c1565b61047a6128d3565b61084f61298d565b6040516104379190615913565b6104486129b2565b61047a61087236600461523b565b6129c1565b60055460ff1681565b6025546001600160a01b031681565b6000610899612a1b565b90505b90565b6023546001600160a01b031690565b600054600160b01b900460ff16806108d05750600054600160a81b900460ff16155b156108ef576108dd612a6e565b6005805460ff191660011790556108fa565b6108fa600036612aa3565b565b6024546001600160a01b031681565b600054600160b01b900460ff168061092d5750600054600160a81b900460ff16155b15610a115761093a612a6e565b60008911801561094a5750600088115b80156109565750868610155b801561096457506127108511155b801561097257506127108411155b801561098057506127108311155b801561098c5750600082115b801561099a57506005815111155b6040518060400160405280601381526020017211dbdd8b881c185c985b5cc81a5b9d985b1a59606a1b815250906109ed5760405162461bcd60e51b81526004016109e49190615913565b60405180910390fd5b506109f9600a8b612c26565b610a0c600a8a8a8a8a8a8a898b8a612c7b565b610a1c565b610a1c600036612aa3565b50505050505050505050565b600054600160b01b900460ff1680610a4a5750600054600160a81b900460ff16155b15610b0a57610a57612a6e565b60408051808201909152600e81526d05265776172642065706f636820360941b602082015281610a9a5760405162461bcd60e51b81526004016109e49190615913565b507f00000000000000000000000000000000000000000000000000000000000000008181610ac457fe5b06600014604051806060016040528060278152602001615ceb6027913990610aff5760405162461bcd60e51b81526004016109e49190615913565b506020819055610b15565b610b15600036612aa3565b50565b7f00000000000000000000000000000000000000000000000000000000000000007f00000000000000000000000000000000000000000000000000000000000000007f0000000000000000000000000000000000000000000000000000000000000000909192565b601e5481565b6020547f000000000000000000000000000000000000000000000000000000000000000091565b600054600160b01b900460ff1680610bcf5750600054600160a81b900460ff16155b15610b0a57610bdc612a6e565b610be7816001612e9e565b610b15565b600454606090819081908190600090610c1690600160c01b90046001600160401b0316600161191b565b945094509450945094509091929394565b6007546001600160a01b031681565b600054600160b01b900460ff1680610c585750600054600160a81b900460ff16155b15610b0a57610c65612a6e565b60408051808201909152601e81527f566f746520706f77657220696e74657276616c206672616374696f6e20300000602082015281610cb75760405162461bcd60e51b81526004016109e49190615913565b506021819055610b15565b600054600160b01b900460ff1680610ce45750600054600160a81b900460ff16155b15610d0157610cf1612a6e565b610cfc838383612f1d565b610d0c565b610d0c600036612aa3565b505050565b6019546001600160a01b031690565b60225490565b600054600160b01b900460ff1680610d485750600054600160a81b900460ff16155b15610b0a57610d55612a6e565b602780546001600160a01b0319166001600160a01b038316179055610b15565b602754600160a01b900460ff16606080610d8d612fa0565b8051909250806001600160401b0381118015610da857600080fd5b50604051908082528060200260200182016040528015610dd2578160200160208202803683370190505b50915060005b81811015610e4d5760166002016000858381518110610df357fe5b60200260200101516001600160a01b03166001600160a01b0316815260200190815260200160002060009054906101000a900460ff16838281518110610e3557fe5b91151560209283029190910190910152600101610dd8565b5050909192565b6026546001600160a01b031681565b7f714f205b2abd25bef1d06a1af944e38c113fe6160375c4e1d6d5cf28848e77195490565b600b54600c54600d54600e54600f54601054601254601154601454601380546040805160208084028201810190925282815260009c8d9c8d9c8d9c8d9c8d9c8d9c8d9c60609c8e9c8d9c999b989a979996989597949693959294909360ff6101008404811694931692859190830182828015610f2d57602002820191906000526020600020905b81546001600160a01b03168152600190910190602001808311610f0f575b505050505092509a509a509a509a509a509a509a509a509a509a509a50909192939495969798999a565b6027546001600160a01b031681565b60008054600160a81b900460ff16610f89576000546001600160a01b0316610899565b60076001609c1b016001600160a01b031663732524946040518163ffffffff1660e01b815260040160206040518083038186803b158015610fc957600080fd5b505afa158015610fdd573d6000803e3d6000fd5b505050506040513d6020811015610ff357600080fd5b5051905090565b6001600160a01b0381166000908152601560205260409020545b919050565b60408051630debfda360e41b8152336004820152905160076001609c1b019163debfda30916024808301926020929190829003018186803b15801561105d57600080fd5b505afa158015611071573d6000803e3d6000fd5b505050506040513d602081101561108757600080fd5b50516110ca576040805162461bcd60e51b815260206004820152600d60248201526c37b7363c9032bc32b1baba37b960991b604482015290519081900360640190fd5b6001600160e01b0319811660009081526001602052604090208054611136576040805162461bcd60e51b815260206004820152601a60248201527f74696d656c6f636b3a20696e76616c69642073656c6563746f72000000000000604482015290519081900360640190fd5b805442101561118c576040805162461bcd60e51b815260206004820152601960248201527f74696d656c6f636b3a206e6f7420616c6c6f7765642079657400000000000000604482015290519081900360640190fd5b6000816001018054600181600116156101000203166002900480601f0160208091040260200160405190810160405280929190818152602001828054600181600116156101000203166002900480156112265780601f106111fb57610100808354040283529160200191611226565b820191906000526020600020905b81548152906001019060200180831161120957829003601f168201915b5050506001600160e01b031986166000908152600160208190526040822082815594955090925061125a9150830182614d3a565b50506000805460ff60b01b1916600160b01b178155604051825130918491819060208401908083835b602083106112a25780518252601f199092019160209182019101611283565b6001836020036101000a0380198251168184511680821785525050505050509050019150506000604051808303816000865af19150503d8060008114611304576040519150601f19603f3d011682016040523d82523d6000602084013e611309565b606091505b50506000805460ff60b01b19169055604080516001600160e01b03198716815242602082015281519293507fa7326b57fc9cfe267aaea5e7f0b01757154d265620a0585819416ee9ddd2c438929081900390910190a161136881613021565b50505050565b60215490565b60076001609c1b0181565b61138761303e565b6001600160e01b031981166000908152600160205260409020546113f2576040805162461bcd60e51b815260206004820152601a60248201527f74696d656c6f636b3a20696e76616c69642073656c6563746f72000000000000604482015290519081900360640190fd5b604080516001600160e01b03198316815242602082015281517f7735b2391c38a81419c513e30ca578db7158eadd7101511b23e221c654d19cf8929181900390910190a16001600160e01b03198116600090815260016020819052604082208281559190610d0c90830182614d3a565b600581565b600054600160b01b900460ff16806114895750600054600160a81b900460ff16155b156114f957611496612a6e565b60405163d0d552dd60e01b81526001600160a01b0383169063d0d552dd906114c2908490600401615699565b600060405180830381600087803b1580156114dc57600080fd5b505af11580156114f0573d6000803e3d6000fd5b50505050611504565b611504600036612aa3565b5050565b601b54601c54601d5460ff16909192565b6000336001600160a01b037f0000000000000000000000000000000000000000000000000000000000000000161461158c576040805162461bcd60e51b815260206004820152601160248201527037b7363c90333630b932903230b2b6b7b760791b604482015290519081900360640190fd5b60055460ff1661159e5750600061089c565b6008546115b2576115ad61309d565b611915565b601d546000908190819060ff1680156115cd575042601c5411155b156115db57600191506115f9565b601d5460ff161580156115f057504260095411155b156115f9575060015b81806116025750805b156118c557601d54610100900460ff1615611811576023546040805163a978fb6b60e01b815281516000936001600160a01b03169263a978fb6b9260048082019391829003018186803b15801561165857600080fd5b505afa15801561166c573d6000803e3d6000fd5b505050506040513d601f19601f820116820180604052508101906116909190615471565b9094509050801580156116a05750825b156117c657602354601b546001600160a01b0390911690631c91efcf906116c5612a1b565b6040518363ffffffff1660e01b81526004016116e2929190615a54565b600060405180830381600087803b1580156116fc57600080fd5b505af192505050801561170d575060015b6117c157611719615bb5565b806117245750611769565b6040517f945e1930d717c550cfdc738b4226b97a96c13dd0e378d3fa3c3812ee430af46990600090a1602354611763906001600160a01b0316826131e1565b506117c1565b6040517f945e1930d717c550cfdc738b4226b97a96c13dd0e378d3fa3c3812ee430af46990600090a16023546040805160608101909152602a8082526117c1926001600160a01b03169190615cc160208301396131e1565b61180b565b811561180b578061180557601f546117e55742601f55600091506117c1565b42601e54601f5401116117fc576000601f556117c1565b6000915061180b565b6000601f555b506118c5565b602360009054906101000a90046001600160a01b03166001600160a01b031663d89601fd6040518163ffffffff1660e01b815260040160206040518083038186803b15801561185f57600080fd5b505afa158015611873573d6000803e3d6000fd5b505050506040513d601f19601f820116820180604052508101906118979190615399565b42016040516020016118a99190615a32565b6040516020818303038152906040528051906020012060001c92505b81156118d9576118d4836133ba565b611911565b8015611900576118e88361389d565b6118f0613a25565b6118f8613bb1565b6118d4613cfe565b42601c541161191157611911613e46565b5050505b50600190565b606080606080600060038054905087106040518060400160405280601081526020016f0e6e8c2e4e840d2dcc8caf040d0d2ced60831b815250906119725760405162461bcd60e51b81526004016109e49190615913565b50600354600090888801111561198d5760035488900361198f565b865b9050806001600160401b03811180156119a757600080fd5b506040519080825280602002602001820160405280156119d1578160200160208202803683370190505b509550806001600160401b03811180156119ea57600080fd5b50604051908082528060200260200182016040528015611a14578160200160208202803683370190505b509450806001600160401b0381118015611a2d57600080fd5b50604051908082528060200260200182016040528015611a6157816020015b6060815260200190600190039081611a4c5790505b509350806001600160401b0381118015611a7a57600080fd5b50604051908082528060200260200182016040528015611aa4578160200160208202803683370190505b50925060005b81811015611c5a5760006003828b0181548110611ac357fe5b6000918252602080832090910154808352600290915260409091205489519192506001600160c01b031690899084908110611afa57fe5b6020026020010181815250506002600082815260200190815260200160002060000160189054906101000a90046001600160401b03166001600160401b0316878381518110611b4557fe5b602090810291909101810191909152600082815260028083526040918290208101805483516001821615610100026000190190911692909204601f81018590048502830185019093528282529092909190830182828015611be75780601f10611bbc57610100808354040283529160200191611be7565b820191906000526020600020905b815481529060010190602001808311611bca57829003601f168201915b5050505050868381518110611bf857fe5b60200260200101819052506002600082815260200190815260200160002060010160009054906101000a90046001600160a01b0316858381518110611c3957fe5b6001600160a01b039092166020928302919091019091015250600101611aaa565b50506004549497939650919450926001600160c01b0316919050565b600160208181526000928352604092839020805481840180548651600296821615610100026000190190911695909504601f81018590048502860185019096528585529094919392909190830182828015611d125780601f10611ce757610100808354040283529160200191611d12565b820191906000526020600020905b815481529060010190602001808311611cf557829003601f168201915b5050505050905082565b600054600160b01b900460ff1680611d3e5750600054600160a81b900460ff16155b15610d0157611d4b612a6e565b60005b8351811015611d7d57611d75848281518110611d6657fe5b60200260200101518484612f1d565b600101611d4e565b50610d0c565b6001600160a01b031660009081526017602052604090205460ff1690565b60205481565b600054600160b01b900460ff1680611dc95750600054600160a81b900460ff16155b15610d0157611dd6612a6e565b80518251146040518060400160405280601a81526020017f6172726179206c656e6774687320646f206e6f74206d6174636800000000000081525090611e2f5760405162461bcd60e51b81526004016109e49190615913565b50611e3b600a84612c26565b60005b8251811015611d7d57620f4240828281518110611e5757fe5b602002602001015111156040518060400160405280601a81526020017f656c61737469632062616e6420776964746820696e76616c696400000000000081525090611eb55760405162461bcd60e51b81526004016109e49190615913565b50818181518110611ec257fe5b6020026020010151600a600b016000858481518110611edd57fe5b60200260200101516001600160a01b03166001600160a01b031681526020019081526020016000205414611f6e576014805460ff191660011790558151829082908110611f2657fe5b6020026020010151600a600b016000858481518110611f4157fe5b60200260200101516001600160a01b03166001600160a01b03168152602001908152602001600020819055505b600101611e3e565b600054600160b01b900460ff1680611f985750600054600160a81b900460ff16155b15610b0a57611fa5612a6e565b60405163984626c360e01b815273__$03dc2144a91b115216397a255bda0073a6$__9063984626c390611fdf906016908590600401615947565b60006040518083038186803b158015611ff757600080fd5b505af415801561200b573d6000803e3d6000fd5b50505050610b15565b600080600080600080612025612a1b565b9550507f00000000000000000000000000000000000000000000000000000000000000007f0000000000000000000000000000000000000000000000000000000000000000808702820195506001870102019250507f000000000000000000000000000000000000000000000000000000000000000082019050429091929394565b600054600160a01b900460ff16156120fd576040805162461bcd60e51b8152602060048201526014602482015273696e697469616c6973656420213d2066616c736560601b604482015290519081900360640190fd5b60008054600160a01b60ff60a01b19909116176001600160a01b0319166001600160a01b03831690811790915560408051918252517f9789733827840833afc031fb2ef9ab6894271f77bad2085687cf4ae5c7bee4db916020908290030190a150565b7f000000000000000000000000000000000000000000000000000000000000000081565b600a5490565b7f000000000000000000000000000000000000000000000000000000000000000081565b600054600160b01b900460ff16806121d05750600054600160a81b900460ff16155b15610b0a576121dd612a6e565b604051630d6f6ead60e11b815273__$03dc2144a91b115216397a255bda0073a6$__90631adedd5a90611fdf90601690600a90869060040161598a565b600080600080612229856127e4565b805160208201516040909201519097919650945092505050565b600054600160b01b900460ff16806122655750600054600160a81b900460ff16155b156114f957612272612a6e565b81156122da5760008111801561228b57506203f4808111155b60405180604001604052806012815260200171696e76616c696420706172616d657465727360701b815250906122d45760405162461bcd60e51b81526004016109e49190615913565b50612329565b604080518082019091526012815271696e76616c696420706172616d657465727360701b602082015281156123225760405162461bcd60e51b81526004016109e49190615913565b506000601f555b601d805461ff00191661010084151502179055601e8190556040517f5c9bf067f2a8b23128e64d5ce119251f51d6c0c24e0d7bf430c2dd77df3ec0929061237390849084906158a9565b60405180910390a1611504565b600054600160b01b900460ff16806123a25750600054600160a81b900460ff16155b156114f9576123af612a6e565b604051636904d3eb60e11b815273__$03dc2144a91b115216397a255bda0073a6$__9063d209a7d6906123eb9060169086908690600401615960565b60006040518083038186803b15801561240357600080fd5b505af41580156114f0573d6000803e3d6000fd5b61241f61303e565b6001600160a01b0382166000908152601660209081526040918290205482518084019093526009835268139bdd08199bdd5b9960ba1b9183019190915260ff1661247c5760405162461bcd60e51b81526004016109e49190615913565b506001600160a01b03821660009081526018602052604090819020805460ff1916831515179055517f24462ede4d3e8e5a69fecec6290d42a311016ca752216d9a3d681e284791b7ac906124d390849084906158b9565b60405180910390a15050565b6124e7610e63565b6001600160a01b0316336001600160a01b031614612543576040805162461bcd60e51b815260206004820152601460248201527337b7363c9030b2323932b9b9903ab83230ba32b960611b604482015290519081900360640190fd5b61257c61257783836040518060400160405280600e81526020016d20b2323932b9b9aab83230ba32b960911b8152506141a8565b6142d5565b61150482826142f9565b601f5481565b7f000000000000000000000000000000000000000000000000000000000000000081565b601a546001600160a01b031690565b601d54610100900460ff1681565b6060610899612fa0565b600054600160b01b900460ff16806125f95750600054600160a81b900460ff16155b15610b0a57612606612a6e565b60005b81518110156126385761263082828151811061262157fe5b60200260200101516001612e9e565b600101612609565b50610b15565b60095481565b600054600160b01b900460ff16806126665750600054600160a81b900460ff16155b15610d0157612673612a6e565b600554604080518082019091526011815270105b1c9958591e481858dd1a5d985d1959607a1b60208201529060ff16156126c05760405162461bcd60e51b81526004016109e49190615913565b50602283905560088290556009819055610d0c565b600054600160a81b900460ff1681565b6000336001600160a01b037f00000000000000000000000000000000000000000000000000000000000000001614612758576040805162461bcd60e51b815260206004820152601160248201527037b7363c90333630b932903230b2b6b7b760791b604482015290519081900360640190fd5b602754600160a01b900460ff166127bd576027805460ff60a01b1916600160a01b1790556040517f217a37a37fc40a97159886f80c3d45986e6fc4330ce6ad7283478b5e5ab705bc906127ad90600190615840565b60405180910390a150600161089c565b50600090565b6004546001600160c01b03811690600160c01b90046001600160401b031682565b6127ec614d7e565b60085482106040518060400160405280602081526020017f5265776172642065706f6368206e6f7420696e697469616c697a656420796574815250906128455760405162461bcd60e51b81526004016109e49190615913565b5061284f82614506565b92915050565b6000600854600014156040518060400160405280602081526020017f5265776172642065706f6368206e6f7420696e697469616c697a656420796574815250906128b25760405162461bcd60e51b81526004016109e49190615913565b5061089961460b565b60115490565b60006128cc826127e4565b5192915050565b6128db61303e565b600054600160a81b900460ff161561293a576040805162461bcd60e51b815260206004820152601a60248201527f616c726561647920696e2070726f64756374696f6e206d6f6465000000000000604482015290519081900360640190fd5b60008054600161ff0160a01b031916600160a81b1790556040805160076001609c1b01815290517f83af113638b5422f9e977cebc0aaf0eaf2188eb9a8baae7f9d46c42b33a1560c9181900360200190a1565b60408051808201909152600b81526a233a39b7a6b0b730b3b2b960a91b602082015290565b6023546001600160a01b031681565b6129c961303e565b6027805460ff60a01b1916600160a01b831515021790556040517f217a37a37fc40a97159886f80c3d45986e6fc4330ce6ad7283478b5e5ab705bc90612a10908390615840565b60405180910390a150565b60007f00000000000000000000000000000000000000000000000000000000000000007f0000000000000000000000000000000000000000000000000000000000000000420381612a6857fe5b04905090565b600054600160b01b900460ff1615612a9b57333014612a8957fe5b6000805460ff60b01b191690556108fa565b6108fa61303e565b612aab61303e565b600082359050600060076001609c1b016001600160a01b0316636221a54b6040518163ffffffff1660e01b815260040160206040518083038186803b158015612af357600080fd5b505afa158015612b07573d6000803e3d6000fd5b505050506040513d6020811015612b1d57600080fd5b505160408051808201825242830180825282516020601f89018190048102820181019094528781529394509290918281019190889088908190840183828082843760009201829052509390945250506001600160e01b03198616815260016020818152604090922084518155848301518051919450612ba193928501920190614d9f565b509050507fed948300a3694aa01d4a6b258bfd664350193d770c0b51f8387277f6d83ea3b68382878760405180856001600160e01b0319168152602001848152602001806020018281038252848482818152602001925080828437600083820152604051601f909101601f191690920182900397509095505050505050a15050505050565b801580612c3257504281115b612c77576040805162461bcd60e51b8152602060048201526011602482015270696e76616c69642075706461746520747360781b604482015290519081900360640190fd5b9055565b888a6001015414612c9e57600a8a01805460ff191660019081179091558a018990555b878a6002015414612cc057600a8a01805460ff1916600117905560028a018890555b868a6003015414612ce257600a8a01805460ff1916600117905560038a018790555b858a6004015414612d0457600a8a01805460ff1916600117905560048a018690555b848a6005015414612d2657600a8a01805460ff1916600117905560058a018590555b838a6006015414612d4857600a8a01805460ff1916600117905560068a018490555b828a6007015414612d6a57600a8a01805460ff1916600117905560078a018390555b818a6008015414612d8c57600a8a01805460ff1916600117905560088a018290555b805160098b015414612dc2578051612dad9060098c01906020840190614e2b565b50600a8a01805460ff19166001179055612e81565b60005b8151811015612e7f57818181518110612dda57fe5b60200260200101516001600160a01b03168b6009018281548110612dfa57fe5b6000918252602090912001546001600160a01b031614612e7757600a8b01805460ff191660011790558151829082908110612e3157fe5b60200260200101518b6009018281548110612e4857fe5b9060005260206000200160006101000a8154816001600160a01b0302191690836001600160a01b031602179055505b600101612dc5565b505b505050600a909601805461ff001916610100179055505050505050565b601d546040516306b8c18560e01b815273__$03dc2144a91b115216397a255bda0073a6$__916306b8c18591612ee491601691600a918891889160ff16906004016159a9565b60006040518083038186803b158015612efc57600080fd5b505af4158015612f10573d6000803e3d6000fd5b5050505061150482614615565b601d5460405163169ffdc760e21b815273__$03dc2144a91b115216397a255bda0073a6$__91635a7ff71c91612f6791601691600a9189918991899160ff909116906004016159d9565b60006040518083038186803b158015612f7f57600080fd5b505af4158015612f93573d6000803e3d6000fd5b50505050610d0c83614615565b60195460408051635200305d60e11b815290516060926001600160a01b03169163a40060ba916004808301926000929190829003018186803b158015612fe557600080fd5b505afa158015612ff9573d6000803e3d6000fd5b505050506040513d6000823e601f3d908101601f191682016040526108999190810190615142565b3d604051818101604052816000823e821561303a578181f35b8181fd5b613046610f66565b6001600160a01b0316336001600160a01b0316146108fa576040805162461bcd60e51b815260206004820152600f60248201526e6f6e6c7920676f7665726e616e636560881b604482015290519081900360640190fd5b7f000000000000000000000000000000000000000000000000000000000000000042106108fa5760006130ce612fa0565b80516040805160608101825243600019810182526020808301918252428385019081526008805460009081526006909352948220845181559251600180850191909155905160029093019290925583549091019092559293509091905b828110156131b35783818151811061313f57fe5b60200260200101516001600160a01b031663e536f39683600001516040518263ffffffff1660e01b81526004016131769190615a32565b600060405180830381600087803b15801561319057600080fd5b505af11580156131a4573d6000803e3d6000fd5b5050505080600101905061312b565b50506020547f0000000000000000000000000000000000000000000000000000000000000000016009555050565b600082826040516020016131f69291906156c6565b60408051601f198184030181528282528051602091820120600081815260029092529190208054436001600160c01b038181166001600160401b03600160c01b80860482166001019091160291909316176001600160c01b031916919091179091559092507f1a601cf5e0efbd558b2778b7389af04741d1c49bcab104c40daa2da1945936179161328a91869186906156ea565b60405180910390a1600480546001600160c01b0319811660016001600160c01b03928316810190921617909155600082815260026020526040902054600160c01b90046001600160401b031611156132e25750611504565b6003805460018082019092557fc2575a0e9e593c00f959f8c92f12db2869c3395a3b0502d05e2516446f71f85b01829055600082815260026020818152604090922092830180546001600160a01b0319166001600160a01b03881617905584516133529390910191850190614d9f565b50600354600091825260026020526040909120600101805467ffffffffffffffff60a01b1916600160a01b6000199093016001600160401b0390811684029190911791829055600480546001600160c01b03169390920416600160c01b029190911790555050565b60006133c4612fa0565b805190915080158015906133e25750602754600160a01b900460ff16155b156137b25760008184816133f257fe5b06905060608060008080805b8781101561359a576000888289018161341357fe5b06905060008a828151811061342457fe5b6020908102919091018101516001600160a01b0381166000908152601790925260409091205490915060ff161561347a576001600160a01b03166000908152601760205260409020805460ff1916905550613592565b601b546040516340462a2d60e01b81526001600160a01b038316916340462a2d916134ab9190891590600401615903565b600060405180830381600087803b1580156134c557600080fd5b505af19250505080156134fa57506040513d6000823e601f3d908101601f191682016040526134f79190810190614f87565b60015b61356557613506615bb5565b806135115750613521565b61351b8282614752565b50613560565b613560816040518060400160405280601881526020017f6572722066696e616c697a652070726963652065706f63680000000000000000815250614752565b61358f565b87158015613574575060008351115b1561358b5791995097509550600194509250828787875b5050505b50505b6001016133fe565b5060006135a561460b565b9050821561374957602454601b546001600160a01b039091169063a9b79e1790889088908890877f00000000000000000000000000000000000000000000000000000000000000008860016135f9856147a3565b036136038b614506565b516040516001600160e01b031960e08c901b16815261362d99989796959493929190600401615711565b600060405180830381600087803b15801561364757600080fd5b505af1925050508015613658575060015b61374457613664615bb5565b8061366f57506136c6565b7f175a1d13d190d6a1e14461c214b3ecf6118b828797750b7bffd7c4f2c1eba54c83601b546040516136a29291906156ad565b60405180910390a16024546136c0906001600160a01b0316826131e1565b50613744565b7f175a1d13d190d6a1e14461c214b3ecf6118b828797750b7bffd7c4f2c1eba54c82601b546040516136f99291906156ad565b60405180910390a16024546040805180820190915260168152756572722064697374726962757465207265776172647360501b6020820152613744916001600160a01b0316906131e1565b613751565b6137516147f0565b600780546001600160a01b0319166001600160a01b0384161790556040517f98b050a4042fbd1b89934ef40b9342e593f15081a348af940573a0179031f4ad9061379e90849084906156ad565b60405180910390a15050505050505061388e565b60005b818110156138335760008382815181106137cb57fe5b6020908102919091018101516001600160a01b0381166000908152601790925260409091205490915060ff1615613820576001600160a01b03166000908152601760205260409020805460ff1916905561382b565b61382981614972565b505b6001016137b5565b5061383c6147f0565b600780546001600160a01b03191690557f98b050a4042fbd1b89934ef40b9342e593f15081a348af940573a0179031f4ad600061387761460b565b6040516138859291906156ad565b60405180910390a15b5050601d805460ff1916905550565b60006138a7612fa0565b905060008151905060006021546138c46138bf61460b565b614506565b602001514303816138d157fe5b049050806138dd575060015b60008185816138e857fe5b069050806138f4575060015b60408051606081018252438381038252602080830191825242838501908152600880546000908152600690935294822084518155925160018085019190915590516002909301929092558354909101909255905b848110156139d15785818151811061395c57fe5b60200260200101516001600160a01b031663e536f39683600001516040518263ffffffff1660e01b81526004016139939190615a32565b600060405180830381600087803b1580156139ad57600080fd5b505af11580156139c1573d6000803e3d6000fd5b5050600190920191506139489050565b50805160208201516040517f1813f880dc24666c8b69c9d771a487ea620a27fde1514be3112847056c0c532292613a09929091615a54565b60405180910390a1505060205460098054909101905550505050565b6000613a2f61460b565b60115490915042035b81602254108015613a5a575080613a53602254600101614506565b6040015111155b1561150457602454602254604051636b60edf760e11b81526001600160a01b039092169163d6c1dbee91613a9091600401615a32565b600060405180830381600087803b158015613aaa57600080fd5b505af1925050508015613abb575060015b613ba357613ac7615bb5565b80613ad25750613b27565b7fa819a21065ad87bdde9e6d398d3213e0d3634afd87aceb7092236483f5d7ca8d602254604051613b039190615a32565b60405180910390a1602454613b21906001600160a01b0316826131e1565b50611504565b7fa819a21065ad87bdde9e6d398d3213e0d3634afd87aceb7092236483f5d7ca8d602254604051613b589190615a32565b60405180910390a1602454604080518082019091526011815270195c9c8818db1bdcd948195e1c1a5c9959607a1b6020820152613b9e916001600160a01b0316906131e1565b611504565b602280546001019055613a38565b6000613bbe602254614506565b5160265460405163cbc31cf760e01b81529192506001600160a01b03169063cbc31cf790613bf0908490600401615a32565b600060405180830381600087803b158015613c0a57600080fd5b505af1925050508015613c1b575060015b610b1557613c27615bb5565b80613c325750613c85565b7f9f874ea08c7014cce74622bfe71434f81aba7598ad65126a6aea86945bdfa18d82604051613c619190615a32565b60405180910390a1602654613c7f906001600160a01b0316826131e1565b50610be7565b7f9f874ea08c7014cce74622bfe71434f81aba7598ad65126a6aea86945bdfa18d81604051613cb49190615a32565b60405180910390a16026546040805180820190915260158152746572722073657420636c65616e757020626c6f636b60581b6020820152610be7916001600160a01b0316906131e1565b6027546001600160a01b0316156108fa576000613d1961460b565b9050602760009054906101000a90046001600160a01b03166001600160a01b03166321eb1a956040518163ffffffff1660e01b8152600401600060405180830381600087803b158015613d6b57600080fd5b505af1925050508015613d7c575060015b610b1557613d88615bb5565b80613d935750613de0565b7ff7c7d6681321cc290eb89e8c96dba504436073b8bb277945cc32177e5181dd8482604051613dc29190615a32565b60405180910390a1602754613c7f906001600160a01b0316826131e1565b7ff7c7d6681321cc290eb89e8c96dba504436073b8bb277945cc32177e5181dd8481604051613e0f9190615a32565b60405180910390a160275460408051606081019091526022808252610be7926001600160a01b03169190615c9f60208301396131e1565b60145460ff168015613e5a5750600a544210155b15613ec357602354604051639ec2b58160e01b81526001600160a01b0390911690639ec2b58190613e909060139060040161577b565b600060405180830381600087803b158015613eaa57600080fd5b505af1158015613ebe573d6000803e3d6000fd5b505050505b6000613ecd612fa0565b805190915060008115801590613eed5750602754600160a01b900460ff16155b15613f86576000613eff6138bf61460b565b516025546040516237b08960e41b81529192506001600160a01b03169063037b089090613f30908490600401615a32565b602060405180830381600087803b158015613f4a57600080fd5b505af1158015613f5e573d6000803e3d6000fd5b505050506040513d601f19601f82011682018060405250810190613f829190615399565b9150505b60005b82811015614153576000848281518110613f9f57fe5b602090810291909101015160145490915060ff168015613fc15750600a544210155b1561405957600b54600c54600d54600e54600f546010546012546001600160a01b03881660008181526015602052604090819020549051632d1e4ec760e11b81529198635a3c9d8e986140269891979096919590949193909290601390600401615b1a565b600060405180830381600087803b15801561404057600080fd5b505af1158015614054573d6000803e3d6000fd5b505050505b806001600160a01b031663f670ebe384602760149054906101000a900460ff168061409c57506001600160a01b03841660009081526018602052604090205460ff165b6040518363ffffffff1660e01b81526004016140b9929190615903565b600060405180830381600087803b1580156140d357600080fd5b505af19250505080156140e4575060015b61414a576140f0615bb5565b806140fb575061410b565b6141058282614a0e565b5061414a565b61414a816040518060400160405280601981526020017f65727220696e69742065706f636820666f722072657665616c00000000000000815250614a0e565b50600101613f89565b5060145460ff1680156141685750600a544210155b15614178576014805460ff191690555b6000614182612a1b565b601b819055905061419281614c1f565b601c555050601d805460ff191660011790555050565b600080826040516020018080602001828103825283818151815260200191508051906020019080838360005b838110156141ec5781810151838201526020016141d4565b50505050905090810190601f1680156142195780820380516001836020036101000a031916815260200191505b50925050506040516020818303038152906040528051906020012090506000805b86518110156142815786818151811061424f57fe5b60200260200101518314156142795785818151811061426a57fe5b60200260200101519150614281565b60010161423a565b506001600160a01b0381166142cc576040805162461bcd60e51b815260206004820152600c60248201526b61646472657373207a65726f60a01b604482015290519081900360640190fd5b95945050505050565b7f714f205b2abd25bef1d06a1af944e38c113fe6160375c4e1d6d5cf28848e771955565b61432a82826040518060400160405280600e81526020016d283934b1b2a9bab136b4ba3a32b960911b8152506141a8565b602360006101000a8154816001600160a01b0302191690836001600160a01b03160217905550614384828260405180604001604052806011815260200170233a39b7a932bbb0b93226b0b730b3b2b960791b8152506141a8565b602460006101000a8154816001600160a01b0302191690836001600160a01b031602179055506143d3828260405180604001604052806006815260200165537570706c7960d01b8152506141a8565b602560006101000a8154816001600160a01b0302191690836001600160a01b0316021790555061443982826040518060400160405280601981526020017f436c65616e7570426c6f636b4e756d6265724d616e61676572000000000000008152506141a8565b602660006101000a8154816001600160a01b0302191690836001600160a01b0316021790555061448e82826040518060400160405280600c81526020016b4674736f526567697374727960a01b8152506141a8565b601980546001600160a01b0319166001600160a01b039290921691909117905560408051808201909152601081526f2b37ba32b92bb434ba32b634b9ba32b960811b60208201526144e290839083906141a8565b601a80546001600160a01b0319166001600160a01b03929092169190911790555050565b61450e614d7e565b5060008181526006602090815260409182902082516060810184528154815260018201549281019290925260020154918101829052906110145760008060007f00000000000000000000000000000000000000000000000000000000000000006001600160a01b031663a795f409866040518263ffffffff1660e01b81526004016145999190615a32565b60606040518083038186803b1580156145b157600080fd5b505afa1580156145c5573d6000803e3d6000fd5b505050506040513d601f19601f820116820180604052508101906145e991906154e1565b6040805160608101825293845260208401929092529082015295945050505050565b6008546000190190565b604051630bc29bcf60e21b81526001600160a01b03821690632f0a6f3c906146a5907f0000000000000000000000000000000000000000000000000000000000000000907f0000000000000000000000000000000000000000000000000000000000000000907f000000000000000000000000000000000000000000000000000000000000000090600401615a7a565b600060405180830381600087803b1580156146bf57600080fd5b505af11580156146d3573d6000803e3d6000fd5b50505050600854600014610b1557806001600160a01b031663e536f3966146fb6138bf61460b565b516040516001600160e01b031960e084901b16815261471d9190600401615a32565b600060405180830381600087803b15801561473757600080fd5b505af115801561474b573d6000803e3d6000fd5b5050505050565b7f79f4c7cc43bfb79f5a3aad0d92f75b6fed7db061bb5cc2580a01c8132711b88182601b546001604051614788939291906158d4565b60405180910390a161479a82826131e1565b61150482614972565b7f0000000000000000000000000000000000000000000000000000000000000000600182017f00000000000000000000000000000000000000000000000000000000000000000201919050565b602454601b546001600160a01b03909116906367dcac53907f00000000000000000000000000000000000000000000000000000000000000006001614834836147a3565b036040518463ffffffff1660e01b815260040161485393929190615a7a565b600060405180830381600087803b15801561486d57600080fd5b505af192505050801561487e575060015b6108fa5761488a615bb5565b8061489557506148ea565b7f8eb60f903ef61e0e490d7d7ba6e5b85cd949ebece7a5e5b3346eb046c041413f601b546040516148c69190615a32565b60405180910390a16024546148e4906001600160a01b0316826131e1565b5061496d565b7f8eb60f903ef61e0e490d7d7ba6e5b85cd949ebece7a5e5b3346eb046c041413f601b5460405161491b9190615a32565b60405180910390a160245460408051808201909152601b81527f6572722061636372756520756e6561726e656420726577617264730000000000602082015261496d916001600160a01b0316906131e1565b6108fa565b601b5460405163257ea88160e11b81526001600160a01b03831691634afd5102916149a09190600401615a32565b600060405180830381600087803b1580156149ba57600080fd5b505af19250505080156149cb575060015b610b15576149d7615bb5565b806149e257506149ec565b613c7f8282614c8e565b610be781604051806060016040528060218152602001615d1260219139614c8e565b7f61156899176547b8075bfa81fa2996c6057ce9c71320884b11c0179d9dc2e46282614a38612a1b565b604051614a469291906156ad565b60405180910390a1614a5882826131e1565b602754600160a01b900460ff1680614a8857506001600160a01b03821660009081526018602052604090205460ff165b15614ab5576001600160a01b0382166000908152601760205260409020805460ff19166001179055611504565b60405163f670ebe360e01b81526001600160a01b0383169063f670ebe390614ae590600090600190600401615903565b600060405180830381600087803b158015614aff57600080fd5b505af1925050508015614b10575060015b61150457614b1c615bb5565b80614b275750614b9a565b6001600160a01b0383166000908152601760205260409020805460ff191660011790557f61156899176547b8075bfa81fa2996c6057ce9c71320884b11c0179d9dc2e46283614b74612a1b565b604051614b829291906156ad565b60405180910390a1614b9483826131e1565b50613b9e565b6001600160a01b0382166000908152601760205260409020805460ff191660011790557f61156899176547b8075bfa81fa2996c6057ce9c71320884b11c0179d9dc2e46282614be7612a1b565b604051614bf59291906156ad565b60405180910390a1613b9e82604051806060016040528060228152602001615c7d602291396131e1565b7f0000000000000000000000000000000000000000000000000000000000000000600182017f000000000000000000000000000000000000000000000000000000000000000002017f000000000000000000000000000000000000000000000000000000000000000001919050565b7f79f4c7cc43bfb79f5a3aad0d92f75b6fed7db061bb5cc2580a01c8132711b88182601b546002604051614cc4939291906158d4565b60405180910390a1614cd682826131e1565b601b5460405163974d7a6b60e01b81526001600160a01b0384169163974d7a6b91614d049190600401615a32565b600060405180830381600087803b158015614d1e57600080fd5b505af1158015614d32573d6000803e3d6000fd5b505050505050565b50805460018160011615610100020316600290046000825580601f10614d605750610b15565b601f016020900490600052602060002090810190610b159190614e80565b60405180606001604052806000815260200160008152602001600081525090565b828054600181600116156101000203166002900490600052602060002090601f016020900481019282614dd55760008555614e1b565b82601f10614dee57805160ff1916838001178555614e1b565b82800160010185558215614e1b579182015b82811115614e1b578251825591602001919060010190614e00565b50614e27929150614e80565b5090565b828054828255906000526020600020908101928215614e1b579160200282015b82811115614e1b57825182546001600160a01b0319166001600160a01b03909116178255602090920191600190910190614e4b565b5b80821115614e275760008155600101614e81565b600082601f830112614ea5578081fd5b81356020614eba614eb583615b92565b615b6f565b8281528181019085830183850287018401881015614ed6578586fd5b855b85811015614efd578135614eeb81615c59565b84529284019290840190600101614ed8565b5090979650505050505050565b600082601f830112614f1a578081fd5b81516020614f2a614eb583615b92565b8281528181019085830183850287018401881015614f46578586fd5b855b85811015614efd57815184529284019290840190600101614f48565b600060208284031215614f75578081fd5b8135614f8081615c59565b9392505050565b600080600060608486031215614f9b578182fd5b83516001600160401b0380821115614fb1578384fd5b818601915086601f830112614fc4578384fd5b81516020614fd4614eb583615b92565b82815281810190858301838502870184018c1015614ff0578889fd5b8896505b8487101561501b57805161500781615c59565b835260019690960195918301918301614ff4565b5091890151919750909350505080821115615034578384fd5b5061504186828701614f0a565b925050604084015190509250925092565b60008060408385031215615064578182fd5b82356001600160401b038082111561507a578384fd5b818501915085601f83011261508d578384fd5b8135602061509d614eb583615b92565b82815281810190858301838502870184018b10156150b9578889fd5b8896505b848710156150db5780358352600196909601959183019183016150bd565b50965050860135925050808211156150f1578283fd5b506150fe85828601614e95565b9150509250929050565b600060208284031215615119578081fd5b81356001600160401b0381111561512e578182fd5b61513a84828501614e95565b949350505050565b60006020808385031215615154578182fd5b82516001600160401b03811115615169578283fd5b8301601f81018513615179578283fd5b8051615187614eb582615b92565b81815283810190838501858402850186018910156151a3578687fd5b8694505b838510156151ce5780516151ba81615c59565b8352600194909401939185019185016151a7565b50979650505050505050565b6000806000606084860312156151ee578081fd5b83356001600160401b03811115615203578182fd5b61520f86828701614e95565b935050602084013561522081615c6e565b9150604084013561523081615c6e565b809150509250925092565b60006020828403121561524c578081fd5b8135614f8081615c6e565b60008060408385031215615269578182fd5b823561527481615c6e565b946020939093013593505050565b600060208284031215615293578081fd5b81356001600160e01b031981168114614f80578182fd5b600080604083850312156152bc578182fd5b82356152c781615c59565b915060208301356001600160401b038111156152e1578182fd5b6150fe85828601614e95565b600080604083850312156152ff578182fd5b823561530a81615c59565b9150602083013561531a81615c6e565b809150509250929050565b600080600060608486031215615339578081fd5b833561534481615c59565b9250602084013561522081615c6e565b60008060408385031215615366578182fd5b823561537181615c59565b9150602083013561531a81615c59565b600060208284031215615392578081fd5b5035919050565b6000602082840312156153aa578081fd5b5051919050565b6000806000606084860312156153c5578081fd5b833592506020808501356001600160401b03808211156153e3578384fd5b6153ef88838901614e95565b94506040870135915080821115615404578384fd5b508501601f81018713615415578283fd5b8035615423614eb582615b92565b81815283810190838501858402850186018b101561543f578687fd5b8694505b83851015615461578035835260019490940193918501918501615443565b5080955050505050509250925092565b60008060408385031215615483578182fd5b82519150602083015161531a81615c6e565b600080604083850312156154a7578182fd5b50508035926020909101359150565b6000806000606084860312156154ca578081fd5b505081359360208301359350604090920135919050565b6000806000606084860312156154f5578081fd5b8351925060208401519150604084015190509250925092565b6000806000806000806000806000806101408b8d03121561552d578788fd5b8a35995060208b0135985060408b0135975060608b0135965060808b0135955060a08b0135945060c08b0135935060e08b013592506101008b013591506101208b01356001600160401b03811115615583578182fd5b61558f8d828e01614e95565b9150509295989b9194979a5092959850565b6000815180845260208085019450808401835b838110156155d95781516001600160a01b0316875295820195908201906001016155b4565b509495945050505050565b6000815480845260208085019450838352808320835b838110156155d95781546001600160a01b0316875295820195600191820191016155fa565b6000815180845260208085019450808401835b838110156155d957815187529582019590820190600101615632565b60008151808452815b8181101561567357602081850181015186830182015201615657565b818111156156845782602083870101525b50601f01601f19169290920160200192915050565b6001600160a01b0391909116815260200190565b6001600160a01b03929092168252602082015260400190565b6001600160a01b038316815260406020820181905260009061513a9083018461564e565b600060018060a01b0385168252836020830152606060408301526142cc606083018461564e565b60006101208083526157258184018d6155a1565b90508281036020840152615739818c61561f565b604084019a909a52505060608101969096526001600160a01b0394909416608086015260a085019290925260c084015260e08301526101009091015292915050565b600060208252614f8060208301846155e4565b600060208252614f8060208301846155a1565b600060a082526157b460a083018861561f565b6020838203818501526157c7828961561f565b848103604086015287518082529092508183019082810284018301838a01865b8381101561581557601f1987840301855261580383835161564e565b948601949250908501906001016157e7565b50508681036060880152615829818a6155a1565b955050505050508260808301529695505050505050565b901515815260200190565b60008415158252602060608184015261586760608401866155a1565b8381036040850152845180825282860191830190845b8181101561589b57835115158352928401929184019160010161587d565b509098975050505050505050565b9115158252602082015260400190565b6001600160a01b039290921682521515602082015260400190565b6001600160a01b03841681526020810183905260608101600683106158f557fe5b826040830152949350505050565b9182521515602082015260400190565b600060208252614f80602083018461564e565b81518152602080830151908201526040918201519181019190915260600190565b60008382526040602083015261513a60408301846155a1565b8381526001600160a01b03831660208201526060604082018190526000906142cc908301846155a1565b92835260208301919091526001600160a01b0316604082015260600190565b94855260208501939093526001600160a01b03919091166040840152151560608301521515608082015260a00190565b95865260208601949094526001600160a01b039290921660408501521515606084015215156080830152151560a082015260c00190565b6001600160c01b039290921682526001600160401b0316602082015260400190565b90815260200190565b60008382526040602083015261513a604083018461564e565b918252602082015260400190565b92835260208301919091521515604082015260600190565b9283526020830191909152604082015260600190565b948552602085019390935260408401919091526060830152608082015260a00190565b60006101608d83528c60208401528b60408401528a60608401528960808401528860a08401528760c08401528660e084015280610100840152615af8818401876155a1565b9415156101208401525050901515610140909101529998505050505050505050565b60006101208b83528a60208401528960408401528860608401528760808401528660a08401528560c08401528460e084015280610100840152615b5f818401856155e4565b9c9b505050505050505050505050565b6040518181016001600160401b0381118282101715615b8a57fe5b604052919050565b60006001600160401b03821115615ba557fe5b5060209081020190565b60e01c90565b600060443d1015615bc55761089c565b600481823e6308c379a0615bd98251615baf565b14615be35761089c565b6040513d600319016004823e80513d6001600160401b038160248401118184111715615c12575050505061089c565b82840192508251915080821115615c2c575050505061089c565b503d83016020828401011115615c445750505061089c565b601f01601f1916810160200160405291505090565b6001600160a01b0381168114610b1557600080fd5b8015158114610b1557600080fdfe6572722066616c6c6261636b20696e69742065706f636820666f722072657665616c6572722063616c6c696e672075706461746541637469766556616c696461746f72736572722063616c6c696e67206368696c6c4e6f6e72657665616c696e674461746150726f7669646572735265776172642065706f6368206475726174696f6e20636f6e646974696f6e20696e76616c69646572722066616c6c6261636b2066696e616c697a652070726963652065706f6368a2646970667358221220d6017b15813a9d7d50a396a1ed135e1011c804e8b1191819c3577df6847a26dc64736f6c634300070600335265776172642065706f6368206475726174696f6e20636f6e646974696f6e20696e76616c69645265776172642065706f636820737461727420636f6e646974696f6e20696e76616c6964",
  "linkReferences": {
    "contracts/ftso/lib/FtsoManagement.sol": {
      "FtsoManagement": [
        {
          "length": 20,
          "start": 9924
        },
        {
          "length": 20,
          "start": 10492
        },
        {
          "length": 20,
          "start": 10958
        },
        {
          "length": 20,
          "start": 13760
        },
        {
          "length": 20,
          "start": 13887
        }
      ]
    }
  },
  "deployedLinkReferences": {
    "contracts/ftso/lib/FtsoManagement.sol": {
      "FtsoManagement": [
        {
          "length": 20,
          "start": 8116
        },
        {
          "length": 20,
          "start": 8684
        },
        {
          "length": 20,
          "start": 9150
        },
        {
          "length": 20,
          "start": 11952
        },
        {
          "length": 20,
          "start": 12079
        }
      ]
    }
  }
}