{
  "_format": "hh-sol-artifact-1",
  "contractName": "EntityManager",
  "sourceName": "contracts/protocol/implementation/EntityManager.sol",
  "abi": [
    {
      "inputs": [
        {
          "internalType": "contract IGovernanceSettings",
          "name": "_governanceSettings",
          "type": "address"
        },
        {
          "internalType": "address",
          "name": "_initialGovernance",
          "type": "address"
        },
        {
          "internalType": "uint32",
          "name": "_maxNodeIdsPerEntity",
          "type": "uint32"
        }
      ],
      "stateMutability": "nonpayable",
      "type": "constructor"
    },
    {
      "inputs": [
        {
          "internalType": "uint8",
          "name": "bits",
          "type": "uint8"
        },
        {
          "internalType": "uint256",
          "name": "value",
          "type": "uint256"
        }
      ],
      "name": "SafeCastOverflowedUintDowncast",
      "type": "error"
    },
    {
      "anonymous": false,
      "inputs": [
        {
          "indexed": true,
          "internalType": "address",
          "name": "voter",
          "type": "address"
        },
        {
          "indexed": true,
          "internalType": "address",
          "name": "delegationAddress",
          "type": "address"
        }
      ],
      "name": "DelegationAddressProposed",
      "type": "event"
    },
    {
      "anonymous": false,
      "inputs": [
        {
          "indexed": true,
          "internalType": "address",
          "name": "voter",
          "type": "address"
        },
        {
          "indexed": true,
          "internalType": "address",
          "name": "delegationAddress",
          "type": "address"
        }
      ],
      "name": "DelegationAddressRegistrationConfirmed",
      "type": "event"
    },
    {
      "anonymous": false,
      "inputs": [
        {
          "indexed": false,
          "internalType": "bytes4",
          "name": "selector",
          "type": "bytes4"
        },
        {
          "indexed": false,
          "internalType": "uint256",
          "name": "allowedAfterTimestamp",
          "type": "uint256"
        },
        {
          "indexed": false,
          "internalType": "bytes",
          "name": "encodedCall",
          "type": "bytes"
        }
      ],
      "name": "GovernanceCallTimelocked",
      "type": "event"
    },
    {
      "anonymous": false,
      "inputs": [
        {
          "indexed": false,
          "internalType": "address",
          "name": "initialGovernance",
          "type": "address"
        }
      ],
      "name": "GovernanceInitialised",
      "type": "event"
    },
    {
      "anonymous": false,
      "inputs": [
        {
          "indexed": false,
          "internalType": "address",
          "name": "governanceSettings",
          "type": "address"
        }
      ],
      "name": "GovernedProductionModeEntered",
      "type": "event"
    },
    {
      "anonymous": false,
      "inputs": [
        {
          "indexed": false,
          "internalType": "uint256",
          "name": "maxNodeIdsPerEntity",
          "type": "uint256"
        }
      ],
      "name": "MaxNodeIdsPerEntitySet",
      "type": "event"
    },
    {
      "anonymous": false,
      "inputs": [
        {
          "indexed": true,
          "internalType": "address",
          "name": "voter",
          "type": "address"
        },
        {
          "indexed": true,
          "internalType": "bytes20",
          "name": "nodeId",
          "type": "bytes20"
        }
      ],
      "name": "NodeIdRegistered",
      "type": "event"
    },
    {
      "anonymous": false,
      "inputs": [
        {
          "indexed": true,
          "internalType": "address",
          "name": "voter",
          "type": "address"
        },
        {
          "indexed": true,
          "internalType": "bytes20",
          "name": "nodeId",
          "type": "bytes20"
        }
      ],
      "name": "NodeIdUnregistered",
      "type": "event"
    },
    {
      "anonymous": false,
      "inputs": [
        {
          "indexed": true,
          "internalType": "address",
          "name": "voter",
          "type": "address"
        },
        {
          "indexed": true,
          "internalType": "bytes32",
          "name": "part1",
          "type": "bytes32"
        },
        {
          "indexed": true,
          "internalType": "bytes32",
          "name": "part2",
          "type": "bytes32"
        }
      ],
      "name": "PublicKeyRegistered",
      "type": "event"
    },
    {
      "anonymous": false,
      "inputs": [
        {
          "indexed": true,
          "internalType": "address",
          "name": "voter",
          "type": "address"
        },
        {
          "indexed": true,
          "internalType": "bytes32",
          "name": "part1",
          "type": "bytes32"
        },
        {
          "indexed": true,
          "internalType": "bytes32",
          "name": "part2",
          "type": "bytes32"
        }
      ],
      "name": "PublicKeyUnregistered",
      "type": "event"
    },
    {
      "anonymous": false,
      "inputs": [
        {
          "indexed": true,
          "internalType": "address",
          "name": "voter",
          "type": "address"
        },
        {
          "indexed": true,
          "internalType": "address",
          "name": "signingPolicyAddress",
          "type": "address"
        }
      ],
      "name": "SigningPolicyAddressProposed",
      "type": "event"
    },
    {
      "anonymous": false,
      "inputs": [
        {
          "indexed": true,
          "internalType": "address",
          "name": "voter",
          "type": "address"
        },
        {
          "indexed": true,
          "internalType": "address",
          "name": "signingPolicyAddress",
          "type": "address"
        }
      ],
      "name": "SigningPolicyAddressRegistrationConfirmed",
      "type": "event"
    },
    {
      "anonymous": false,
      "inputs": [
        {
          "indexed": true,
          "internalType": "address",
          "name": "voter",
          "type": "address"
        },
        {
          "indexed": true,
          "internalType": "address",
          "name": "submitAddress",
          "type": "address"
        }
      ],
      "name": "SubmitAddressProposed",
      "type": "event"
    },
    {
      "anonymous": false,
      "inputs": [
        {
          "indexed": true,
          "internalType": "address",
          "name": "voter",
          "type": "address"
        },
        {
          "indexed": true,
          "internalType": "address",
          "name": "submitAddress",
          "type": "address"
        }
      ],
      "name": "SubmitAddressRegistrationConfirmed",
      "type": "event"
    },
    {
      "anonymous": false,
      "inputs": [
        {
          "indexed": true,
          "internalType": "address",
          "name": "voter",
          "type": "address"
        },
        {
          "indexed": true,
          "internalType": "address",
          "name": "submitSignaturesAddress",
          "type": "address"
        }
      ],
      "name": "SubmitSignaturesAddressProposed",
      "type": "event"
    },
    {
      "anonymous": false,
      "inputs": [
        {
          "indexed": true,
          "internalType": "address",
          "name": "voter",
          "type": "address"
        },
        {
          "indexed": true,
          "internalType": "address",
          "name": "submitSignaturesAddress",
          "type": "address"
        }
      ],
      "name": "SubmitSignaturesAddressRegistrationConfirmed",
      "type": "event"
    },
    {
      "anonymous": false,
      "inputs": [
        {
          "indexed": false,
          "internalType": "bytes4",
          "name": "selector",
          "type": "bytes4"
        },
        {
          "indexed": false,
          "internalType": "uint256",
          "name": "timestamp",
          "type": "uint256"
        }
      ],
      "name": "TimelockedGovernanceCallCanceled",
      "type": "event"
    },
    {
      "anonymous": false,
      "inputs": [
        {
          "indexed": false,
          "internalType": "bytes4",
          "name": "selector",
          "type": "bytes4"
        },
        {
          "indexed": false,
          "internalType": "uint256",
          "name": "timestamp",
          "type": "uint256"
        }
      ],
      "name": "TimelockedGovernanceCallExecuted",
      "type": "event"
    },
    {
      "inputs": [
        {
          "internalType": "bytes4",
          "name": "_selector",
          "type": "bytes4"
        }
      ],
      "name": "cancelGovernanceCall",
      "outputs": [],
      "stateMutability": "nonpayable",
      "type": "function"
    },
    {
      "inputs": [
        {
          "internalType": "address",
          "name": "_voter",
          "type": "address"
        }
      ],
      "name": "confirmDelegationAddressRegistration",
      "outputs": [],
      "stateMutability": "nonpayable",
      "type": "function"
    },
    {
      "inputs": [
        {
          "internalType": "address",
          "name": "_voter",
          "type": "address"
        }
      ],
      "name": "confirmSigningPolicyAddressRegistration",
      "outputs": [],
      "stateMutability": "nonpayable",
      "type": "function"
    },
    {
      "inputs": [
        {
          "internalType": "address",
          "name": "_voter",
          "type": "address"
        }
      ],
      "name": "confirmSubmitAddressRegistration",
      "outputs": [],
      "stateMutability": "nonpayable",
      "type": "function"
    },
    {
      "inputs": [
        {
          "internalType": "address",
          "name": "_voter",
          "type": "address"
        }
      ],
      "name": "confirmSubmitSignaturesAddressRegistration",
      "outputs": [],
      "stateMutability": "nonpayable",
      "type": "function"
    },
    {
      "inputs": [
        {
          "internalType": "bytes4",
          "name": "_selector",
          "type": "bytes4"
        }
      ],
      "name": "executeGovernanceCall",
      "outputs": [],
      "stateMutability": "nonpayable",
      "type": "function"
    },
    {
      "inputs": [
        {
          "internalType": "address",
          "name": "_voter",
          "type": "address"
        }
      ],
      "name": "getDelegationAddressOf",
      "outputs": [
        {
          "internalType": "address",
          "name": "_delegationAddress",
          "type": "address"
        }
      ],
      "stateMutability": "view",
      "type": "function"
    },
    {
      "inputs": [
        {
          "internalType": "address",
          "name": "_voter",
          "type": "address"
        },
        {
          "internalType": "uint256",
          "name": "_blockNumber",
          "type": "uint256"
        }
      ],
      "name": "getDelegationAddressOfAt",
      "outputs": [
        {
          "internalType": "address",
          "name": "_delegationAddress",
          "type": "address"
        }
      ],
      "stateMutability": "view",
      "type": "function"
    },
    {
      "inputs": [
        {
          "internalType": "address[]",
          "name": "_voters",
          "type": "address[]"
        },
        {
          "internalType": "uint256",
          "name": "_blockNumber",
          "type": "uint256"
        }
      ],
      "name": "getDelegationAddresses",
      "outputs": [
        {
          "internalType": "address[]",
          "name": "_delegationAddresses",
          "type": "address[]"
        }
      ],
      "stateMutability": "view",
      "type": "function"
    },
    {
      "inputs": [
        {
          "internalType": "address[]",
          "name": "_voters",
          "type": "address[]"
        },
        {
          "internalType": "uint256",
          "name": "_blockNumber",
          "type": "uint256"
        }
      ],
      "name": "getNodeIds",
      "outputs": [
        {
          "internalType": "bytes20[][]",
          "name": "_nodeIds",
          "type": "bytes20[][]"
        }
      ],
      "stateMutability": "view",
      "type": "function"
    },
    {
      "inputs": [
        {
          "internalType": "address",
          "name": "_voter",
          "type": "address"
        }
      ],
      "name": "getNodeIdsOf",
      "outputs": [
        {
          "internalType": "bytes20[]",
          "name": "",
          "type": "bytes20[]"
        }
      ],
      "stateMutability": "view",
      "type": "function"
    },
    {
      "inputs": [
        {
          "internalType": "address",
          "name": "_voter",
          "type": "address"
        },
        {
          "internalType": "uint256",
          "name": "_blockNumber",
          "type": "uint256"
        }
      ],
      "name": "getNodeIdsOfAt",
      "outputs": [
        {
          "internalType": "bytes20[]",
          "name": "",
          "type": "bytes20[]"
        }
      ],
      "stateMutability": "view",
      "type": "function"
    },
    {
      "inputs": [
        {
          "internalType": "address",
          "name": "_voter",
          "type": "address"
        }
      ],
      "name": "getPublicKeyOf",
      "outputs": [
        {
          "internalType": "bytes32",
          "name": "",
          "type": "bytes32"
        },
        {
          "internalType": "bytes32",
          "name": "",
          "type": "bytes32"
        }
      ],
      "stateMutability": "view",
      "type": "function"
    },
    {
      "inputs": [
        {
          "internalType": "address",
          "name": "_voter",
          "type": "address"
        },
        {
          "internalType": "uint256",
          "name": "_blockNumber",
          "type": "uint256"
        }
      ],
      "name": "getPublicKeyOfAt",
      "outputs": [
        {
          "internalType": "bytes32",
          "name": "",
          "type": "bytes32"
        },
        {
          "internalType": "bytes32",
          "name": "",
          "type": "bytes32"
        }
      ],
      "stateMutability": "view",
      "type": "function"
    },
    {
      "inputs": [
        {
          "internalType": "address[]",
          "name": "_voters",
          "type": "address[]"
        },
        {
          "internalType": "uint256",
          "name": "_blockNumber",
          "type": "uint256"
        }
      ],
      "name": "getPublicKeys",
      "outputs": [
        {
          "internalType": "bytes32[]",
          "name": "_parts1",
          "type": "bytes32[]"
        },
        {
          "internalType": "bytes32[]",
          "name": "_parts2",
          "type": "bytes32[]"
        }
      ],
      "stateMutability": "view",
      "type": "function"
    },
    {
      "inputs": [
        {
          "internalType": "address[]",
          "name": "_voters",
          "type": "address[]"
        },
        {
          "internalType": "uint256",
          "name": "_blockNumber",
          "type": "uint256"
        }
      ],
      "name": "getSigningPolicyAddresses",
      "outputs": [
        {
          "internalType": "address[]",
          "name": "_signingPolicyAddresses",
          "type": "address[]"
        }
      ],
      "stateMutability": "view",
      "type": "function"
    },
    {
      "inputs": [
        {
          "internalType": "address[]",
          "name": "_voters",
          "type": "address[]"
        },
        {
          "internalType": "uint256",
          "name": "_blockNumber",
          "type": "uint256"
        }
      ],
      "name": "getSubmitAddresses",
      "outputs": [
        {
          "internalType": "address[]",
          "name": "_submitAddresses",
          "type": "address[]"
        }
      ],
      "stateMutability": "view",
      "type": "function"
    },
    {
      "inputs": [
        {
          "internalType": "address[]",
          "name": "_voters",
          "type": "address[]"
        },
        {
          "internalType": "uint256",
          "name": "_blockNumber",
          "type": "uint256"
        }
      ],
      "name": "getSubmitSignaturesAddresses",
      "outputs": [
        {
          "internalType": "address[]",
          "name": "_submitSignaturesAddresses",
          "type": "address[]"
        }
      ],
      "stateMutability": "view",
      "type": "function"
    },
    {
      "inputs": [
        {
          "internalType": "address",
          "name": "_voter",
          "type": "address"
        }
      ],
      "name": "getVoterAddresses",
      "outputs": [
        {
          "components": [
            {
              "internalType": "address",
              "name": "submitAddress",
              "type": "address"
            },
            {
              "internalType": "address",
              "name": "submitSignaturesAddress",
              "type": "address"
            },
            {
              "internalType": "address",
              "name": "signingPolicyAddress",
              "type": "address"
            }
          ],
          "internalType": "struct IEntityManager.VoterAddresses",
          "name": "_addresses",
          "type": "tuple"
        }
      ],
      "stateMutability": "view",
      "type": "function"
    },
    {
      "inputs": [
        {
          "internalType": "address",
          "name": "_voter",
          "type": "address"
        },
        {
          "internalType": "uint256",
          "name": "_blockNumber",
          "type": "uint256"
        }
      ],
      "name": "getVoterAddressesAt",
      "outputs": [
        {
          "components": [
            {
              "internalType": "address",
              "name": "submitAddress",
              "type": "address"
            },
            {
              "internalType": "address",
              "name": "submitSignaturesAddress",
              "type": "address"
            },
            {
              "internalType": "address",
              "name": "signingPolicyAddress",
              "type": "address"
            }
          ],
          "internalType": "struct IEntityManager.VoterAddresses",
          "name": "_addresses",
          "type": "tuple"
        }
      ],
      "stateMutability": "view",
      "type": "function"
    },
    {
      "inputs": [
        {
          "internalType": "address",
          "name": "_delegationAddress",
          "type": "address"
        },
        {
          "internalType": "uint256",
          "name": "_blockNumber",
          "type": "uint256"
        }
      ],
      "name": "getVoterForDelegationAddress",
      "outputs": [
        {
          "internalType": "address",
          "name": "_voter",
          "type": "address"
        }
      ],
      "stateMutability": "view",
      "type": "function"
    },
    {
      "inputs": [
        {
          "internalType": "bytes20",
          "name": "_nodeId",
          "type": "bytes20"
        },
        {
          "internalType": "uint256",
          "name": "_blockNumber",
          "type": "uint256"
        }
      ],
      "name": "getVoterForNodeId",
      "outputs": [
        {
          "internalType": "address",
          "name": "_voter",
          "type": "address"
        }
      ],
      "stateMutability": "view",
      "type": "function"
    },
    {
      "inputs": [
        {
          "internalType": "bytes32",
          "name": "_part1",
          "type": "bytes32"
        },
        {
          "internalType": "bytes32",
          "name": "_part2",
          "type": "bytes32"
        },
        {
          "internalType": "uint256",
          "name": "_blockNumber",
          "type": "uint256"
        }
      ],
      "name": "getVoterForPublicKey",
      "outputs": [
        {
          "internalType": "address",
          "name": "_voter",
          "type": "address"
        }
      ],
      "stateMutability": "view",
      "type": "function"
    },
    {
      "inputs": [
        {
          "internalType": "address",
          "name": "_signingPolicyAddress",
          "type": "address"
        },
        {
          "internalType": "uint256",
          "name": "_blockNumber",
          "type": "uint256"
        }
      ],
      "name": "getVoterForSigningPolicyAddress",
      "outputs": [
        {
          "internalType": "address",
          "name": "_voter",
          "type": "address"
        }
      ],
      "stateMutability": "view",
      "type": "function"
    },
    {
      "inputs": [
        {
          "internalType": "address",
          "name": "_submitAddress",
          "type": "address"
        },
        {
          "internalType": "uint256",
          "name": "_blockNumber",
          "type": "uint256"
        }
      ],
      "name": "getVoterForSubmitAddress",
      "outputs": [
        {
          "internalType": "address",
          "name": "_voter",
          "type": "address"
        }
      ],
      "stateMutability": "view",
      "type": "function"
    },
    {
      "inputs": [
        {
          "internalType": "address",
          "name": "_submitSignaturesAddress",
          "type": "address"
        },
        {
          "internalType": "uint256",
          "name": "_blockNumber",
          "type": "uint256"
        }
      ],
      "name": "getVoterForSubmitSignaturesAddress",
      "outputs": [
        {
          "internalType": "address",
          "name": "_voter",
          "type": "address"
        }
      ],
      "stateMutability": "view",
      "type": "function"
    },
    {
      "inputs": [],
      "name": "governance",
      "outputs": [
        {
          "internalType": "address",
          "name": "",
          "type": "address"
        }
      ],
      "stateMutability": "view",
      "type": "function"
    },
    {
      "inputs": [],
      "name": "governanceSettings",
      "outputs": [
        {
          "internalType": "contract IGovernanceSettings",
          "name": "",
          "type": "address"
        }
      ],
      "stateMutability": "view",
      "type": "function"
    },
    {
      "inputs": [
        {
          "internalType": "contract IGovernanceSettings",
          "name": "_governanceSettings",
          "type": "address"
        },
        {
          "internalType": "address",
          "name": "_initialGovernance",
          "type": "address"
        }
      ],
      "name": "initialise",
      "outputs": [],
      "stateMutability": "nonpayable",
      "type": "function"
    },
    {
      "inputs": [
        {
          "internalType": "address",
          "name": "_address",
          "type": "address"
        }
      ],
      "name": "isExecutor",
      "outputs": [
        {
          "internalType": "bool",
          "name": "",
          "type": "bool"
        }
      ],
      "stateMutability": "view",
      "type": "function"
    },
    {
      "inputs": [],
      "name": "maxNodeIdsPerEntity",
      "outputs": [
        {
          "internalType": "uint32",
          "name": "",
          "type": "uint32"
        }
      ],
      "stateMutability": "view",
      "type": "function"
    },
    {
      "inputs": [],
      "name": "nodePossessionVerifier",
      "outputs": [
        {
          "internalType": "contract IINodePossessionVerifier",
          "name": "",
          "type": "address"
        }
      ],
      "stateMutability": "view",
      "type": "function"
    },
    {
      "inputs": [],
      "name": "productionMode",
      "outputs": [
        {
          "internalType": "bool",
          "name": "",
          "type": "bool"
        }
      ],
      "stateMutability": "view",
      "type": "function"
    },
    {
      "inputs": [
        {
          "internalType": "address",
          "name": "_delegationAddress",
          "type": "address"
        }
      ],
      "name": "proposeDelegationAddress",
      "outputs": [],
      "stateMutability": "nonpayable",
      "type": "function"
    },
    {
      "inputs": [
        {
          "internalType": "address",
          "name": "_signingPolicyAddress",
          "type": "address"
        }
      ],
      "name": "proposeSigningPolicyAddress",
      "outputs": [],
      "stateMutability": "nonpayable",
      "type": "function"
    },
    {
      "inputs": [
        {
          "internalType": "address",
          "name": "_submitAddress",
          "type": "address"
        }
      ],
      "name": "proposeSubmitAddress",
      "outputs": [],
      "stateMutability": "nonpayable",
      "type": "function"
    },
    {
      "inputs": [
        {
          "internalType": "address",
          "name": "_submitSignaturesAddress",
          "type": "address"
        }
      ],
      "name": "proposeSubmitSignaturesAddress",
      "outputs": [],
      "stateMutability": "nonpayable",
      "type": "function"
    },
    {
      "inputs": [],
      "name": "publicKeyVerifier",
      "outputs": [
        {
          "internalType": "contract IIPublicKeyVerifier",
          "name": "",
          "type": "address"
        }
      ],
      "stateMutability": "view",
      "type": "function"
    },
    {
      "inputs": [
        {
          "internalType": "bytes20",
          "name": "_nodeId",
          "type": "bytes20"
        },
        {
          "internalType": "bytes",
          "name": "_certificateRaw",
          "type": "bytes"
        },
        {
          "internalType": "bytes",
          "name": "_signature",
          "type": "bytes"
        }
      ],
      "name": "registerNodeId",
      "outputs": [],
      "stateMutability": "nonpayable",
      "type": "function"
    },
    {
      "inputs": [
        {
          "internalType": "bytes32",
          "name": "_part1",
          "type": "bytes32"
        },
        {
          "internalType": "bytes32",
          "name": "_part2",
          "type": "bytes32"
        },
        {
          "internalType": "bytes",
          "name": "_verificationData",
          "type": "bytes"
        }
      ],
      "name": "registerPublicKey",
      "outputs": [],
      "stateMutability": "nonpayable",
      "type": "function"
    },
    {
      "inputs": [
        {
          "components": [
            {
              "internalType": "address",
              "name": "voter",
              "type": "address"
            },
            {
              "internalType": "address",
              "name": "delegationAddress",
              "type": "address"
            },
            {
              "internalType": "bytes20[]",
              "name": "nodeIds",
              "type": "bytes20[]"
            }
          ],
          "internalType": "struct EntityManager.InitialVoterData[]",
          "name": "_data",
          "type": "tuple[]"
        }
      ],
      "name": "setInitialVoterData",
      "outputs": [],
      "stateMutability": "nonpayable",
      "type": "function"
    },
    {
      "inputs": [
        {
          "internalType": "uint32",
          "name": "_newMaxNodeIdsPerEntity",
          "type": "uint32"
        }
      ],
      "name": "setMaxNodeIdsPerEntity",
      "outputs": [],
      "stateMutability": "nonpayable",
      "type": "function"
    },
    {
      "inputs": [
        {
          "internalType": "contract IINodePossessionVerifier",
          "name": "_nodePossessionVerifier",
          "type": "address"
        }
      ],
      "name": "setNodePossessionVerifier",
      "outputs": [],
      "stateMutability": "nonpayable",
      "type": "function"
    },
    {
      "inputs": [
        {
          "internalType": "contract IIPublicKeyVerifier",
          "name": "_publicKeyVerifier",
          "type": "address"
        }
      ],
      "name": "setPublicKeyVerifier",
      "outputs": [],
      "stateMutability": "nonpayable",
      "type": "function"
    },
    {
      "inputs": [],
      "name": "switchToProductionMode",
      "outputs": [],
      "stateMutability": "nonpayable",
      "type": "function"
    },
    {
      "inputs": [
        {
          "internalType": "bytes4",
          "name": "selector",
          "type": "bytes4"
        }
      ],
      "name": "timelockedCalls",
      "outputs": [
        {
          "internalType": "uint256",
          "name": "allowedAfterTimestamp",
          "type": "uint256"
        },
        {
          "internalType": "bytes",
          "name": "encodedCall",
          "type": "bytes"
        }
      ],
      "stateMutability": "view",
      "type": "function"
    },
    {
      "inputs": [
        {
          "internalType": "bytes20",
          "name": "_nodeId",
          "type": "bytes20"
        }
      ],
      "name": "unregisterNodeId",
      "outputs": [],
      "stateMutability": "nonpayable",
      "type": "function"
    },
    {
      "inputs": [],
      "name": "unregisterPublicKey",
      "outputs": [],
      "stateMutability": "nonpayable",
      "type": "function"
    }
  ],
  "bytecode": "0x60806040523480156200001157600080fd5b50604051620050f5380380620050f5833981016040819052620000349162000236565b8282620000428282620000a4565b50506004805463ffffffff60a01b1916600160a01b63ffffffff8416908102919091179091556040519081527fce75fee15f61236d01d8324caa31f041cd043f94ae234d463ae5b88bd2ad7e579060200160405180910390a150505062000292565b600054600160a01b900460ff1615620001045760405162461bcd60e51b815260206004820152601460248201527f696e697469616c6973656420213d2066616c736500000000000000000000000060448201526064015b60405180910390fd5b6001600160a01b0382166200015c5760405162461bcd60e51b815260206004820152601860248201527f676f7665726e616e63652073657474696e6773207a65726f00000000000000006044820152606401620000fb565b6001600160a01b038116620001a75760405162461bcd60e51b815260206004820152601060248201526f5f676f7665726e616e6365207a65726f60801b6044820152606401620000fb565b600080546001600160a01b038481166001600160a81b031990921691909117600160a01b17909155600180549183166001600160a01b0319909216821790556040519081527f9789733827840833afc031fb2ef9ab6894271f77bad2085687cf4ae5c7bee4db9060200160405180910390a15050565b6001600160a01b03811681146200023357600080fd5b50565b6000806000606084860312156200024c57600080fd5b835162000259816200021d565b60208501519093506200026c816200021d565b604085015190925063ffffffff811681146200028757600080fd5b809150509250925092565b614e5380620002a26000396000f3fe608060405234801561001057600080fd5b50600436106102a05760003560e01c806375e6860511610167578063db8d5125116100ce578063e536000611610087578063e536000614610684578063e5771dbc14610697578063e6450b97146106aa578063ef88bf13146106bd578063f5a98383146106d0578063fcde59dd146106d857600080fd5b8063db8d51251461060c578063debfda301461061f578063df7c7c6814610642578063e178ec4c14610655578063e17f212e14610668578063e1e3cdac1461067c57600080fd5b8063b2519ac811610120578063b2519ac814610541578063bc8c4a5f14610586578063bda1a84e14610599578063bda9a28b146105ac578063c1aeca13146105cd578063d708850f146105e057600080fd5b806375e68605146104cf57806387607e41146104e257806389292b0f146104f5578063948cac8b14610508578063a5d70de01461051b578063b1863cff1461052e57600080fd5b80635712b9f31161020b57806362354e03116101c457806362354e031461044f5780636558b56b1461046257806367fc40291461047557806369b5fed91461048857806369fe610d1461049b57806374e6310e146104ae57600080fd5b80635712b9f3146103db5780635aa6e675146103ee5780635b4be5f2146103f65780635f1fb56a146104165780635ff270791461042957806361bc320f1461043c57600080fd5b806318c03f941161025d57806318c03f941461035c5780632bedbf7a1461036f57806336edd357146103825780633d7f424c146103955780634d628d83146103a85780635652949c146103bb57600080fd5b8063019476a7146102a557806305b232c8146102ba57806307c5bcf9146102e357806309c80fa6146102f65780630a812fff146103215780631110456114610334575b600080fd5b6102b86102b33660046143eb565b6106eb565b005b6102cd6102c83660046144a1565b6108bf565b6040516102da919061456b565b60405180910390f35b6102b86102f13660046145ff565b6109a8565b61030961030436600461461c565b610a03565b6040516001600160a01b0390911681526020016102da565b61030961032f366004614648565b610a5c565b610347610342366004614672565b610a86565b604080519283526020830191909152016102da565b6102b861036a366004614690565b610ab9565b61030961037d366004614672565b610bd2565b6102b86103903660046145ff565b610c0d565b600354610309906001600160a01b031681565b6102b86103b63660046145ff565b610cab565b6103ce6103c93660046144a1565b610cf8565b6040516102da91906146ab565b6102b86103e93660046145ff565b610e63565b610309610f01565b610409610404366004614672565b610f9d565b6040516102da91906146f8565b6102b86104243660046145ff565b610fc5565b6102b861043736600461473a565b611163565b61030961044a366004614672565b6113e9565b600054610309906001600160a01b031681565b6103ce6104703660046144a1565b61140b565b6102b861048336600461473a565b611576565b6102b86104963660046145ff565b611657565b6103ce6104a93660046144a1565b6116f5565b6104c16104bc36600461473a565b611860565b6040516102da9291906147b4565b6103476104dd3660046145ff565b611905565b6102b86104f03660046145ff565b611934565b610309610503366004614672565b6119d2565b600454610309906001600160a01b031681565b6103096105293660046145ff565b6119f4565b6102b861053c3660046147d5565b611a2d565b61055461054f366004614672565b611cff565b6040805182516001600160a01b03908116825260208085015182169083015292820151909216908201526060016102da565b610309610594366004614672565b611df1565b6102b86105a73660046145ff565b611e13565b6105bf6105ba3660046144a1565b611fbc565b6040516102da929190614862565b6102b86105db366004614887565b61210c565b6004546105f790600160a01b900463ffffffff1681565b60405163ffffffff90911681526020016102da565b6102b861061a3660046145ff565b6121eb565b61063261062d3660046145ff565b612391565b60405190151581526020016102da565b6103ce6106503660046144a1565b612414565b610309610663366004614672565b61257f565b60005461063290600160a81b900460ff1681565b6102b86125a1565b6102b86106923660046145ff565b61266c565b6105546106a53660046145ff565b612808565b6104096106b83660046145ff565b6128f6565b6102b86106cb3660046148ad565b61291e565b6102b8612a84565b6102b86106e63660046148e6565b612b4a565b6001600160601b03198516600090815260066020526040812061070d90613034565b6001600160a01b0316146107685760405162461bcd60e51b815260206004820152601a60248201527f6e6f646520696420616c7265616479207265676973746572656400000000000060448201526064015b60405180910390fd5b6004546001600160a01b03166107c05760405162461bcd60e51b815260206004820181905260248201527f6e6f646520696420726567697374726174696f6e206e6f7420656e61626c6564604482015260640161075f565b60048054604051631c43a85560e11b81526001600160a01b039091169163388750aa916107f99133918a918a918a918a918a9101614983565b60006040518083038186803b15801561081157600080fd5b505afa158015610825573d6000803e3d6000fd5b505060045433600090815260056020526040902061085e93506008019150879060019063ffffffff600160a01b90910481169061308b16565b6001600160601b03198516600090815260066020526040902061088190336132f7565b6040516001600160601b031986169033907fcc83e5a4ea6e4a90196f405439628da7c929529e42fbb6af2e388f9c6a2fd6f090600090a35050505050565b8151606090806001600160401b038111156108dc576108dc61446b565b60405190808252806020026020018201604052801561090f57816020015b60608152602001906001900390816108fa5790505b50915060005b818110156109a0576109708460056000888581518110610937576109376149d8565b60200260200101516001600160a01b03166001600160a01b031681526020019081526020016000206008016134cb90919063ffffffff16565b838281518110610982576109826149d8565b6020026020010181905250808061099890614a04565b915050610915565b505092915050565b600054600160b01b900460ff16806109ca5750600054600160a81b900460ff16155b156109f5576109d76135d3565b600380546001600160a01b0319166001600160a01b03831617905550565b610a0060003661360d565b50565b6000808484604051602001610a22929190918252602082015260400190565b60408051601f198184030181529181528151602092830120600081815260079093529120909150610a539084613759565b95945050505050565b6001600160601b031982166000908152600660205260408120610a7f9083613759565b9392505050565b6001600160a01b03821660009081526005602052604081208190610aad90600a01846138de565b915091505b9250929050565b6001600160601b0319811660009081526006602052604090203390610add90613034565b6001600160a01b031614610b425760405162461bcd60e51b815260206004820152602660248201527f6e6f6465206964206e6f7420726567697374657265642077697468206d73672e60448201526539b2b73232b960d11b606482015260840161075f565b600454336000908152600560205260408120610b7692600890910191849163ffffffff600160a01b90910481169061308b16565b6001600160601b031981166000908152600660205260408120610b98916132f7565b6040516001600160601b031982169033907f44d1a340b419d3f42da5eb85de7715aecbaf6376855ef4f64a1e033e094231d290600090a350565b6001600160a01b0382166000908152600560205260408120610bf49083613759565b90506001600160a01b038116610c075750815b92915050565b6001600160a01b0381166000908152600c60205260408120610c2e90613034565b6001600160a01b031614610c545760405162461bcd60e51b815260040161075f90614a1d565b336000818152600d602052604080822080546001600160a01b0319166001600160a01b03861690811790915590519092917f1362ec372c84a894b58be817f44d2d1b2f9cb444493e30bf344d31c5f6894cc191a350565b600054600160b01b900460ff1680610ccd5750600054600160a81b900460ff16155b156109f557610cda6135d3565b600480546001600160a01b0319166001600160a01b03831617905550565b8151606090806001600160401b03811115610d1557610d1561446b565b604051908082528060200260200182016040528015610d3e578160200160208202803683370190505b50915060005b818110156109a057610d9f8460056000888581518110610d6657610d666149d8565b60200260200101516001600160a01b03166001600160a01b0316815260200190815260200160002060020161375990919063ffffffff16565b838281518110610db157610db16149d8565b60200260200101906001600160a01b031690816001600160a01b03168152505060006001600160a01b0316838281518110610dee57610dee6149d8565b60200260200101516001600160a01b031603610e5157848181518110610e1657610e166149d8565b6020026020010151838281518110610e3057610e306149d8565b60200260200101906001600160a01b031690816001600160a01b0316815250505b80610e5b81614a04565b915050610d44565b6001600160a01b0381166000908152600860205260408120610e8490613034565b6001600160a01b031614610eaa5760405162461bcd60e51b815260040161075f90614a69565b3360008181526009602052604080822080546001600160a01b0319166001600160a01b03861690811790915590519092917fed9e746b8b92f73a860c368d322985a6a0ab72ab1a3068eb69f708b495126e0f91a350565b60008054600160a81b900460ff16610f2357506001546001600160a01b031690565b60008054906101000a90046001600160a01b03166001600160a01b031663732524946040518163ffffffff1660e01b8152600401602060405180830381865afa158015610f74573d6000803e3d6000fd5b505050506040513d601f19601f82011682018060405250810190610f989190614aae565b905090565b6001600160a01b0382166000908152600560205260409020606090610a7f90600801836134cb565b336000908152600a60205260408120610fdd90613034565b6001600160a01b0316146110035760405162461bcd60e51b815260040161075f90614acb565b6001600160a01b038181166000908152600b602052604090205416331461107d5760405162461bcd60e51b815260206004820152602860248201527f7375626d69742061646472657373206e6f7420696e20726567697374726174696044820152676f6e20717565756560c01b606482015260840161075f565b6001600160a01b03811660009081526005602052604081206110a190600201613034565b90506001600160a01b038116156110d3576001600160a01b0381166000908152600a602052604081206110d3916132f7565b6001600160a01b03821660009081526005602052604090206110f890600201336132f7565b336000908152600a6020526040902061111190836132f7565b6001600160a01b0382166000818152600b602052604080822080546001600160a01b0319169055513392917f82e3417c0fa3f7348ea9fcadb3c243c43ac30b003c0e1749990612a8d10a967491a35050565b61116c33612391565b6111a85760405162461bcd60e51b815260206004820152600d60248201526c37b7363c9032bc32b1baba37b960991b604482015260640161075f565b6001600160e01b03198116600090815260026020526040812080549091036112125760405162461bcd60e51b815260206004820152601a60248201527f74696d656c6f636b3a20696e76616c69642073656c6563746f72000000000000604482015260640161075f565b80544210156112635760405162461bcd60e51b815260206004820152601960248201527f74696d656c6f636b3a206e6f7420616c6c6f7765642079657400000000000000604482015260640161075f565b600081600101805461127490614b0c565b80601f01602080910402602001604051908101604052809291908181526020018280546112a090614b0c565b80156112ed5780601f106112c2576101008083540402835291602001916112ed565b820191906000526020600020905b8154815290600101906020018083116112d057829003601f168201915b505050506001600160e01b031985166000908152600260205260408120818155929350905061131f6001830182614348565b50506000805460ff60b01b1916600160b01b1781556040513090611344908490614b46565b6000604051808303816000865af19150503d8060008114611381576040519150601f19603f3d011682016040523d82523d6000602084013e611386565b606091505b50506000805460ff60b01b19169055604080516001600160e01b0319871681524260208201529192507fa7326b57fc9cfe267aaea5e7f0b01757154d265620a0585819416ee9ddd2c438910160405180910390a16113e381613a81565b50505050565b6001600160a01b0382166000908152600c60205260408120610bf49083613759565b8151606090806001600160401b038111156114285761142861446b565b604051908082528060200260200182016040528015611451578160200160208202803683370190505b50915060005b818110156109a0576114b28460056000888581518110611479576114796149d8565b60200260200101516001600160a01b03166001600160a01b0316815260200190815260200160002060040161375990919063ffffffff16565b8382815181106114c4576114c46149d8565b60200260200101906001600160a01b031690816001600160a01b03168152505060006001600160a01b0316838281518110611501576115016149d8565b60200260200101516001600160a01b03160361156457848181518110611529576115296149d8565b6020026020010151838281518110611543576115436149d8565b60200260200101906001600160a01b031690816001600160a01b0316815250505b8061156e81614a04565b915050611457565b61157e613a9e565b6001600160e01b0319811660009081526002602052604081205490036115e65760405162461bcd60e51b815260206004820152601a60248201527f74696d656c6f636b3a20696e76616c69642073656c6563746f72000000000000604482015260640161075f565b604080516001600160e01b0319831681524260208201527f7735b2391c38a81419c513e30ca578db7158eadd7101511b23e221c654d19cf8910160405180910390a16001600160e01b031981166000908152600260205260408120818155906116526001830182614348565b505050565b6001600160a01b0381166000908152600e6020526040812061167890613034565b6001600160a01b03161461169e5760405162461bcd60e51b815260040161075f90614b62565b336000818152600f602052604080822080546001600160a01b0319166001600160a01b03861690811790915590519092917fcc50114c186aff0cb8d59f83a59f057e0514f1ea68b9b1c0b993f8a7cde815eb91a350565b8151606090806001600160401b038111156117125761171261446b565b60405190808252806020026020018201604052801561173b578160200160208202803683370190505b50915060005b818110156109a05761179c8460056000888581518110611763576117636149d8565b60200260200101516001600160a01b03166001600160a01b0316815260200190815260200160002060060161375990919063ffffffff16565b8382815181106117ae576117ae6149d8565b60200260200101906001600160a01b031690816001600160a01b03168152505060006001600160a01b03168382815181106117eb576117eb6149d8565b60200260200101516001600160a01b03160361184e57848181518110611813576118136149d8565b602002602001015183828151811061182d5761182d6149d8565b60200260200101906001600160a01b031690816001600160a01b0316815250505b8061185881614a04565b915050611741565b6002602052600090815260409020805460018201805491929161188290614b0c565b80601f01602080910402602001604051908101604052809291908181526020018280546118ae90614b0c565b80156118fb5780601f106118d0576101008083540402835291602001916118fb565b820191906000526020600020905b8154815290600101906020018083116118de57829003601f168201915b5050505050905082565b6001600160a01b0381166000908152600560205260408120819061192b90600a01613af8565b91509150915091565b6001600160a01b0381166000908152600a6020526040812061195590613034565b6001600160a01b03161461197b5760405162461bcd60e51b815260040161075f90614acb565b336000818152600b602052604080822080546001600160a01b0319166001600160a01b03861690811790915590519092917f6a2d1988f57bc4ea8524ed144eabaac3bd34483c8e45307a895418c99474e9aa91a350565b6001600160a01b0382166000908152600a60205260408120610bf49083613759565b6001600160a01b0381166000908152600560205260408120611a1590613034565b90506001600160a01b038116611a285750805b919050565b83151580611a3a57508215155b611a7b5760405162461bcd60e51b81526020600482015260126024820152711c1d589b1a58c81ad95e481a5b9d985b1a5960721b604482015260640161075f565b6003546001600160a01b0316611adf5760405162461bcd60e51b815260206004820152602360248201527f7075626c6963206b657920726567697374726174696f6e206e6f7420656e61626044820152621b195960ea1b606482015260840161075f565b6003546040516370473f2f60e01b81526001600160a01b03909116906370473f2f90611b179033908890889088908890600401614bab565b60006040518083038186803b158015611b2f57600080fd5b505afa158015611b43573d6000803e3d6000fd5b5050505060008484604051602001611b65929190918252602082015260400190565b60408051601f19818403018152918152815160209283012060008181526007909352908220909250611b9690613034565b6001600160a01b031614611bec5760405162461bcd60e51b815260206004820152601d60248201527f7075626c6963206b657920616c72656164792072656769737465726564000000604482015260640161075f565b3360009081526005602052604081208190611c0990600a01613af8565b909250905081151580611c1b57508015155b15611c92576040805160208082018590528183018490528251808303840181526060909201835281519181019190912060008181526007909252918120611c61916132f7565b6040518290849033907fc82d1b006dff077f4b0f4d725ec132b77e92dd46cd9712e660de1b13181ed23890600090a4505b336000908152600560205260409020611caf90600a018888613b70565b6000838152600760205260409020611cc790336132f7565b6040518690889033907f857427b1f3d6fc86cfeeb2c86d75772cf01de4519a0ff8d413418b55e768074590600090a450505050505050565b60408051606081018252600080825260208083018290528284018290526001600160a01b03861682526005905291909120611d3d9060020183613759565b6001600160a01b0316808252611d5a576001600160a01b03831681525b6001600160a01b0383166000908152600560205260409020611d7f9060040183613759565b6001600160a01b031660208201819052611da3576001600160a01b03831660208201525b6001600160a01b0383166000908152600560205260409020611dc89060060183613759565b6001600160a01b031660408201819052610c07576001600160a01b038316604082015292915050565b6001600160a01b0382166000908152600860205260408120610bf49083613759565b336000908152600c60205260408120611e2b90613034565b6001600160a01b031614611e515760405162461bcd60e51b815260040161075f90614a1d565b6001600160a01b038181166000908152600d6020526040902054163314611ed65760405162461bcd60e51b815260206004820152603360248201527f7375626d6974207369676e6174757265732061646472657373206e6f7420696e60448201527220726567697374726174696f6e20717565756560681b606482015260840161075f565b6001600160a01b0381166000908152600560205260408120611efa90600401613034565b90506001600160a01b03811615611f2c576001600160a01b0381166000908152600c60205260408120611f2c916132f7565b6001600160a01b0382166000908152600560205260409020611f5190600401336132f7565b336000908152600c60205260409020611f6a90836132f7565b6001600160a01b0382166000818152600d602052604080822080546001600160a01b0319169055513392917f19542a5b3b9df6306e5277bdfd5865021928d36f752509fda85bc749378f4a1291a35050565b81516060908190806001600160401b03811115611fdb57611fdb61446b565b604051908082528060200260200182016040528015612004578160200160208202803683370190505b509250806001600160401b0381111561201f5761201f61446b565b604051908082528060200260200182016040528015612048578160200160208202803683370190505b50915060005b81811015612103576000806120ac87600560008b8781518110612073576120736149d8565b60200260200101516001600160a01b03166001600160a01b03168152602001908152602001600020600a016138de90919063ffffffff16565b91509150818684815181106120c3576120c36149d8565b602002602001018181525050808584815181106120e2576120e26149d8565b602002602001018181525050505080806120fb90614a04565b91505061204e565b50509250929050565b600054600160b01b900460ff168061212e5750600054600160a81b900460ff16155b156109f55761213b6135d3565b60045463ffffffff600160a01b9091048116908216116121915760405162461bcd60e51b815260206004820152601160248201527063616e20696e637265617365206f6e6c7960781b604482015260640161075f565b6004805463ffffffff60a01b1916600160a01b63ffffffff8416908102919091179091556040519081527fce75fee15f61236d01d8324caa31f041cd043f94ae234d463ae5b88bd2ad7e579060200160405180910390a150565b336000908152600e6020526040812061220390613034565b6001600160a01b0316146122295760405162461bcd60e51b815260040161075f90614b62565b6001600160a01b038181166000908152600f60205260409020541633146122ab5760405162461bcd60e51b815260206004820152603060248201527f7369676e696e6720706f6c6963792061646472657373206e6f7420696e20726560448201526f67697374726174696f6e20717565756560801b606482015260840161075f565b6001600160a01b03811660009081526005602052604081206122cf90600601613034565b90506001600160a01b03811615612301576001600160a01b0381166000908152600e60205260408120612301916132f7565b6001600160a01b038216600090815260056020526040902061232690600601336132f7565b336000908152600e6020526040902061233f90836132f7565b6001600160a01b0382166000818152600f602052604080822080546001600160a01b0319169055513392917f9048f894e2dc8c92dc12516c12b68f8240a4fa83c046943471f4e2ea8c6f2ba891a35050565b60008054600160a01b900460ff168015610c075750600054604051630debfda360e41b81526001600160a01b0384811660048301529091169063debfda3090602401602060405180830381865afa1580156123f0573d6000803e3d6000fd5b505050506040513d601f19601f82011682018060405250810190610c079190614be4565b8151606090806001600160401b038111156124315761243161446b565b60405190808252806020026020018201604052801561245a578160200160208202803683370190505b50915060005b818110156109a0576124bb8460056000888581518110612482576124826149d8565b60200260200101516001600160a01b03166001600160a01b0316815260200190815260200160002060000161375990919063ffffffff16565b8382815181106124cd576124cd6149d8565b60200260200101906001600160a01b031690816001600160a01b03168152505060006001600160a01b031683828151811061250a5761250a6149d8565b60200260200101516001600160a01b03160361256d57848181518110612532576125326149d8565b602002602001015183828151811061254c5761254c6149d8565b60200260200101906001600160a01b031690816001600160a01b0316815250505b8061257781614a04565b915050612460565b6001600160a01b0382166000908152600e60205260408120610bf49083613759565b33600090815260056020526040812081906125be90600a01613af8565b9092509050811580156125cf575080155b156125d8575050565b60408051602080820185905281830184905282518083038401815260609092018352815191810191909120336000908152600590925291812061262191600a9091019080613b70565b6000818152600760205260408120612638916132f7565b6040518290849033907fc82d1b006dff077f4b0f4d725ec132b77e92dd46cd9712e660de1b13181ed23890600090a4505050565b33600090815260086020526040812061268490613034565b6001600160a01b0316146126aa5760405162461bcd60e51b815260040161075f90614a69565b6001600160a01b038181166000908152600960205260409020541633146127285760405162461bcd60e51b815260206004820152602c60248201527f64656c65676174696f6e2061646472657373206e6f7420696e2072656769737460448201526b726174696f6e20717565756560a01b606482015260840161075f565b6001600160a01b038116600090815260056020526040812061274990613034565b90506001600160a01b0381161561277b576001600160a01b038116600090815260086020526040812061277b916132f7565b6001600160a01b038216600090815260056020526040902061279d90336132f7565b3360009081526008602052604090206127b690836132f7565b6001600160a01b03821660008181526009602052604080822080546001600160a01b0319169055513392917f614066d64432bd11a481cb202e15398e6b92baffd86c2573f54f9e9cd6c29ee491a35050565b60408051606081018252600080825260208083018290528284018290526001600160a01b0385168252600590529190912061284590600201613034565b6001600160a01b0316808252612862576001600160a01b03821681525b6001600160a01b038216600090815260056020526040902061288690600401613034565b6001600160a01b0316602082018190526128aa576001600160a01b03821660208201525b6001600160a01b03821660009081526005602052604090206128ce90600601613034565b6001600160a01b031660408201819052611a28576001600160a01b0382166040820152919050565b6001600160a01b0381166000908152600560205260409020606090610c0790600801436134cb565b600054600160a01b900460ff161561296f5760405162461bcd60e51b8152602060048201526014602482015273696e697469616c6973656420213d2066616c736560601b604482015260640161075f565b6001600160a01b0382166129c55760405162461bcd60e51b815260206004820152601860248201527f676f7665726e616e63652073657474696e6773207a65726f0000000000000000604482015260640161075f565b6001600160a01b038116612a0e5760405162461bcd60e51b815260206004820152601060248201526f5f676f7665726e616e6365207a65726f60801b604482015260640161075f565b600080546001600160a01b038481166001600160a81b031990921691909117600160a01b17909155600180549183166001600160a01b0319909216821790556040519081527f9789733827840833afc031fb2ef9ab6894271f77bad2085687cf4ae5c7bee4db9060200160405180910390a15050565b612a8c613a9e565b600054600160a81b900460ff1615612ae65760405162461bcd60e51b815260206004820152601a60248201527f616c726561647920696e2070726f64756374696f6e206d6f6465000000000000604482015260640161075f565b600180546001600160a01b031916905560008054600160a81b60ff60a81b198216179091556040516001600160a01b0390911681527f83af113638b5422f9e977cebc0aaf0eaf2188eb9a8baae7f9d46c42b33a1560c9060200160405180910390a1565b600054600160b01b900460ff1680612b6c5750600054600160a81b900460ff16155b1561302557612b796135d3565b600054600160a81b900460ff1615612bd35760405162461bcd60e51b815260206004820152601a60248201527f616c726561647920696e2070726f64756374696f6e206d6f6465000000000000604482015260640161075f565b600454600160a01b900463ffffffff1660005b828110156113e35736848483818110612c0157612c016149d8565b9050602002810190612c139190614c06565b90506000612c2460208301836145ff565b6001600160a01b031603612c6f5760405162461bcd60e51b8152602060048201526012602482015271766f7465722061646472657373207a65726f60701b604482015260640161075f565b6000600581612c8160208501856145ff565b6001600160a01b03166001600160a01b03168152602001908152602001600020905060006001600160a01b0316826020016020810190612cc191906145ff565b6001600160a01b031614612ea7576000612cda82613034565b6001600160a01b031614612d305760405162461bcd60e51b815260206004820152601e60248201527f64656c65676174696f6e206164647265737320616c7265616479207365740000604482015260640161075f565b6000612d6d600882612d4860408701602088016145ff565b6001600160a01b03166001600160a01b03168152602001908152602001600020613034565b6001600160a01b031614612d935760405162461bcd60e51b815260040161075f90614a69565b612dad612da660408401602085016145ff565b82906132f7565b612df0612dbd60208401846145ff565b60086000612dd160408701602088016145ff565b6001600160a01b031681526020810191909152604001600020906132f7565b612e0060408301602084016145ff565b6001600160a01b0316612e1660208401846145ff565b6001600160a01b03167fed9e746b8b92f73a860c368d322985a6a0ab72ab1a3068eb69f708b495126e0f60405160405180910390a3612e5b60408301602084016145ff565b6001600160a01b0316612e7160208401846145ff565b6001600160a01b03167f614066d64432bd11a481cb202e15398e6b92baffd86c2573f54f9e9cd6c29ee460405160405180910390a35b60005b612eb76040840184614c1c565b905081101561300f576000612ecf6040850185614c1c565b83818110612edf57612edf6149d8565b9050602002016020810190612ef49190614690565b6001600160601b03198116600090815260066020526040812091925090612f1a90613034565b6001600160a01b031614612f705760405162461bcd60e51b815260206004820152601a60248201527f6e6f646520696420616c72656164792072656769737465726564000000000000604482015260640161075f565b612f80600884018260018961308b565b612faf612f9060208601866145ff565b6001600160601b031983166000908152600660205260409020906132f7565b6001600160601b03198116612fc760208601866145ff565b6001600160a01b03167fcc83e5a4ea6e4a90196f405439628da7c929529e42fbb6af2e388f9c6a2fd6f060405160405180910390a3508061300781614a04565b915050612eaa565b505050808061301d90614a04565b915050612be6565b61303060003661360d565b5050565b6001810154600090600160401b90046001600160401b031680820361305c5750600092915050565b82600061306a600184614c65565b81526020810191909152604001600020546001600160a01b03169392505050565b6001840154600160401b90046001600160401b031660008190036131e45782156131df5760408051808201909152601281527113585e081b9bd9195cc8195e18d95959195960721b602082015263ffffffff83166130fc5760405162461bcd60e51b815260040161075f9190614c78565b50600081815260208690526040902061311e613119836001614c8b565b613d33565b8660010160086101000a8154816001600160401b0302191690836001600160401b031602179055506040518060600160405280866bffffffffffffffffffffffff1916815260200161316f43613d33565b6001600160401b039081168252600160209283015260008080529382526040938490208351815493850151949095015163ffffffff16600160e01b026001600160e01b0394909216600160a01b026001600160e01b031990931660609590951c9490941791909117919091161790555b6132f0565b600085816131f3600185614c65565b815260208082019290925260409081016000908120818052928390522054909150600160a01b90046001600160401b0316438190036132435761323e8287878763ffffffff16613d6d565b6132ed565b80431161325257613252614c9e565b600083815260208890526040902061326e613119856001614c8b565b8860010160086101000a8154816001600160401b0302191690836001600160401b031602179055506132a9818489898963ffffffff16613e91565b6132b243613d33565b6000808052602092909252604090912080546001600160401b0392909216600160a01b0267ffffffffffffffff60a01b199092169190911790555b50505b5050505050565b6001820154600160401b90046001600160401b031660008190036133b5576001600160a01b03821615611652576040518060400160405280836001600160a01b0316815260200161334743613d33565b6001600160401b03908116909152600080805260208681526040909120835181549490920151909216600160a01b026001600160e01b03199093166001600160a01b039091161791909117905560018301805467ffffffffffffffff60401b1916600160401b179055505050565b600083816133c4600185614c65565b815260208101919091526040016000208054909150600160a01b90046001600160401b03164381900361340f5781546001600160a01b0319166001600160a01b0385161782556132f0565b80431161341e5761341e614c9e565b6040518060400160405280856001600160a01b0316815260200161344143613d33565b6001600160401b03908116909152600085815260208881526040909120835181549490920151909216600160a01b026001600160e01b03199093166001600160a01b039091161791909117905561349c613119846001614c8b565b8560010160086101000a8154816001600160401b0302191690836001600160401b031602179055505050505050565b60606000806134da8585613f5a565b91509150816134fb5750506040805160008152602081019091529050610c07565b6000818152602086815260408083208380529182905290912054600160e01b900463ffffffff16806001600160401b0381111561353a5761353a61446b565b604051908082528060200260200182016040528015613563578160200160208202803683370190505b50945060005b818110156135c85760008181526020849052604090208054875160609190911b9088908490811061359c5761359c6149d8565b6001600160601b03199092166020928302919091019091015250806135c081614a04565b915050613569565b505050505092915050565b600054600160b01b900460ff1615613603573330146135f4576135f4614c9e565b6000805460ff60b01b19169055565b61360b613a9e565b565b613615613a9e565b6000805460408051636221a54b60e01b81529051853593926001600160a01b031691636221a54b9160048083019260209291908290030181865afa158015613661573d6000803e3d6000fd5b505050506040513d601f19601f820116820180604052508101906136859190614cb4565b905060006136938242614c8b565b9050604051806040016040528082815260200186868080601f01602080910402602001604051908101604052809392919081815260200183838082843760009201829052509390945250506001600160e01b031986168152600260209081526040909120835181559083015190915060018201906137119082614d13565b509050507fed948300a3694aa01d4a6b258bfd664350193d770c0b51f8387277f6d83ea3b68382878760405161374a9493929190614dd2565b60405180910390a15050505050565b6001820154600090600160401b90046001600160401b0316808203613782576000915050610c07565b43831015806137bf575083600061379a600184614c65565b8152602081019190915260400160002054600160a01b90046001600160401b03168310155b156137f5578360006137d2600184614c65565b81526020810191909152604001600020546001600160a01b03169150610c079050565b60018401546001600160401b039081166000818152602087905260409020549091600160a01b9091041684101561389557801561388a5760405162461bcd60e51b815260206004820152602d60248201527f41646472657373486973746f72793a2072656164696e672066726f6d20636c6560448201526c616e65642d757020626c6f636b60981b606482015260840161075f565b600092505050610c07565b60018501546000906138bb9087908490600160401b90046001600160401b0316886140b2565b6000908152602087905260409020546001600160a01b0316935050505092915050565b60018201546000908190600160401b90046001600160401b031680820361390c575060009150819050610ab2565b43841015806139455750846000613924600184614c65565b81526020810191909152604001600020600201546001600160401b03168410155b1561399557846000613958600184614c65565b81526020810191909152604001600090812054908690613979600185614c65565b8152602001908152602001600020600101549250925050610ab2565b60018501546001600160401b03908116600081815260208890526040902060020154909116851015613a36578015613a275760405162461bcd60e51b815260206004820152602f60248201527f5075626c69634b6579486973746f72793a2072656164696e672066726f6d206360448201526e6c65616e65642d757020626c6f636b60881b606482015260840161075f565b5060009250829150610ab29050565b6001860154600090613a5c9088908490600160401b90046001600160401b03168961413d565b6000908152602088905260409020805460019091015490955093505050509250929050565b3d604051818101604052816000823e8215613a9a578181f35b8181fd5b613aa6610f01565b6001600160a01b0316336001600160a01b03161461360b5760405162461bcd60e51b815260206004820152600f60248201526e6f6e6c7920676f7665726e616e636560881b604482015260640161075f565b60018101546000908190600160401b90046001600160401b0316808203613b255750600093849350915050565b836000613b33600184614c65565b81526020810191909152604001600090812054908590613b54600185614c65565b8152602001908152602001600020600101549250925050915091565b6001830154600160401b90046001600160401b03166000819003613c30578215801590613b9c57508115155b15613c2b576040518060600160405280848152602001838152602001613bc143613d33565b6001600160401b039081169091526000808052602087815260409182902084518155908401516001808301919091559390910151600290910180549190921667ffffffffffffffff199091161790558401805467ffffffffffffffff60401b1916600160401b1790555b6113e3565b60008481613c3f600185614c65565b8152602081019190915260400160002060028101549091506001600160401b031643819003613c775784825560018201849055613d2b565b804311613c8657613c86614c9e565b6040518060600160405280868152602001858152602001613ca643613d33565b6001600160401b0390811690915260008581526020898152604091829020845181559084015160018083019190915593909101516002909101805467ffffffffffffffff191691909216179055613d0290613119908590614c8b565b8660010160086101000a8154816001600160401b0302191690836001600160401b031602179055505b505050505050565b60006001600160401b03821115613d6957604080516306dfcc6560e41b815260048101919091526024810183905260440161075f565b5090565b600080805260208590526040812054600160e01b900463ffffffff16905b8181108015613db9575060008181526020879052604090205460601b6001600160601b031990811690861614155b15613dce57613dc781614a04565b9050613d8b565b81811015613e395783613e3457613df08682613deb600186614c65565b6141ba565b613e03613dfe600184614c65565b614207565b6000808052602088905260409020805463ffffffff92909216600160e01b026001600160e01b039092169190911790555b613d2b565b8315613d2b576000613e4d87878587614238565b9050613e5881614207565b6000808052602089905260409020805463ffffffff92909216600160e01b026001600160e01b0390921691909117905550505050505050565b600080805260208590526040812054600160e01b900463ffffffff1690805b82811015613f3e576000818152602088815260409182902082516060808201855291546001600160601b03199281901b83168083526001600160401b03600160a01b8304169483019490945263ffffffff600160e01b9091041693810193909352881614613f2b57613f288982600001518588614238565b92505b5080613f3681614a04565b915050613eb0565b508315613f5157613e4d87868386614238565b613e5881614207565b60018201546000908190600160401b90046001600160401b0316808203613f88576000809250925050610ab2565b4384101580613fd25750846000613fa0600184614c65565b815260208082019290925260409081016000908120818052909252902054600160a01b90046001600160401b03168410155b15613fed576001613fe38183614c65565b9250925050610ab2565b60018501546001600160401b039081166000818152602088815260408083208380529091529020549091600160a01b909104168510156140975780156140895760405162461bcd60e51b815260206004820152602b60248201527f4e6f646573486973746f72793a2072656164696e672066726f6d20636c65616e60448201526a65642d757020626c6f636b60a81b606482015260840161075f565b600080935093505050610ab2565b60016140a5878385896142be565b9350935050509250929050565b600083816140c1600186614c65565b90505b8181111561413357600060026140da8484614c8b565b6140e5906001614c8b565b6140ef9190614dfb565b600081815260208a90526040902054909150600160a01b90046001600160401b0316851061411f5780925061412d565b61412a600182614c65565b91505b506140c4565b5095945050505050565b6000838161414c600186614c65565b90505b8181111561413357600060026141658484614c8b565b614170906001614c8b565b61417a9190614dfb565b600081815260208a905260409020600201549091506001600160401b031685106141a6578092506141b4565b6141b1600182614c65565b91505b5061414f565b6000828152602084905260408082208383529120828410156141f357805482546001600160a01b0319166001600160a01b039091161782555b80546001600160a01b031916905550505050565b600063ffffffff821115613d69576040516306dfcc6560e41b8152602060048201526024810183905260440161075f565b60008183106040518060400160405280601281526020017113585e081b9bd9195cc8195e18d95959195960721b815250906142865760405162461bcd60e51b815260040161075f9190614c78565b50600083815260208690526040902080546001600160a01b031916606086901c1781556142b4846001614c8b565b9695505050505050565b600083816142cd600186614c65565b90505b8181111561413357600060026142e68484614c8b565b6142f1906001614c8b565b6142fb9190614dfb565b600081815260208a81526040808320838052909152902054909150600160a01b90046001600160401b0316851061433457809250614342565b61433f600182614c65565b91505b506142d0565b50805461435490614b0c565b6000825580601f10614364575050565b601f016020900490600052602060002090810190610a0091905b80821115613d69576000815560010161437e565b80356001600160601b031981168114611a2857600080fd5b60008083601f8401126143bc57600080fd5b5081356001600160401b038111156143d357600080fd5b602083019150836020828501011115610ab257600080fd5b60008060008060006060868803121561440357600080fd5b61440c86614392565b945060208601356001600160401b038082111561442857600080fd5b61443489838a016143aa565b9096509450604088013591508082111561444d57600080fd5b5061445a888289016143aa565b969995985093965092949392505050565b634e487b7160e01b600052604160045260246000fd5b6001600160a01b0381168114610a0057600080fd5b8035611a2881614481565b600080604083850312156144b457600080fd5b82356001600160401b03808211156144cb57600080fd5b818501915085601f8301126144df57600080fd5b81356020828211156144f3576144f361446b565b8160051b604051601f19603f830116810181811086821117156145185761451861446b565b60405292835281830193508481018201928984111561453657600080fd5b948201945b8386101561455b5761454c86614496565b8552948201949382019361453b565b9997909101359750505050505050565b6000602080830181845280855180835260408601915060408160051b87010192508387016000805b838110156145f157888603603f19018552825180518088529088019088880190845b818110156145db5783516001600160601b0319168352928a0192918a01916001016145b5565b5090975050509386019391860191600101614593565b509398975050505050505050565b60006020828403121561461157600080fd5b8135610a7f81614481565b60008060006060848603121561463157600080fd5b505081359360208301359350604090920135919050565b6000806040838503121561465b57600080fd5b61466483614392565b946020939093013593505050565b6000806040838503121561468557600080fd5b823561466481614481565b6000602082840312156146a257600080fd5b610a7f82614392565b6020808252825182820181905260009190848201906040850190845b818110156146ec5783516001600160a01b0316835292840192918401916001016146c7565b50909695505050505050565b6020808252825182820181905260009190848201906040850190845b818110156146ec5783516001600160601b03191683529284019291840191600101614714565b60006020828403121561474c57600080fd5b81356001600160e01b031981168114610a7f57600080fd5b60005b8381101561477f578181015183820152602001614767565b50506000910152565b600081518084526147a0816020860160208601614764565b601f01601f19169290920160200192915050565b8281526040602082015260006147cd6040830184614788565b949350505050565b600080600080606085870312156147eb57600080fd5b843593506020850135925060408501356001600160401b0381111561480f57600080fd5b61481b878288016143aa565b95989497509550505050565b600081518084526020808501945080840160005b838110156148575781518752958201959082019060010161483b565b509495945050505050565b6040815260006148756040830185614827565b8281036020840152610a538185614827565b60006020828403121561489957600080fd5b813563ffffffff81168114610a7f57600080fd5b600080604083850312156148c057600080fd5b82356148cb81614481565b915060208301356148db81614481565b809150509250929050565b600080602083850312156148f957600080fd5b82356001600160401b038082111561491057600080fd5b818501915085601f83011261492457600080fd5b81358181111561493357600080fd5b8660208260051b850101111561494857600080fd5b60209290920196919550909350505050565b81835281816020850137506000828201602090810191909152601f909101601f19169091010190565b6001600160a01b03871681526001600160601b0319861660208201526080604082018190526000906149b8908301868861495a565b82810360608401526149cb81858761495a565b9998505050505050505050565b634e487b7160e01b600052603260045260246000fd5b634e487b7160e01b600052601160045260246000fd5b600060018201614a1657614a166149ee565b5060010190565b6020808252602c908201527f7375626d6974207369676e617475726573206164647265737320616c7265616460408201526b1e481c9959da5cdd195c995960a21b606082015260800190565b60208082526025908201527f64656c65676174696f6e206164647265737320616c72656164792072656769736040820152641d195c995960da1b606082015260800190565b600060208284031215614ac057600080fd5b8151610a7f81614481565b60208082526021908201527f7375626d6974206164647265737320616c7265616479207265676973746572656040820152601960fa1b606082015260800190565b600181811c90821680614b2057607f821691505b602082108103614b4057634e487b7160e01b600052602260045260246000fd5b50919050565b60008251614b58818460208701614764565b9190910192915050565b60208082526029908201527f7369676e696e6720706f6c696379206164647265737320616c726561647920726040820152681959da5cdd195c995960ba1b606082015260800190565b60018060a01b0386168152846020820152836040820152608060608201526000614bd960808301848661495a565b979650505050505050565b600060208284031215614bf657600080fd5b81518015158114610a7f57600080fd5b60008235605e19833603018112614b5857600080fd5b6000808335601e19843603018112614c3357600080fd5b8301803591506001600160401b03821115614c4d57600080fd5b6020019150600581901b3603821315610ab257600080fd5b81810381811115610c0757610c076149ee565b602081526000610a7f6020830184614788565b80820180821115610c0757610c076149ee565b634e487b7160e01b600052600160045260246000fd5b600060208284031215614cc657600080fd5b5051919050565b601f82111561165257600081815260208120601f850160051c81016020861015614cf45750805b601f850160051c820191505b81811015613d2b57828155600101614d00565b81516001600160401b03811115614d2c57614d2c61446b565b614d4081614d3a8454614b0c565b84614ccd565b602080601f831160018114614d755760008415614d5d5750858301515b600019600386901b1c1916600185901b178555613d2b565b600085815260208120601f198616915b82811015614da457888601518255948401946001909101908401614d85565b5085821015614dc25787850151600019600388901b60f8161c191681555b5050505050600190811b01905550565b63ffffffff60e01b851681528360208201526060604082015260006142b460608301848661495a565b600082614e1857634e487b7160e01b600052601260045260246000fd5b50049056fea26469706673582212209a292acab93b1b1268a896b1564189e3b7aae0be492f5ced6de0c5ba5da6a22364736f6c63430008140033",
  "linkReferences": {},
  "deployedLinkReferences": {}
}