{
  "_format": "hh-sol-artifact-1",
  "contractName": "PChainStakeMirrorMultiSigVoting",
  "sourceName": "contracts/staking/implementation/PChainStakeMirrorMultiSigVoting.sol",
  "abi": [
    {
      "inputs": [
        {
          "internalType": "address",
          "name": "_governance",
          "type": "address"
        },
        {
          "internalType": "uint256",
          "name": "_firstEpochStartTs",
          "type": "uint256"
        },
        {
          "internalType": "uint256",
          "name": "_epochDurationSeconds",
          "type": "uint256"
        },
        {
          "internalType": "uint256",
          "name": "_votingThreshold",
          "type": "uint256"
        },
        {
          "internalType": "address[]",
          "name": "_voters",
          "type": "address[]"
        }
      ],
      "stateMutability": "nonpayable",
      "type": "constructor"
    },
    {
      "anonymous": false,
      "inputs": [
        {
          "indexed": false,
          "internalType": "bytes4",
          "name": "selector",
          "type": "bytes4"
        },
        {
          "indexed": false,
          "internalType": "uint256",
          "name": "allowedAfterTimestamp",
          "type": "uint256"
        },
        {
          "indexed": false,
          "internalType": "bytes",
          "name": "encodedCall",
          "type": "bytes"
        }
      ],
      "name": "GovernanceCallTimelocked",
      "type": "event"
    },
    {
      "anonymous": false,
      "inputs": [
        {
          "indexed": false,
          "internalType": "address",
          "name": "initialGovernance",
          "type": "address"
        }
      ],
      "name": "GovernanceInitialised",
      "type": "event"
    },
    {
      "anonymous": false,
      "inputs": [
        {
          "indexed": false,
          "internalType": "address",
          "name": "governanceSettings",
          "type": "address"
        }
      ],
      "name": "GovernedProductionModeEntered",
      "type": "event"
    },
    {
      "anonymous": false,
      "inputs": [
        {
          "indexed": true,
          "internalType": "uint256",
          "name": "rewardEpochId",
          "type": "uint256"
        },
        {
          "indexed": true,
          "internalType": "uint256",
          "name": "timestamp",
          "type": "uint256"
        },
        {
          "indexed": false,
          "internalType": "address",
          "name": "voter",
          "type": "address"
        },
        {
          "indexed": false,
          "internalType": "bytes20[]",
          "name": "nodeIds",
          "type": "bytes20[]"
        }
      ],
      "name": "PChainStakeMirrorValidatorUptimeVoteSubmitted",
      "type": "event"
    },
    {
      "anonymous": false,
      "inputs": [
        {
          "indexed": false,
          "internalType": "uint256",
          "name": "epochId",
          "type": "uint256"
        },
        {
          "indexed": false,
          "internalType": "address",
          "name": "voter",
          "type": "address"
        },
        {
          "indexed": false,
          "internalType": "bytes32",
          "name": "merkleRoot",
          "type": "bytes32"
        }
      ],
      "name": "PChainStakeMirrorVoteSubmitted",
      "type": "event"
    },
    {
      "anonymous": false,
      "inputs": [
        {
          "indexed": false,
          "internalType": "address[]",
          "name": "voters",
          "type": "address[]"
        }
      ],
      "name": "PChainStakeMirrorVotersSet",
      "type": "event"
    },
    {
      "anonymous": false,
      "inputs": [
        {
          "indexed": true,
          "internalType": "uint256",
          "name": "epochId",
          "type": "uint256"
        },
        {
          "indexed": false,
          "internalType": "bytes32",
          "name": "merkleRoot",
          "type": "bytes32"
        }
      ],
      "name": "PChainStakeMirrorVotingFinalized",
      "type": "event"
    },
    {
      "anonymous": false,
      "inputs": [
        {
          "indexed": false,
          "internalType": "uint256",
          "name": "epochId",
          "type": "uint256"
        }
      ],
      "name": "PChainStakeMirrorVotingReset",
      "type": "event"
    },
    {
      "anonymous": false,
      "inputs": [
        {
          "indexed": false,
          "internalType": "uint256",
          "name": "votingThreshold",
          "type": "uint256"
        }
      ],
      "name": "PChainStakeMirrorVotingThresholdSet",
      "type": "event"
    },
    {
      "anonymous": false,
      "inputs": [
        {
          "indexed": false,
          "internalType": "bytes4",
          "name": "selector",
          "type": "bytes4"
        },
        {
          "indexed": false,
          "internalType": "uint256",
          "name": "timestamp",
          "type": "uint256"
        }
      ],
      "name": "TimelockedGovernanceCallCanceled",
      "type": "event"
    },
    {
      "anonymous": false,
      "inputs": [
        {
          "indexed": false,
          "internalType": "bytes4",
          "name": "selector",
          "type": "bytes4"
        },
        {
          "indexed": false,
          "internalType": "uint256",
          "name": "timestamp",
          "type": "uint256"
        }
      ],
      "name": "TimelockedGovernanceCallExecuted",
      "type": "event"
    },
    {
      "inputs": [
        {
          "internalType": "bytes4",
          "name": "_selector",
          "type": "bytes4"
        }
      ],
      "name": "cancelGovernanceCall",
      "outputs": [],
      "stateMutability": "nonpayable",
      "type": "function"
    },
    {
      "inputs": [
        {
          "internalType": "address[]",
          "name": "_newVotersList",
          "type": "address[]"
        }
      ],
      "name": "changeVoters",
      "outputs": [],
      "stateMutability": "nonpayable",
      "type": "function"
    },
    {
      "inputs": [
        {
          "internalType": "bytes4",
          "name": "_selector",
          "type": "bytes4"
        }
      ],
      "name": "executeGovernanceCall",
      "outputs": [],
      "stateMutability": "nonpayable",
      "type": "function"
    },
    {
      "inputs": [],
      "name": "getCurrentEpochId",
      "outputs": [
        {
          "internalType": "uint256",
          "name": "",
          "type": "uint256"
        }
      ],
      "stateMutability": "view",
      "type": "function"
    },
    {
      "inputs": [],
      "name": "getEpochConfiguration",
      "outputs": [
        {
          "internalType": "uint256",
          "name": "_firstEpochStartTs",
          "type": "uint256"
        },
        {
          "internalType": "uint256",
          "name": "_epochDurationSeconds",
          "type": "uint256"
        }
      ],
      "stateMutability": "view",
      "type": "function"
    },
    {
      "inputs": [
        {
          "internalType": "uint256",
          "name": "_timestamp",
          "type": "uint256"
        }
      ],
      "name": "getEpochId",
      "outputs": [
        {
          "internalType": "uint256",
          "name": "",
          "type": "uint256"
        }
      ],
      "stateMutability": "view",
      "type": "function"
    },
    {
      "inputs": [
        {
          "internalType": "uint256",
          "name": "_epochId",
          "type": "uint256"
        }
      ],
      "name": "getMerkleRoot",
      "outputs": [
        {
          "internalType": "bytes32",
          "name": "",
          "type": "bytes32"
        }
      ],
      "stateMutability": "view",
      "type": "function"
    },
    {
      "inputs": [],
      "name": "getVoters",
      "outputs": [
        {
          "internalType": "address[]",
          "name": "",
          "type": "address[]"
        }
      ],
      "stateMutability": "view",
      "type": "function"
    },
    {
      "inputs": [
        {
          "internalType": "uint256",
          "name": "_epochId",
          "type": "uint256"
        }
      ],
      "name": "getVotes",
      "outputs": [
        {
          "components": [
            {
              "internalType": "bytes32",
              "name": "merkleRoot",
              "type": "bytes32"
            },
            {
              "internalType": "address[]",
              "name": "votes",
              "type": "address[]"
            }
          ],
          "internalType": "struct IPChainStakeMirrorMultiSigVoting.PChainVotes[]",
          "name": "",
          "type": "tuple[]"
        }
      ],
      "stateMutability": "view",
      "type": "function"
    },
    {
      "inputs": [],
      "name": "getVotingThreshold",
      "outputs": [
        {
          "internalType": "uint256",
          "name": "",
          "type": "uint256"
        }
      ],
      "stateMutability": "view",
      "type": "function"
    },
    {
      "inputs": [],
      "name": "governance",
      "outputs": [
        {
          "internalType": "address",
          "name": "",
          "type": "address"
        }
      ],
      "stateMutability": "view",
      "type": "function"
    },
    {
      "inputs": [],
      "name": "governanceSettings",
      "outputs": [
        {
          "internalType": "contract IGovernanceSettings",
          "name": "",
          "type": "address"
        }
      ],
      "stateMutability": "view",
      "type": "function"
    },
    {
      "inputs": [
        {
          "internalType": "address",
          "name": "_initialGovernance",
          "type": "address"
        }
      ],
      "name": "initialise",
      "outputs": [],
      "stateMutability": "nonpayable",
      "type": "function"
    },
    {
      "inputs": [],
      "name": "productionMode",
      "outputs": [
        {
          "internalType": "bool",
          "name": "",
          "type": "bool"
        }
      ],
      "stateMutability": "view",
      "type": "function"
    },
    {
      "inputs": [
        {
          "internalType": "uint256",
          "name": "_epochId",
          "type": "uint256"
        }
      ],
      "name": "resetVoting",
      "outputs": [],
      "stateMutability": "nonpayable",
      "type": "function"
    },
    {
      "inputs": [
        {
          "internalType": "uint256",
          "name": "_votingThreshold",
          "type": "uint256"
        }
      ],
      "name": "setVotingThreshold",
      "outputs": [],
      "stateMutability": "nonpayable",
      "type": "function"
    },
    {
      "inputs": [
        {
          "internalType": "uint256",
          "name": "_epochId",
          "type": "uint256"
        },
        {
          "internalType": "address",
          "name": "_voter",
          "type": "address"
        }
      ],
      "name": "shouldVote",
      "outputs": [
        {
          "internalType": "bool",
          "name": "",
          "type": "bool"
        }
      ],
      "stateMutability": "view",
      "type": "function"
    },
    {
      "inputs": [
        {
          "internalType": "uint256",
          "name": "_rewardEpochId",
          "type": "uint256"
        },
        {
          "internalType": "bytes20[]",
          "name": "_nodeIds",
          "type": "bytes20[]"
        }
      ],
      "name": "submitValidatorUptimeVote",
      "outputs": [],
      "stateMutability": "nonpayable",
      "type": "function"
    },
    {
      "inputs": [
        {
          "internalType": "uint256",
          "name": "_epochId",
          "type": "uint256"
        },
        {
          "internalType": "bytes32",
          "name": "_merkleRoot",
          "type": "bytes32"
        }
      ],
      "name": "submitVote",
      "outputs": [],
      "stateMutability": "nonpayable",
      "type": "function"
    },
    {
      "inputs": [],
      "name": "switchToProductionMode",
      "outputs": [],
      "stateMutability": "nonpayable",
      "type": "function"
    },
    {
      "inputs": [
        {
          "internalType": "bytes4",
          "name": "",
          "type": "bytes4"
        }
      ],
      "name": "timelockedCalls",
      "outputs": [
        {
          "internalType": "uint256",
          "name": "allowedAfterTimestamp",
          "type": "uint256"
        },
        {
          "internalType": "bytes",
          "name": "encodedCall",
          "type": "bytes"
        }
      ],
      "stateMutability": "view",
      "type": "function"
    }
  ],
  "bytecode": "0x60c06040523480156200001157600080fd5b50604051620021a2380380620021a2833981016040819052620000349162000349565b84806001600160a01b0381161562000051576200005181620001b9565b506001600160a01b038116620000a1576040805162461bcd60e51b815260206004820152601060248201526f5f676f7665726e616e6365207a65726f60801b604482015290519081900360640190fd5b5042841115620000ce5760405162461bcd60e51b8152600401620000c590620004f9565b60405180910390fd5b60008311620000f15760405162461bcd60e51b8152600401620000c590620004c2565b60018211620001145760405162461bcd60e51b8152600401620000c5906200048b565b608084905260a083905260068290556200013c6004826200027c602090811b6200127b17901c565b7f79fcd9a44ea76361df1fbf61af58b8402734827d67758ccd4f6d1bf5ec1358b8826040516200016d919062000530565b60405180910390a17fee3c8349f0956bc41369bca45ae7ea8ab85e61bc09b93be0b36b405bd521fc2281604051620001a691906200043c565b60405180910390a1505050505062000539565b600054600160a01b900460ff161562000219576040805162461bcd60e51b815260206004820152601460248201527f696e697469616c6973656420213d2066616c7365000000000000000000000000604482015290519081900360640190fd5b60008054600160a01b60ff60a01b19909116176001600160a01b0319166001600160a01b03831690811790915560408051918252517f9789733827840833afc031fb2ef9ab6894271f77bad2085687cf4ae5c7bee4db916020908290030190a150565b60005b8151811015620002b857620002af838383815181106200029b57fe5b6020026020010151620002bd60201b60201c565b6001016200027f565b505050565b6001600160a01b038116600090815260018301602052604090205415620002e45762000328565b8154600180820184556000848152602080822090930180546001600160a01b0319166001600160a01b03861690811790915585549082529185019092526040909120555b5050565b80516001600160a01b03811681146200034457600080fd5b919050565b600080600080600060a0868803121562000361578081fd5b6200036c866200032c565b602087810151604089015160608a015160808b015194995091975095509350906001600160401b0380821115620003a1578384fd5b818901915089601f830112620003b5578384fd5b815181811115620003c257fe5b83810260405185828201018181108582111715620003dc57fe5b604052828152858101935084860182860187018e1015620003fb578788fd5b8795505b83861015620004285762000413816200032c565b855260019590950194938601938601620003ff565b508096505050505050509295509295909350565b6020808252825182820181905260009190848201906040850190845b818110156200047f5783516001600160a01b03168352928401929184019160010162000458565b50909695505050505050565b60208082526018908201527f766f74696e67207468726573686f6c6420746f6f206c6f770000000000000000604082015260600190565b60208082526018908201527f65706f6368206475726174696f6e20746f6f2073686f72740000000000000000604082015260600190565b6020808252601f908201527f66697273742065706f636820737461727420696e207468652066757475726500604082015260600190565b90815260200190565b60805160a051611c2c62000576600039806103e65280610cf5528061108d5250806103b652806104075280610d16528061106c5250611c2c6000f3fe608060405234801561001057600080fd5b50600436106101375760003560e01c806374e6310e116100b8578063ac8f38c81161007c578063ac8f38c81461026d578063cdd7225314610280578063d72a200514610295578063e17f212e146102ab578063f5a98383146102b3578063ff981099146102bb57610137565b806374e6310e1461020b578063836761e01461022c5780638fae2d0a1461023f5780639d6a890f14610252578063a29a839f1461026557610137565b80635aa6e675116100ff5780635aa6e675146101b55780635f9f3fd9146101ca5780635ff27079146101dd57806362354e03146101f057806367fc4029146101f857610137565b80630aab8ba51461013c5780631e98e4fa146101655780633d7e4e301461017a5780635303548b1461018257806359fa6d5914610195575b600080fd5b61014f61014a366004611806565b6102db565b60405161015c9190611a51565b60405180910390f35b61017861017336600461179e565b6102f0565b005b61014f6103ac565b61014f610190366004611806565b6103b2565b6101a86101a336600461181e565b610437565b60405161015c9190611a46565b6101bd610520565b60405161015c91906118f7565b6101786101d8366004611849565b6105b5565b6101786101eb3660046117de565b61062c565b6101bd610981565b6101786102063660046117de565b61098c565b61021e6102193660046117de565b610a74565b60405161015c929190611b8d565b61017861023a366004611806565b610b1a565b61017861024d366004611806565b610bb9565b61017861026036600461177d565b610c38565b61014f610cf1565b61017861027b366004611893565b610d44565b610288611005565b60405161015c91906119c2565b61029d61106a565b60405161015c929190611be8565b6101a86110b0565b6101786110c0565b6102ce6102c9366004611806565b61117a565b60405161015c91906119d5565b6000818152600260205260409020545b919050565b600054600160b01b900460ff16806103125750600054600160a81b900460ff16155b1561039d5761031f6112ac565b61035f8282808060200260200160405190810160405280939291908181526020018383602002808284376000920191909152506004939250506112e39050565b7fee3c8349f0956bc41369bca45ae7ea8ab85e61bc09b93be0b36b405bd521fc228282604051610390929190611976565b60405180910390a16103a8565b6103a86000366112f6565b5050565b60065490565b60007f00000000000000000000000000000000000000000000000000000000000000008210156103e4575060006102eb565b7f00000000000000000000000000000000000000000000000000000000000000007f000000000000000000000000000000000000000000000000000000000000000083038161042f57fe5b0490506102eb565b6001600160a01b0381166000908152600560205260408120541580610469575060008381526002602052604090205415155b156104765750600061051a565b6000838152600360205260408120805490915b8181101561051257600083828154811061049f57fe5b9060005260206000209060020201905060005b600182015481101561050857866001600160a01b03168260010182815481106104d757fe5b6000918252602090912001546001600160a01b031614156105005760009550505050505061051a565b6001016104b2565b5050600101610489565b506001925050505b92915050565b60008054600160a81b900460ff16610543576000546001600160a01b03166105b0565b60076001609c1b016001600160a01b031663732524946040518163ffffffff1660e01b815260040160206040518083038186803b15801561058357600080fd5b505afa158015610597573d6000803e3d6000fd5b505050506040513d60208110156105ad57600080fd5b50515b905090565b336000908152600560205260409020546105ea5760405162461bcd60e51b81526004016105e190611ae5565b60405180910390fd5b42837f1dafa85eb81adeb6e48e08365cf90c9ade61034e1e9fa293dc9730c4a8f89b3933858560405161061f9392919061190b565b60405180910390a3505050565b60408051630debfda360e41b8152336004820152905160076001609c1b019163debfda30916024808301926020929190829003018186803b15801561067057600080fd5b505afa158015610684573d6000803e3d6000fd5b505050506040513d602081101561069a57600080fd5b50516106dd576040805162461bcd60e51b815260206004820152600d60248201526c37b7363c9032bc32b1baba37b960991b604482015290519081900360640190fd5b6001600160e01b0319811660009081526001602052604090208054610749576040805162461bcd60e51b815260206004820152601a60248201527f74696d656c6f636b3a20696e76616c69642073656c6563746f72000000000000604482015290519081900360640190fd5b805442101561079f576040805162461bcd60e51b815260206004820152601960248201527f74696d656c6f636b3a206e6f7420616c6c6f7765642079657400000000000000604482015290519081900360640190fd5b6000816001018054600181600116156101000203166002900480601f0160208091040260200160405190810160405280929190818152602001828054600181600116156101000203166002900480156108395780601f1061080e57610100808354040283529160200191610839565b820191906000526020600020905b81548152906001019060200180831161081c57829003601f168201915b5050506001600160e01b031986166000908152600160208190526040822082815594955090925061086d91508301826115d6565b50506000805460ff60b01b1916600160b01b178155604051825130918491819060208401908083835b602083106108b55780518252601f199092019160209182019101610896565b6001836020036101000a0380198251168184511680821785525050505050509050019150506000604051808303816000865af19150503d8060008114610917576040519150601f19603f3d011682016040523d82523d6000602084013e61091c565b606091505b50506000805460ff60b01b19169055604080516001600160e01b03198716815242602082015281519293507fa7326b57fc9cfe267aaea5e7f0b01757154d265620a0585819416ee9ddd2c438929081900390910190a161097b81611479565b50505050565b60076001609c1b0181565b610994611496565b6001600160e01b031981166000908152600160205260409020546109ff576040805162461bcd60e51b815260206004820152601a60248201527f74696d656c6f636b3a20696e76616c69642073656c6563746f72000000000000604482015290519081900360640190fd5b604080516001600160e01b03198316815242602082015281517f7735b2391c38a81419c513e30ca578db7158eadd7101511b23e221c654d19cf8929181900390910190a16001600160e01b03198116600090815260016020819052604082208281559190610a6f908301826115d6565b505050565b600160208181526000928352604092839020805481840180548651600296821615610100026000190190911695909504601f81018590048502860185019096528585529094919392909190830182828015610b105780601f10610ae557610100808354040283529160200191610b10565b820191906000526020600020905b815481529060010190602001808311610af357829003601f168201915b5050505050905082565b600054600160b01b900460ff1680610b3c5750600054600160a81b900460ff16155b15610bab57610b496112ac565b60018111610b695760405162461bcd60e51b81526004016105e190611a5a565b60068190556040517f79fcd9a44ea76361df1fbf61af58b8402734827d67758ccd4f6d1bf5ec1358b890610b9e908390611a51565b60405180910390a1610bb6565b610bb66000366112f6565b50565b610bc1611496565b600081815260026020526040902054610bec5760405162461bcd60e51b81526004016105e190611a91565b60008181526002602052604080822091909155517f72ce53d1ea24486d0db629df4e52d1c99b6a65b1c74f45ff479c23d34628a92890610c2d908390611a51565b60405180910390a150565b600054600160a01b900460ff1615610c8e576040805162461bcd60e51b8152602060048201526014602482015273696e697469616c6973656420213d2066616c736560601b604482015290519081900360640190fd5b60008054600160a01b60ff60a01b19909116176001600160a01b0319166001600160a01b03831690811790915560408051918252517f9789733827840833afc031fb2ef9ab6894271f77bad2085687cf4ae5c7bee4db916020908290030190a150565b60007f00000000000000000000000000000000000000000000000000000000000000007f0000000000000000000000000000000000000000000000000000000000000000420381610d3e57fe5b04905090565b33600090815260056020526040902054610d705760405162461bcd60e51b81526004016105e190611ae5565b610d78610cf1565b8210610d965760405162461bcd60e51b81526004016105e190611b41565b60008281526002602052604090205415610dc25760405162461bcd60e51b81526004016105e190611b0a565b6000828152600360205260408120805490915b81811015610f53576000838281548110610deb57fe5b9060005260206000209060020201905084816000015414610e0c5750610f4b565b60005b6001820154811015610e6f57336001600160a01b0316826001018281548110610e3457fe5b6000918252602090912001546001600160a01b03161415610e675760405162461bcd60e51b81526004016105e190611abe565b600101610e0f565b507fc20a6d1ff27e89f30517726862e720046602b33a06fbbe3a93aa75687b8419f4863387604051610ea393929190611b6e565b60405180910390a16006546001808301540110610f1b57600086815260026020908152604080832088905560039091528120610ede9161161a565b857f37bd3805c370e0a147273bf48789eabfcbe6b28ad2c3ff62c2f6f332e9cc869286604051610f0e9190611a51565b60405180910390a2610f42565b6001808201805491820181556000908152602090200180546001600160a01b031916331790555b505050506103a8565b600101610dd5565b50815460010180835560008390528390839083908110610f6f57fe5b906000526020600020906002020160000181905550818181548110610f9057fe5b60009182526020808320600160029093020182018054928301815583529091200180546001600160a01b031916339081179091556040517fc20a6d1ff27e89f30517726862e720046602b33a06fbbe3a93aa75687b8419f491610ff7918791908790611b6e565b60405180910390a150505050565b6060600460000180548060200260200160405190810160405280929190818152602001828054801561106057602002820191906000526020600020905b81546001600160a01b03168152600190910190602001808311611042575b5050505050905090565b7f00000000000000000000000000000000000000000000000000000000000000007f00000000000000000000000000000000000000000000000000000000000000009091565b600054600160a81b900460ff1681565b6110c8611496565b600054600160a81b900460ff1615611127576040805162461bcd60e51b815260206004820152601a60248201527f616c726561647920696e2070726f64756374696f6e206d6f6465000000000000604482015290519081900360640190fd5b60008054600161ff0160a01b031916600160a81b1790556040805160076001609c1b01815290517f83af113638b5422f9e977cebc0aaf0eaf2188eb9a8baae7f9d46c42b33a1560c9181900360200190a1565b600081815260026020526040902054606090156111a95760405162461bcd60e51b81526004016105e190611b0a565b600082815260036020908152604080832080548251818502810185019093528083529193909284015b828210156112705783829060005260206000209060020201604051806040016040529081600082015481526020016001820180548060200260200160405190810160405280929190818152602001828054801561125857602002820191906000526020600020905b81546001600160a01b0316815260019091019060200180831161123a575b505050505081525050815260200190600101906111d2565b505050509050919050565b60005b8151811015610a6f576112a48383838151811061129757fe5b60200260200101516114f5565b60010161127e565b600054600160b01b900460ff16156112d9573330146112c757fe5b6000805460ff60b01b191690556112e1565b6112e1611496565b565b6112ec8261155e565b6103a8828261127b565b6112fe611496565b600082359050600060076001609c1b016001600160a01b0316636221a54b6040518163ffffffff1660e01b815260040160206040518083038186803b15801561134657600080fd5b505afa15801561135a573d6000803e3d6000fd5b505050506040513d602081101561137057600080fd5b505160408051808201825242830180825282516020601f89018190048102820181019094528781529394509290918281019190889088908190840183828082843760009201829052509390945250506001600160e01b031986168152600160208181526040909220845181558483015180519194506113f49392850192019061163b565b509050507fed948300a3694aa01d4a6b258bfd664350193d770c0b51f8387277f6d83ea3b68382878760405180856001600160e01b0319168152602001848152602001806020018281038252848482818152602001925080828437600083820152604051601f909101601f191690920182900397509095505050505050a15050505050565b3d604051818101604052816000823e8215611492578181f35b8181fd5b61149e610520565b6001600160a01b0316336001600160a01b0316146112e1576040805162461bcd60e51b815260206004820152600f60248201526e6f6e6c7920676f7665726e616e636560881b604482015290519081900360640190fd5b6001600160a01b03811660009081526001830160205260409020541561151a576103a8565b8154600180820184556000848152602080822090930180546001600160a01b0319166001600160a01b03959095169485179055845493815293019052604090912055565b805415610bb657805460018201906000908390600019810190811061157f57fe5b60009182526020808320909101546001600160a01b0316835282019290925260400181205580548190806115af57fe5b600082815260209020810160001990810180546001600160a01b031916905501905561155e565b50805460018160011615610100020316600290046000825580601f106115fc5750610bb6565b601f016020900490600052602060002090810190610bb691906116c7565b5080546000825560020290600052602060002090810190610bb691906116dc565b828054600181600116156101000203166002900490600052602060002090601f01602090048101928261167157600085556116b7565b82601f1061168a57805160ff19168380011785556116b7565b828001600101855582156116b7579182015b828111156116b757825182559160200191906001019061169c565b506116c39291506116c7565b5090565b5b808211156116c357600081556001016116c8565b808211156116c35760008082556116f660018301826116ff565b506002016116dc565b5080546000825590600052602060002090810190610bb691906116c7565b80356001600160a01b03811681146102eb57600080fd5b60008083601f840112611745578182fd5b50813567ffffffffffffffff81111561175c578182fd5b602083019150836020808302850101111561177657600080fd5b9250929050565b60006020828403121561178e578081fd5b6117978261171d565b9392505050565b600080602083850312156117b0578081fd5b823567ffffffffffffffff8111156117c6578182fd5b6117d285828601611734565b90969095509350505050565b6000602082840312156117ef578081fd5b81356001600160e01b031981168114611797578182fd5b600060208284031215611817578081fd5b5035919050565b60008060408385031215611830578182fd5b823591506118406020840161171d565b90509250929050565b60008060006040848603121561185d578081fd5b83359250602084013567ffffffffffffffff81111561187a578182fd5b61188686828701611734565b9497909650939450505050565b600080604083850312156118a5578182fd5b50508035926020909101359150565b6000815180845260208085019450808401835b838110156118ec5781516001600160a01b0316875295820195908201906001016118c7565b509495945050505050565b6001600160a01b0391909116815260200190565b6001600160a01b038416815260406020808301829052908201839052600090849060608401835b8681101561196a5783356bffffffffffffffffffffffff198116808214611957578687fd5b8352509282019290820190600101611932565b50979650505050505050565b60208082528181018390526000908460408401835b868110156119b7576001600160a01b036119a48461171d565b168252918301919083019060010161198b565b509695505050505050565b60006020825261179760208301846118b4565b60208082528251828201819052600091906040908185019080840286018301878501865b83811015611a3857888303603f19018552815180518452870151878401879052611a25878501826118b4565b95880195935050908601906001016119f9565b509098975050505050505050565b901515815260200190565b90815260200190565b60208082526018908201527f766f74696e67207468726573686f6c6420746f6f206c6f770000000000000000604082015260600190565b602080825260139082015272195c1bd8da081b9bdd08199a5b985b1a5e9959606a1b604082015260600190565b6020808252600d908201526c185b1c9958591e481d9bdd1959609a1b604082015260600190565b6020808252600b908201526a6f6e6c7920766f7465727360a81b604082015260600190565b60208082526017908201527f65706f636820616c72656164792066696e616c697a6564000000000000000000604082015260600190565b602080825260139082015272195c1bd8da081b9bdd08195b991959081e595d606a1b604082015260600190565b9283526001600160a01b03919091166020830152604082015260600190565b600083825260206040818401528351806040850152825b81811015611bc057858101830151858201606001528201611ba4565b81811115611bd15783606083870101525b50601f01601f191692909201606001949350505050565b91825260208201526040019056fea26469706673582212200e0a3d942731b12f1b03f16c1773647a922b74f03b8ac96cb2de979b5ecbee8464736f6c63430007060033",
  "linkReferences": {},
  "deployedLinkReferences": {}
}