{
  "_format": "hh-sol-artifact-1",
  "contractName": "ValidatorRewardManager",
  "sourceName": "contracts/tokenPools/implementation/ValidatorRewardManager.sol",
  "abi": [
    {
      "inputs": [
        {
          "internalType": "address",
          "name": "_governance",
          "type": "address"
        },
        {
          "internalType": "address",
          "name": "_addressUpdater",
          "type": "address"
        },
        {
          "internalType": "address",
          "name": "_oldRewardManager",
          "type": "address"
        }
      ],
      "stateMutability": "nonpayable",
      "type": "constructor"
    },
    {
      "anonymous": false,
      "inputs": [
        {
          "indexed": false,
          "internalType": "address",
          "name": "rewardOwner",
          "type": "address"
        },
        {
          "indexed": false,
          "internalType": "address[]",
          "name": "recipients",
          "type": "address[]"
        }
      ],
      "name": "AllowedClaimRecipientsChanged",
      "type": "event"
    },
    {
      "anonymous": false,
      "inputs": [
        {
          "indexed": false,
          "internalType": "address",
          "name": "rewardOwner",
          "type": "address"
        },
        {
          "indexed": false,
          "internalType": "address[]",
          "name": "executors",
          "type": "address[]"
        }
      ],
      "name": "ClaimExecutorsChanged",
      "type": "event"
    },
    {
      "anonymous": false,
      "inputs": [
        {
          "indexed": false,
          "internalType": "uint256",
          "name": "authorizedAmountWei",
          "type": "uint256"
        }
      ],
      "name": "DailyAuthorizedInflationSet",
      "type": "event"
    },
    {
      "anonymous": false,
      "inputs": [
        {
          "indexed": false,
          "internalType": "bytes4",
          "name": "selector",
          "type": "bytes4"
        },
        {
          "indexed": false,
          "internalType": "uint256",
          "name": "allowedAfterTimestamp",
          "type": "uint256"
        },
        {
          "indexed": false,
          "internalType": "bytes",
          "name": "encodedCall",
          "type": "bytes"
        }
      ],
      "name": "GovernanceCallTimelocked",
      "type": "event"
    },
    {
      "anonymous": false,
      "inputs": [
        {
          "indexed": false,
          "internalType": "address",
          "name": "initialGovernance",
          "type": "address"
        }
      ],
      "name": "GovernanceInitialised",
      "type": "event"
    },
    {
      "anonymous": false,
      "inputs": [
        {
          "indexed": false,
          "internalType": "address",
          "name": "governanceSettings",
          "type": "address"
        }
      ],
      "name": "GovernedProductionModeEntered",
      "type": "event"
    },
    {
      "anonymous": false,
      "inputs": [
        {
          "indexed": false,
          "internalType": "uint256",
          "name": "amountReceivedWei",
          "type": "uint256"
        }
      ],
      "name": "InflationReceived",
      "type": "event"
    },
    {
      "anonymous": false,
      "inputs": [
        {
          "indexed": true,
          "internalType": "address",
          "name": "beneficiary",
          "type": "address"
        },
        {
          "indexed": true,
          "internalType": "address",
          "name": "sentTo",
          "type": "address"
        },
        {
          "indexed": false,
          "internalType": "uint256",
          "name": "amount",
          "type": "uint256"
        }
      ],
      "name": "RewardClaimed",
      "type": "event"
    },
    {
      "anonymous": false,
      "inputs": [
        {
          "indexed": false,
          "internalType": "address",
          "name": "rewardManager",
          "type": "address"
        }
      ],
      "name": "RewardManagerActivated",
      "type": "event"
    },
    {
      "anonymous": false,
      "inputs": [
        {
          "indexed": false,
          "internalType": "address",
          "name": "rewardManager",
          "type": "address"
        }
      ],
      "name": "RewardManagerDeactivated",
      "type": "event"
    },
    {
      "anonymous": false,
      "inputs": [
        {
          "indexed": false,
          "internalType": "address[]",
          "name": "addresses",
          "type": "address[]"
        },
        {
          "indexed": false,
          "internalType": "uint256[]",
          "name": "rewards",
          "type": "uint256[]"
        }
      ],
      "name": "RewardsDistributed",
      "type": "event"
    },
    {
      "anonymous": false,
      "inputs": [
        {
          "indexed": false,
          "internalType": "bytes4",
          "name": "selector",
          "type": "bytes4"
        },
        {
          "indexed": false,
          "internalType": "uint256",
          "name": "timestamp",
          "type": "uint256"
        }
      ],
      "name": "TimelockedGovernanceCallCanceled",
      "type": "event"
    },
    {
      "anonymous": false,
      "inputs": [
        {
          "indexed": false,
          "internalType": "bytes4",
          "name": "selector",
          "type": "bytes4"
        },
        {
          "indexed": false,
          "internalType": "uint256",
          "name": "timestamp",
          "type": "uint256"
        }
      ],
      "name": "TimelockedGovernanceCallExecuted",
      "type": "event"
    },
    {
      "inputs": [],
      "name": "activate",
      "outputs": [],
      "stateMutability": "nonpayable",
      "type": "function"
    },
    {
      "inputs": [],
      "name": "active",
      "outputs": [
        {
          "internalType": "bool",
          "name": "",
          "type": "bool"
        }
      ],
      "stateMutability": "view",
      "type": "function"
    },
    {
      "inputs": [
        {
          "internalType": "address",
          "name": "_rewardOwner",
          "type": "address"
        }
      ],
      "name": "allowedClaimRecipients",
      "outputs": [
        {
          "internalType": "address[]",
          "name": "",
          "type": "address[]"
        }
      ],
      "stateMutability": "view",
      "type": "function"
    },
    {
      "inputs": [
        {
          "internalType": "bytes4",
          "name": "_selector",
          "type": "bytes4"
        }
      ],
      "name": "cancelGovernanceCall",
      "outputs": [],
      "stateMutability": "nonpayable",
      "type": "function"
    },
    {
      "inputs": [
        {
          "internalType": "address",
          "name": "_rewardOwner",
          "type": "address"
        },
        {
          "internalType": "address payable",
          "name": "_recipient",
          "type": "address"
        },
        {
          "internalType": "uint256",
          "name": "_rewardAmount",
          "type": "uint256"
        },
        {
          "internalType": "bool",
          "name": "_wrap",
          "type": "bool"
        }
      ],
      "name": "claim",
      "outputs": [],
      "stateMutability": "nonpayable",
      "type": "function"
    },
    {
      "inputs": [
        {
          "internalType": "address",
          "name": "_rewardOwner",
          "type": "address"
        }
      ],
      "name": "claimExecutors",
      "outputs": [
        {
          "internalType": "address[]",
          "name": "",
          "type": "address[]"
        }
      ],
      "stateMutability": "view",
      "type": "function"
    },
    {
      "inputs": [],
      "name": "deactivate",
      "outputs": [],
      "stateMutability": "nonpayable",
      "type": "function"
    },
    {
      "inputs": [
        {
          "internalType": "address[]",
          "name": "_addresses",
          "type": "address[]"
        },
        {
          "internalType": "uint256[]",
          "name": "_rewardAmounts",
          "type": "uint256[]"
        }
      ],
      "name": "distributeRewards",
      "outputs": [],
      "stateMutability": "nonpayable",
      "type": "function"
    },
    {
      "inputs": [
        {
          "internalType": "bytes4",
          "name": "_selector",
          "type": "bytes4"
        }
      ],
      "name": "executeGovernanceCall",
      "outputs": [],
      "stateMutability": "nonpayable",
      "type": "function"
    },
    {
      "inputs": [],
      "name": "getAddressUpdater",
      "outputs": [
        {
          "internalType": "address",
          "name": "_addressUpdater",
          "type": "address"
        }
      ],
      "stateMutability": "view",
      "type": "function"
    },
    {
      "inputs": [],
      "name": "getContractName",
      "outputs": [
        {
          "internalType": "string",
          "name": "",
          "type": "string"
        }
      ],
      "stateMutability": "pure",
      "type": "function"
    },
    {
      "inputs": [],
      "name": "getExpectedBalance",
      "outputs": [
        {
          "internalType": "uint256",
          "name": "",
          "type": "uint256"
        }
      ],
      "stateMutability": "view",
      "type": "function"
    },
    {
      "inputs": [],
      "name": "getInflationAddress",
      "outputs": [
        {
          "internalType": "address",
          "name": "",
          "type": "address"
        }
      ],
      "stateMutability": "view",
      "type": "function"
    },
    {
      "inputs": [
        {
          "internalType": "address",
          "name": "_beneficiary",
          "type": "address"
        }
      ],
      "name": "getStateOfRewards",
      "outputs": [
        {
          "internalType": "uint256",
          "name": "_totalReward",
          "type": "uint256"
        },
        {
          "internalType": "uint256",
          "name": "_claimedReward",
          "type": "uint256"
        }
      ],
      "stateMutability": "view",
      "type": "function"
    },
    {
      "inputs": [],
      "name": "getTokenPoolSupplyData",
      "outputs": [
        {
          "internalType": "uint256",
          "name": "_lockedFundsWei",
          "type": "uint256"
        },
        {
          "internalType": "uint256",
          "name": "_totalInflationAuthorizedWei",
          "type": "uint256"
        },
        {
          "internalType": "uint256",
          "name": "_totalClaimedWei",
          "type": "uint256"
        }
      ],
      "stateMutability": "view",
      "type": "function"
    },
    {
      "inputs": [],
      "name": "getTotals",
      "outputs": [
        {
          "internalType": "uint256",
          "name": "_totalAwardedWei",
          "type": "uint256"
        },
        {
          "internalType": "uint256",
          "name": "_totalClaimedWei",
          "type": "uint256"
        },
        {
          "internalType": "uint256",
          "name": "_totalInflationAuthorizedWei",
          "type": "uint256"
        },
        {
          "internalType": "uint256",
          "name": "_totalInflationReceivedWei",
          "type": "uint256"
        },
        {
          "internalType": "uint256",
          "name": "_lastInflationAuthorizationReceivedTs",
          "type": "uint256"
        },
        {
          "internalType": "uint256",
          "name": "_dailyAuthorizedInflation",
          "type": "uint256"
        }
      ],
      "stateMutability": "view",
      "type": "function"
    },
    {
      "inputs": [],
      "name": "governance",
      "outputs": [
        {
          "internalType": "address",
          "name": "",
          "type": "address"
        }
      ],
      "stateMutability": "view",
      "type": "function"
    },
    {
      "inputs": [],
      "name": "governanceSettings",
      "outputs": [
        {
          "internalType": "contract IGovernanceSettings",
          "name": "",
          "type": "address"
        }
      ],
      "stateMutability": "view",
      "type": "function"
    },
    {
      "inputs": [
        {
          "internalType": "address",
          "name": "_initialGovernance",
          "type": "address"
        }
      ],
      "name": "initialise",
      "outputs": [],
      "stateMutability": "nonpayable",
      "type": "function"
    },
    {
      "inputs": [],
      "name": "newRewardManager",
      "outputs": [
        {
          "internalType": "address",
          "name": "",
          "type": "address"
        }
      ],
      "stateMutability": "view",
      "type": "function"
    },
    {
      "inputs": [],
      "name": "oldRewardManager",
      "outputs": [
        {
          "internalType": "address",
          "name": "",
          "type": "address"
        }
      ],
      "stateMutability": "view",
      "type": "function"
    },
    {
      "inputs": [],
      "name": "productionMode",
      "outputs": [
        {
          "internalType": "bool",
          "name": "",
          "type": "bool"
        }
      ],
      "stateMutability": "view",
      "type": "function"
    },
    {
      "inputs": [],
      "name": "receiveInflation",
      "outputs": [],
      "stateMutability": "payable",
      "type": "function"
    },
    {
      "inputs": [],
      "name": "rewardDistributor",
      "outputs": [
        {
          "internalType": "address",
          "name": "",
          "type": "address"
        }
      ],
      "stateMutability": "view",
      "type": "function"
    },
    {
      "inputs": [
        {
          "internalType": "address[]",
          "name": "_recipients",
          "type": "address[]"
        }
      ],
      "name": "setAllowedClaimRecipients",
      "outputs": [],
      "stateMutability": "nonpayable",
      "type": "function"
    },
    {
      "inputs": [
        {
          "internalType": "address[]",
          "name": "_executors",
          "type": "address[]"
        }
      ],
      "name": "setClaimExecutors",
      "outputs": [],
      "stateMutability": "nonpayable",
      "type": "function"
    },
    {
      "inputs": [
        {
          "internalType": "uint256",
          "name": "_toAuthorizeWei",
          "type": "uint256"
        }
      ],
      "name": "setDailyAuthorizedInflation",
      "outputs": [],
      "stateMutability": "nonpayable",
      "type": "function"
    },
    {
      "inputs": [
        {
          "internalType": "address",
          "name": "_newRewardManager",
          "type": "address"
        }
      ],
      "name": "setNewRewardManager",
      "outputs": [],
      "stateMutability": "nonpayable",
      "type": "function"
    },
    {
      "inputs": [
        {
          "internalType": "address",
          "name": "_rewardDistributor",
          "type": "address"
        }
      ],
      "name": "setRewardDistributor",
      "outputs": [],
      "stateMutability": "nonpayable",
      "type": "function"
    },
    {
      "inputs": [],
      "name": "switchToProductionMode",
      "outputs": [],
      "stateMutability": "nonpayable",
      "type": "function"
    },
    {
      "inputs": [
        {
          "internalType": "bytes4",
          "name": "",
          "type": "bytes4"
        }
      ],
      "name": "timelockedCalls",
      "outputs": [
        {
          "internalType": "uint256",
          "name": "allowedAfterTimestamp",
          "type": "uint256"
        },
        {
          "internalType": "bytes",
          "name": "encodedCall",
          "type": "bytes"
        }
      ],
      "stateMutability": "view",
      "type": "function"
    },
    {
      "inputs": [
        {
          "internalType": "bytes32[]",
          "name": "_contractNameHashes",
          "type": "bytes32[]"
        },
        {
          "internalType": "address[]",
          "name": "_contractAddresses",
          "type": "address[]"
        }
      ],
      "name": "updateContractAddresses",
      "outputs": [],
      "stateMutability": "nonpayable",
      "type": "function"
    },
    {
      "inputs": [],
      "name": "wNat",
      "outputs": [
        {
          "internalType": "contract WNat",
          "name": "",
          "type": "address"
        }
      ],
      "stateMutability": "view",
      "type": "function"
    }
  ],
  "bytecode": "0x60a06040523480156200001157600080fd5b5060405162002cec38038062002cec833981810160405260608110156200003757600080fd5b50805160208201516040909201519091908282828183806001600160a01b0381161562000069576200006981620000e7565b506001600160a01b038116620000b9576040805162461bcd60e51b815260206004820152601060248201526f5f676f7665726e616e6365207a65726f60801b604482015290519081900360640190fd5b506001600255620000ca81620001aa565b5060601b6001600160601b03191660805250620001ce9350505050565b600054600160a01b900460ff161562000147576040805162461bcd60e51b815260206004820152601460248201527f696e697469616c6973656420213d2066616c7365000000000000000000000000604482015290519081900360640190fd5b60008054600160a01b60ff60a01b19909116176001600160a01b0319166001600160a01b03831690811790915560408051918252517f9789733827840833afc031fb2ef9ab6894271f77bad2085687cf4ae5c7bee4db916020908290030190a150565b7f714f205b2abd25bef1d06a1af944e38c113fe6160375c4e1d6d5cf28848e771955565b60805160601c612b00620001ec60003980610f6d5250612b006000f3fe6080604052600436106101ee5760003560e01c80639119c4941161010d578063d2a4ac61116100a0578063ed39d3f81161006f578063ed39d3f814610a3c578063f1367b7f14610a51578063f5a9838314610a9d578063f5f5ba7214610ab2578063fbde354d14610b3c576101ee565b8063d2a4ac611461091c578063dfd14c34146109ca578063e17f212e146109fd578063e273956314610a12576101ee565b8063acc2166a116100dc578063acc2166a14610765578063af04cd3b1461077a578063b00c0b76146107a1578063b2c12192146108d1576101ee565b80639119c4941461063c5780639d6a890f146106ea5780639edbf0071461071d578063a1809b9514610732576101ee565b806351b42b001161018557806362354e031161015457806362354e03146104f857806367fc40291461050d57806374e6310e1461054157806384e10a90146105f4576101ee565b806351b42b00146104855780635267a15d1461049a5780635aa6e675146104af5780635ff27079146104c4576101ee565b80632dafdbbf116101c15780632dafdbbf1461036b57806336300be21461039e5780633f317fe1146103cf578063470ce08714610452576101ee565b806302fb0c5e146101f357806306201f1d1461021c5780630f15f4c014610226578063143ba4f31461023b575b600080fd5b3480156101ff57600080fd5b50610208610b51565b604080519115158252519081900360200190f35b610224610b5a565b005b34801561023257600080fd5b50610224610bba565b34801561024757600080fd5b506102246004803603604081101561025e57600080fd5b810190602081018135600160201b81111561027857600080fd5b82018360208201111561028a57600080fd5b803590602001918460208302840111600160201b831117156102ab57600080fd5b9190808060200260200160405190810160405280939291908181526020018383602002808284376000920191909152509295949360208101935035915050600160201b8111156102fa57600080fd5b82018360208201111561030c57600080fd5b803590602001918460208302840111600160201b8311171561032d57600080fd5b919080806020026020016040519081016040528093929190818152602001838360200280828437600092019190915250929550610c79945050505050565b34801561037757600080fd5b50610380610f60565b60408051938452602084019290925282820152519081900360600190f35b3480156103aa57600080fd5b506103b3610f6b565b604080516001600160a01b039092168252519081900360200190f35b3480156103db57600080fd5b50610402600480360360208110156103f257600080fd5b50356001600160a01b0316610f8f565b60408051602080825283518183015283519192839290830191858101910280838360005b8381101561043e578181015183820152602001610426565b505050509050019250505060405180910390f35b34801561045e57600080fd5b506102246004803603602081101561047557600080fd5b50356001600160a01b0316611005565b34801561049157600080fd5b5061022461111b565b3480156104a657600080fd5b506103b3611162565b3480156104bb57600080fd5b506103b3611187565b3480156104d057600080fd5b50610224600480360360208110156104e757600080fd5b50356001600160e01b03191661121c565b34801561050457600080fd5b506103b3611571565b34801561051957600080fd5b506102246004803603602081101561053057600080fd5b50356001600160e01b03191661157c565b34801561054d57600080fd5b506105756004803603602081101561056457600080fd5b50356001600160e01b031916611664565b6040518083815260200180602001828103825283818151815260200191508051906020019080838360005b838110156105b85781810151838201526020016105a0565b50505050905090810190601f1680156105e55780820380516001836020036101000a031916815260200191505b50935050505060405180910390f35b34801561060057600080fd5b5061060961170a565b604080519687526020870195909552858501939093526060850191909152608084015260a0830152519081900360c00190f35b34801561064857600080fd5b506102246004803603602081101561065f57600080fd5b810190602081018135600160201b81111561067957600080fd5b82018360208201111561068b57600080fd5b803590602001918460208302840111600160201b831117156106ac57600080fd5b919080806020026020016040519081016040528093929190818152602001838360200280828437600092019190915250929550611724945050505050565b3480156106f657600080fd5b506102246004803603602081101561070d57600080fd5b50356001600160a01b03166117c6565b34801561072957600080fd5b506103b361187f565b34801561073e57600080fd5b506102246004803603602081101561075557600080fd5b50356001600160a01b031661188e565b34801561077157600080fd5b506103b36118dd565b34801561078657600080fd5b5061078f6118ec565b60408051918252519081900360200190f35b3480156107ad57600080fd5b50610224600480360360408110156107c457600080fd5b810190602081018135600160201b8111156107de57600080fd5b8201836020820111156107f057600080fd5b803590602001918460208302840111600160201b8311171561081157600080fd5b9190808060200260200160405190810160405280939291908181526020018383602002808284376000920191909152509295949360208101935035915050600160201b81111561086057600080fd5b82018360208201111561087257600080fd5b803590602001918460208302840111600160201b8311171561089357600080fd5b9190808060200260200160405190810160405280939291908181526020018383602002808284376000920191909152509295506118f6945050505050565b3480156108dd57600080fd5b50610224600480360360808110156108f457600080fd5b506001600160a01b0381358116916020810135909116906040810135906060013515156119a1565b34801561092857600080fd5b506102246004803603602081101561093f57600080fd5b810190602081018135600160201b81111561095957600080fd5b82018360208201111561096b57600080fd5b803590602001918460208302840111600160201b8311171561098c57600080fd5b919080806020026020016040519081016040528093929190818152602001838360200280828437600092019190915250929550611a36945050505050565b3480156109d657600080fd5b50610402600480360360208110156109ed57600080fd5b50356001600160a01b0316611ac0565b348015610a0957600080fd5b50610208611b34565b348015610a1e57600080fd5b5061022460048036036020811015610a3557600080fd5b5035611b44565b348015610a4857600080fd5b506103b3611b9b565b348015610a5d57600080fd5b50610a8460048036036020811015610a7457600080fd5b50356001600160a01b0316611baa565b6040805192835260208301919091528051918290030190f35b348015610aa957600080fd5b50610224611bd2565b348015610abe57600080fd5b50610ac7611c8c565b6040805160208082528351818301528351919283929083019185019080838360005b83811015610b01578181015183820152602001610ae9565b50505050905090810190601f168015610b2e5780820380516001836020036101000a031916815260200191505b509250505060405180910390f35b348015610b4857600080fd5b506103b3611cbc565b60035460ff1681565b610b62611ccb565b610b6a611d4a565b600e55600b54610b7a9034611db1565b600b556040805134815290517f95c4e29cc99bc027cfc3cd719d6fd973d5f0317061885fbb322b9b17d8d35d379181900360200190a1610bb8611e12565b565b610bc2611e8f565b6010546001600160a01b031615801590610be657506011546001600160a01b031615155b610c37576040805162461bcd60e51b815260206004820152601a60248201527f636f6e747261637420616464726573736573206e6f7420736574000000000000604482015290519081900360640190fd5b6003805460ff191660011790556040805130815290517f737e471bd254cc455ba135c7ad67820ab7dc993fe0aa02a037fd0cd75d2d653a9181900360200190a1565b610c81611eee565b8151815160408051808201909152601781527f617272617973206c656e67746873206d69736d617463680000000000000000006020820152908214610d445760405162461bcd60e51b81526004018080602001828103825283818151815260200191508051906020019080838360005b83811015610d09578181015183820152602001610cf1565b50505050905090810190601f168015610d365780820380516001836020036101000a031916815260200191505b509250505060405180910390fd5b506000805b82811015610e1b57610daf848281518110610d6057fe5b602002602001015160046000888581518110610d7857fe5b60200260200101516001600160a01b03166001600160a01b0316815260200190815260200160002054611db190919063ffffffff16565b60046000878481518110610dbf57fe5b60200260200101516001600160a01b03166001600160a01b0316815260200190815260200160002081905550610e11848281518110610dfa57fe5b602002602001015183611db190919063ffffffff16565b9150600101610d49565b50600854610e299082611db1565b6008818155600a5460408051808201909152918252670e8dede40daeac6d60c31b602083015290911115610e9e5760405162461bcd60e51b8152602060048201818152835160248401528351909283926044909101919085019080838360008315610d09578181015183820152602001610cf1565b507fe69d325558610ba73c441901deb46d7f251108348dc5dc9447e8866774c12edc8484604051808060200180602001838103835285818151815260200191508051906020019060200280838360005b83811015610f06578181015183820152602001610eee565b50505050905001838103825284818151815260200191508051906020019060200280838360005b83811015610f45578181015183820152602001610f2d565b5050505090500194505050505060405180910390a150505050565b600a54600954600092565b7f000000000000000000000000000000000000000000000000000000000000000081565b6001600160a01b038116600090815260066020908152604091829020805483518184028101840190945280845260609392830182828015610ff957602002820191906000526020600020905b81546001600160a01b03168152600190910190602001808311610fdb575b50505050509050919050565b600054600160b01b900460ff16806110275750600054600160a81b900460ff16155b1561110d57611034611f7c565b6012546001600160a01b031615611092576040805162461bcd60e51b815260206004820152601e60248201527f6e657720726577617264206d616e6167657220616c7265616479207365740000604482015290519081900360640190fd5b6001600160a01b0381166110ed576040805162461bcd60e51b815260206004820152601760248201527f6e657720726577617264206d616e61676572207a65726f000000000000000000604482015290519081900360640190fd5b601280546001600160a01b0319166001600160a01b038316179055611118565b611118600036611fb1565b50565b611123611e8f565b6003805460ff191690556040805130815290517fa2d2a6acb907bb897be972c8e6757c1bcffccc171055a61c54c7fa947c4918509181900360200190a1565b7f714f205b2abd25bef1d06a1af944e38c113fe6160375c4e1d6d5cf28848e77195490565b60008054600160a81b900460ff166111aa576000546001600160a01b0316611217565b60076001609c1b016001600160a01b031663732524946040518163ffffffff1660e01b815260040160206040518083038186803b1580156111ea57600080fd5b505afa1580156111fe573d6000803e3d6000fd5b505050506040513d602081101561121457600080fd5b50515b905090565b60408051630debfda360e41b8152336004820152905160076001609c1b019163debfda30916024808301926020929190829003018186803b15801561126057600080fd5b505afa158015611274573d6000803e3d6000fd5b505050506040513d602081101561128a57600080fd5b50516112cd576040805162461bcd60e51b815260206004820152600d60248201526c37b7363c9032bc32b1baba37b960991b604482015290519081900360640190fd5b6001600160e01b0319811660009081526001602052604090208054611339576040805162461bcd60e51b815260206004820152601a60248201527f74696d656c6f636b3a20696e76616c69642073656c6563746f72000000000000604482015290519081900360640190fd5b805442101561138f576040805162461bcd60e51b815260206004820152601960248201527f74696d656c6f636b3a206e6f7420616c6c6f7765642079657400000000000000604482015290519081900360640190fd5b6000816001018054600181600116156101000203166002900480601f0160208091040260200160405190810160405280929190818152602001828054600181600116156101000203166002900480156114295780601f106113fe57610100808354040283529160200191611429565b820191906000526020600020905b81548152906001019060200180831161140c57829003601f168201915b5050506001600160e01b031986166000908152600160208190526040822082815594955090925061145d91508301826129ed565b50506000805460ff60b01b1916600160b01b178155604051825130918491819060208401908083835b602083106114a55780518252601f199092019160209182019101611486565b6001836020036101000a0380198251168184511680821785525050505050509050019150506000604051808303816000865af19150503d8060008114611507576040519150601f19603f3d011682016040523d82523d6000602084013e61150c565b606091505b50506000805460ff60b01b19169055604080516001600160e01b03198716815242602082015281519293507fa7326b57fc9cfe267aaea5e7f0b01757154d265620a0585819416ee9ddd2c438929081900390910190a161156b81612134565b50505050565b60076001609c1b0181565b611584611e8f565b6001600160e01b031981166000908152600160205260409020546115ef576040805162461bcd60e51b815260206004820152601a60248201527f74696d656c6f636b3a20696e76616c69642073656c6563746f72000000000000604482015290519081900360640190fd5b604080516001600160e01b03198316815242602082015281517f7735b2391c38a81419c513e30ca578db7158eadd7101511b23e221c654d19cf8929181900390910190a16001600160e01b0319811660009081526001602081905260408220828155919061165f908301826129ed565b505050565b600160208181526000928352604092839020805481840180548651600296821615610100026000190190911695909504601f810185900485028601850190965285855290949193929091908301828280156117005780601f106116d557610100808354040283529160200191611700565b820191906000526020600020905b8154815290600101906020018083116116e357829003601f168201915b5050505050905082565b600854600954600a54600b54600c54600d54909192939495565b33600090815260066020526040902061173d9082612151565b7fa802dcd9d0db82c5fc0b043e16d9ab77391cff1b84415bce9e95c4a8d6fe7146338260405180836001600160a01b0316815260200180602001828103825283818151815260200191508051906020019060200280838360005b838110156117af578181015183820152602001611797565b50505050905001935050505060405180910390a150565b600054600160a01b900460ff161561181c576040805162461bcd60e51b8152602060048201526014602482015273696e697469616c6973656420213d2066616c736560601b604482015290519081900360640190fd5b60008054600160a01b60ff60a01b19909116176001600160a01b0319166001600160a01b03831690811790915560408051918252517f9789733827840833afc031fb2ef9ab6894271f77bad2085687cf4ae5c7bee4db916020908290030190a150565b6011546001600160a01b031681565b600054600160b01b900460ff16806118b05750600054600160a81b900460ff16155b1561110d576118bd611f7c565b600f80546001600160a01b0319166001600160a01b038316179055611118565b600f546001600160a01b031681565b6000611217612164565b6118fe611162565b6001600160a01b0316336001600160a01b03161461195a576040805162461bcd60e51b815260206004820152601460248201527337b7363c9030b2323932b9b9903ab83230ba32b960611b604482015290519081900360640190fd5b61199361198e83836040518060400160405280600e81526020016d20b2323932b9b9aab83230ba32b960911b81525061217d565b6122aa565b61199d82826122ce565b5050565b6119a961236b565b600280541415611a00576040805162461bcd60e51b815260206004820152601f60248201527f5265656e7472616e637947756172643a207265656e7472616e742063616c6c00604482015290519081900360640190fd5b6002805583611a0e816123f1565b8484611a1a82826124a8565b611a268787878761257d565b505060016002555061156b611e12565b336000908152600760205260409020611a4f9082612151565b7ff650948f1320658fded6be6217b1fe9963894116bc6b3dbc9b1c2cc8cf2cb11f338260405180836001600160a01b031681526020018060200182810382528381815181526020019150805190602001906020028083836000838110156117af578181015183820152602001611797565b6001600160a01b038116600090815260076020908152604091829020805483518184028101840190945280845260609392830182828015610ff9576020028201919060005260206000209081546001600160a01b03168152600190910190602001808311610fdb5750505050509050919050565b600054600160a81b900460ff1681565b611b4c611ccb565b600d819055600a54611b5e9082611db1565b600a5542600c556040805182815290517f187f32a0f765499f15b3bb52ed0aebf6015059f230f2ace7e701e60a476695959181900360200190a150565b6010546001600160a01b031690565b6001600160a01b03166000908152600460209081526040808320546005909252909120549091565b611bda611e8f565b600054600160a81b900460ff1615611c39576040805162461bcd60e51b815260206004820152601a60248201527f616c726561647920696e2070726f64756374696f6e206d6f6465000000000000604482015290519081900360640190fd5b60008054600161ff0160a01b031916600160a81b1790556040805160076001609c1b01815290517f83af113638b5422f9e977cebc0aaf0eaf2188eb9a8baae7f9d46c42b33a1560c9181900360200190a1565b6040805180820190915260168152752b30b634b230ba37b92932bbb0b93226b0b730b3b2b960511b602082015290565b6012546001600160a01b031681565b60105460408051808201909152600e81526d696e666c6174696f6e206f6e6c7960901b6020820152906001600160a01b031633146111185760405162461bcd60e51b8152602060048201818152835160248401528351909283926044909101919085019080838360008315610d09578181015183820152602001610cf1565b600e54600090611d5a9034611db1565b90504781811115611da35761dead6108fc611d75838561273e565b6040518115909202916000818181858888f19350505050158015611d9d573d6000803e3d6000fd5b50611dad565b81811015611dad57fe5b5090565b600082820183811015611e0b576040805162461bcd60e51b815260206004820152601b60248201527f536166654d6174683a206164646974696f6e206f766572666c6f770000000000604482015290519081900360640190fd5b9392505050565b611e1a612164565b47146040518060400160405280600e81526020016d6f7574206f662062616c616e636560901b815250906111185760405162461bcd60e51b8152602060048201818152835160248401528351909283926044909101919085019080838360008315610d09578181015183820152602001610cf1565b611e97611187565b6001600160a01b0316336001600160a01b031614610bb8576040805162461bcd60e51b815260206004820152600f60248201526e6f6e6c7920676f7665726e616e636560881b604482015290519081900360640190fd5b600f5460408051808201909152601781527f726577617264206469737472696275746f72206f6e6c790000000000000000006020820152906001600160a01b031633146111185760405162461bcd60e51b8152602060048201818152835160248401528351909283926044909101919085019080838360008315610d09578181015183820152602001610cf1565b600054600160b01b900460ff1615611fa957333014611f9757fe5b6000805460ff60b01b19169055610bb8565b610bb8611e8f565b611fb9611e8f565b600082359050600060076001609c1b016001600160a01b0316636221a54b6040518163ffffffff1660e01b815260040160206040518083038186803b15801561200157600080fd5b505afa158015612015573d6000803e3d6000fd5b505050506040513d602081101561202b57600080fd5b505160408051808201825242830180825282516020601f89018190048102820181019094528781529394509290918281019190889088908190840183828082843760009201829052509390945250506001600160e01b031986168152600160208181526040909220845181558483015180519194506120af93928501920190612a31565b509050507fed948300a3694aa01d4a6b258bfd664350193d770c0b51f8387277f6d83ea3b68382878760405180856001600160e01b0319168152602001848152602001806020018281038252848482818152602001925080828437600083820152604051601f909101601f191690920182900397509095505050505050a15050505050565b3d604051818101604052816000823e821561214d578181f35b8181fd5b61215a8261279b565b61199d8282612813565b6000611217600954600b5461273e90919063ffffffff16565b600080826040516020018080602001828103825283818151815260200191508051906020019080838360005b838110156121c15781810151838201526020016121a9565b50505050905090810190601f1680156121ee5780820380516001836020036101000a031916815260200191505b50925050506040516020818303038152906040528051906020012090506000805b86518110156122565786818151811061222457fe5b602002602001015183141561224e5785818151811061223f57fe5b60200260200101519150612256565b60010161220f565b506001600160a01b0381166122a1576040805162461bcd60e51b815260206004820152600c60248201526b61646472657373207a65726f60a01b604482015290519081900360640190fd5b95945050505050565b7f714f205b2abd25bef1d06a1af944e38c113fe6160375c4e1d6d5cf28848e771955565b6122fa82826040518060400160405280600981526020016824b7333630ba34b7b760b91b81525061217d565b601060006101000a8154816001600160a01b0302191690836001600160a01b0316021790555061234782826040518060400160405280600481526020016315d3985d60e21b81525061217d565b601180546001600160a01b0319166001600160a01b03929092169190911790555050565b60035460408051808201909152601a81527f726577617264206d616e6167657220646561637469766174656400000000000060208201529060ff166111185760405162461bcd60e51b8152602060048201818152835160248401528351909283926044909101919085019080838360008315610d09578181015183820152602001610cf1565b6001600160a01b03811633148061242d57506001600160a01b038116600090815260066020908152604080832033845260010190915290205415155b6040518060400160405280601681526020017537b7363c9037bbb732b91037b91032bc32b1baba37b960511b8152509061199d5760405162461bcd60e51b8152602060048201818152835160248401528351909283926044909101919085019080838360008315610d09578181015183820152602001610cf1565b336001600160a01b03831614806124d05750816001600160a01b0316816001600160a01b0316145b8061250357506001600160a01b038083166000908152600760209081526040808320938516835260019093019052205415155b604051806040016040528060158152602001741c9958da5c1a595b9d081b9bdd08185b1b1bddd959605a1b8152509061165f5760405162461bcd60e51b8152602060048201818152835160248401528351909283926044909101919085019080838360008315610d09578181015183820152602001610cf1565b60408051808201909152600e81526d726563697069656e74207a65726f60901b60208201526001600160a01b0384166125f75760405162461bcd60e51b8152602060048201818152835160248401528351909283926044909101919085019080838360008315610d09578181015183820152602001610cf1565b50612600611d4a565b506001600160a01b0384166000908152600560205260409020546126249083611db1565b6001600160a01b0385166000908152600560208181526040808420859055600482529283902054918152825180840190935260088352670e8dede40daeac6d60c31b90830152909111156126b95760405162461bcd60e51b8152602060048201818152835160248401528351909283926044909101919085019080838360008315610d09578181015183820152602001610cf1565b506009546126c79083611db1565b60095580156126df576126da8383612844565b6126e9565b6126e983836128b8565b826001600160a01b0316846001600160a01b03167f0aa4d283470c904c551d18bb894d37e17674920f3261a7f854be501e25f421b7846040518082815260200191505060405180910390a3505047600e555050565b600082821115612795576040805162461bcd60e51b815260206004820152601e60248201527f536166654d6174683a207375627472616374696f6e206f766572666c6f770000604482015290519081900360640190fd5b50900390565b8054156111185780546001820190600090839060001981019081106127bc57fe5b60009182526020808320909101546001600160a01b0316835282019290925260400181205580548190806127ec57fe5b600082815260209020810160001990810180546001600160a01b031916905501905561279b565b60005b815181101561165f5761283c8383838151811061282f57fe5b6020026020010151612984565b600101612816565b801561199d576011546040805163b760faf960e01b81526001600160a01b0385811660048301529151919092169163b760faf991849160248082019260009290919082900301818588803b15801561289b57600080fd5b505af11580156128af573d6000803e3d6000fd5b50505050505050565b801561199d576040516000906001600160a01b0384169083908381818185875af1925050503d8060008114612909576040519150601f19603f3d011682016040523d82523d6000602084013e61290e565b606091505b50509050806040518060400160405280600c81526020016b18db185a5b4819985a5b195960a21b8152509061156b5760405162461bcd60e51b8152602060048201818152835160248401528351909283926044909101919085019080838360008315610d09578181015183820152602001610cf1565b6001600160a01b0381166000908152600183016020526040902054156129a95761199d565b8154600180820184556000848152602080822090930180546001600160a01b0319166001600160a01b03959095169485179055845493815293019052604090912055565b50805460018160011615610100020316600290046000825580601f10612a135750611118565b601f0160209004906000526020600020908101906111189190612ab5565b828054600181600116156101000203166002900490600052602060002090601f016020900481019282612a675760008555612aad565b82601f10612a8057805160ff1916838001178555612aad565b82800160010185558215612aad579182015b82811115612aad578251825591602001919060010190612a92565b50611dad9291505b5b80821115611dad5760008155600101612ab656fea264697066735822122060ffe79cbe4b6090b2ad11cabe51e030c058335ffb5d81f00a0ede43e47b538c64736f6c63430007060033",
  "linkReferences": {},
  "deployedLinkReferences": {}
}