{
  "_format": "hh-sol-artifact-1",
  "contractName": "AddressBinder",
  "sourceName": "contracts/staking/implementation/AddressBinder.sol",
  "abi": [
    {
      "anonymous": false,
      "inputs": [
        {
          "indexed": false,
          "internalType": "bytes",
          "name": "publicKey",
          "type": "bytes"
        },
        {
          "indexed": false,
          "internalType": "bytes20",
          "name": "pAddress",
          "type": "bytes20"
        },
        {
          "indexed": false,
          "internalType": "address",
          "name": "cAddress",
          "type": "address"
        }
      ],
      "name": "AddressesRegistered",
      "type": "event"
    },
    {
      "inputs": [
        {
          "internalType": "address",
          "name": "",
          "type": "address"
        }
      ],
      "name": "cAddressToPAddress",
      "outputs": [
        {
          "internalType": "bytes20",
          "name": "",
          "type": "bytes20"
        }
      ],
      "stateMutability": "view",
      "type": "function"
    },
    {
      "inputs": [
        {
          "internalType": "bytes20",
          "name": "",
          "type": "bytes20"
        }
      ],
      "name": "pAddressToCAddress",
      "outputs": [
        {
          "internalType": "address",
          "name": "",
          "type": "address"
        }
      ],
      "stateMutability": "view",
      "type": "function"
    },
    {
      "inputs": [
        {
          "internalType": "bytes",
          "name": "_publicKey",
          "type": "bytes"
        },
        {
          "internalType": "bytes20",
          "name": "_pAddress",
          "type": "bytes20"
        },
        {
          "internalType": "address",
          "name": "_cAddress",
          "type": "address"
        }
      ],
      "name": "registerAddresses",
      "outputs": [],
      "stateMutability": "nonpayable",
      "type": "function"
    },
    {
      "inputs": [
        {
          "internalType": "bytes",
          "name": "_publicKey",
          "type": "bytes"
        }
      ],
      "name": "registerPublicKey",
      "outputs": [
        {
          "internalType": "bytes20",
          "name": "_pAddress",
          "type": "bytes20"
        },
        {
          "internalType": "address",
          "name": "_cAddress",
          "type": "address"
        }
      ],
      "stateMutability": "nonpayable",
      "type": "function"
    }
  ],
  "bytecode": "0x608060405234801561001057600080fd5b50610cdb806100206000396000f3fe608060405234801561001057600080fd5b506004361061004c5760003560e01c8063373e6999146100515780635b75d79c14610094578063856235941461011f578063e82199ad146101bb575b600080fd5b6100786004803603602081101561006757600080fd5b50356001600160601b0319166101fe565b604080516001600160a01b039092168252519081900360200190f35b61011d600480360360608110156100aa57600080fd5b8101906020810181356401000000008111156100c557600080fd5b8201836020820111156100d757600080fd5b803590602001918460018302840111640100000000831117156100f957600080fd5b919350915080356001600160601b03191690602001356001600160a01b0316610219565b005b61018f6004803603602081101561013557600080fd5b81019060208101813564010000000081111561015057600080fd5b82018360208201111561016257600080fd5b8035906020019184600183028401116401000000008311171561018457600080fd5b50909250905061038b565b604080516001600160601b031990931683526001600160a01b0390911660208301528051918290030190f35b6101e1600480360360208110156101d157600080fd5b50356001600160a01b031661046d565b604080516001600160601b03199092168252519081900360200190f35b6000602081905290815260409020546001600160a01b031681565b6102238484610482565b6001600160601b031983811691161461026d5760405162461bcd60e51b8152600401808060200182810382526028815260200180610c7e6028913960400191505060405180910390fd5b6102778484610636565b6001600160a01b0316816001600160a01b0316146102c65760405162461bcd60e51b8152600401808060200182810382526028815260200180610c566028913960400191505060405180910390fd5b6001600160601b0319821660008181526020818152604080832080546001600160a01b0387166001600160a01b0319918216811790925581855260018452938290208054606089811c9190961617905581519283019490945281019290925280825281018490527f5438d74d11fdde1d4f54295fb3e6c454489914c68bb311c255399c3328ae30829085908590859085908060808101868680828437600083820152604051601f909101601f191690920182900397509095505050505050a150505050565b6000806103988484610482565b91506103a48484610636565b6001600160601b0319831660008181526020818152604080832080546001600160a01b0387166001600160a01b031991821681179092558185526001845293829020805460608a811c9190961617905581519283019490945281019290925280825281018590529091507f5438d74d11fdde1d4f54295fb3e6c454489914c68bb311c255399c3328ae30829085908590859085908060808101868680828437600083820152604051601f909101601f191690920182900397509095505050505050a19250929050565b60016020526000908152604090205460601b81565b600080600061049185856106c2565b9150915060006104a18383610a02565b905060006002826040516020018082805190602001908083835b602083106104da5780518252601f1990920191602091820191016104bb565b6001836020036101000a0380198251168184511680821785525050505050509050019150506040516020818303038152906040526040518082805190602001908083835b6020831061053d5780518252601f19909201916020918201910161051e565b51815160209384036101000a60001901801990921691161790526040519190930194509192505080830381855afa15801561057c573d6000803e3d6000fd5b5050506040513d602081101561059157600080fd5b505160408051602081810184905282518083038201815291830192839052815193945060039391929182918401908083835b602083106105e25780518252601f1990920191602091820191016105c3565b51815160209384036101000a60001901801990921691161790526040519190930194509192505080830381855afa158015610621573d6000803e3d6000fd5b50506040515160601b98975050505050505050565b600080600061064585856106c2565b91509150600060405180604001604052808481526020018381525090506000816040516020018082600260200280838360005b83811015610690578181015183820152602001610678565b505050509050019150506040516020818303038152906040528051906020012090508060001c94505050505092915050565b6000806000848460008181106106d457fe5b909101356001600160f81b031916915050604084141561079057600061072f86868080601f01602080910402602001604051908101604052809392919081815260200183838082843760009201829052509250610a3c915050565b60001c9050600061077887878080601f01602080910402602001604051908101604052809392919081815260200183838082843760009201919091525060209250610a3c915050565b90506107848282610a98565b90935091506109fb9050565b6041841480156107ad57506001600160f81b03198116600160fa1b145b1561083f5760006107f686868080601f01602080910402602001604051908101604052809392919081815260200183838082843760009201919091525060019250610a3c915050565b60001c9050600061077887878080601f01602080910402602001604051908101604052809392919081815260200183838082843760009201919091525060219250610a3c915050565b60218414156109ae57600061088c86868080601f01602080910402602001604051908101604052809392919081815260200183838082843760009201919091525060019250610a3c915050565b905060006401000003d01980838409830960070190506401000003d019821080156108b75750600082115b80156108d657506108d28160026401000003d1195b04610b44565b6001145b61091c576040805162461bcd60e51b8152602060048201526012602482015271696e76616c6964207075626c6963206b657960701b604482015290519081900360640190fd5b60006109308260046401000003cf196108cc565b90506001600160f81b03198416600160f91b141561096f5782600282061561096057816401000003d01903610962565b815b95509550505050506109fb565b6001600160f81b03198416600360f81b14156109aa578260028206156109955781610962565b95506401000003d0190393506109fb92505050565b5050505b6040805162461bcd60e51b815260206004820152601a60248201527f77726f6e6720666f726d6174206f66207075626c6963206b6579000000000000604482015290519081900360640190fd5b9250929050565b6060610a35610a146002840615610b94565b60408051602080820188905282518083039091018152908201909152610bd8565b9392505050565b60008160200183511015610a8f576040805162461bcd60e51b8152602060048201526015602482015274746f427974657333325f6f75744f66426f756e647360581b604482015290519081900360640190fd5b50016020015190565b6401000003d01982108015610aad5750600082115b8015610abe57506401000003d01981105b8015610aca5750600081115b8015610afa57506401000003d01960076401000003d019846401000003d01986870909086401000003d019828309145b610b40576040805162461bcd60e51b8152602060048201526012602482015271696e76616c6964207075626c6963206b657960701b604482015290519081900360640190fd5b5050565b60006040516020810160208152602080820152602060408201528460608201528360808201526401000003d01960a082015260208260c0836005600019fa610b8b57600080fd5b50519392505050565b606081610ba557600360f81b610bab565b600160f91b5b604080516001600160f81b0319909216602083015280518083036001018152602190920190529050919050565b6060806040519050835180825260208201818101602087015b81831015610c09578051835260209283019201610bf1565b50855184518101855292509050808201602086015b81831015610c36578051835260209283019201610c1e565b508651929092011591909101601f01601f19166040525090509291505056fe6320636861696e206164647265737320646f65736e2774206d61746368207075626c6963206b65797020636861696e206164647265737320646f65736e2774206d61746368207075626c6963206b6579a26469706673582212202ddd22f79ed9ba188da406fc764f3e6caff5993fbd26a055deb052ef2fddd49b64736f6c63430007060033",
  "linkReferences": {},
  "deployedLinkReferences": {}
}