{
  "_format": "hh-sol-artifact-1",
  "contractName": "AddressBinder",
  "sourceName": "contracts/staking/implementation/AddressBinder.sol",
  "abi": [
    {
      "anonymous": false,
      "inputs": [
        {
          "indexed": false,
          "internalType": "bytes",
          "name": "publicKey",
          "type": "bytes"
        },
        {
          "indexed": false,
          "internalType": "bytes20",
          "name": "pAddress",
          "type": "bytes20"
        },
        {
          "indexed": false,
          "internalType": "address",
          "name": "cAddress",
          "type": "address"
        }
      ],
      "name": "AddressesRegistered",
      "type": "event"
    },
    {
      "inputs": [
        {
          "internalType": "address",
          "name": "",
          "type": "address"
        }
      ],
      "name": "cAddressToPAddress",
      "outputs": [
        {
          "internalType": "bytes20",
          "name": "",
          "type": "bytes20"
        }
      ],
      "stateMutability": "view",
      "type": "function"
    },
    {
      "inputs": [
        {
          "internalType": "bytes20",
          "name": "",
          "type": "bytes20"
        }
      ],
      "name": "pAddressToCAddress",
      "outputs": [
        {
          "internalType": "address",
          "name": "",
          "type": "address"
        }
      ],
      "stateMutability": "view",
      "type": "function"
    },
    {
      "inputs": [
        {
          "internalType": "bytes",
          "name": "_publicKey",
          "type": "bytes"
        },
        {
          "internalType": "bytes20",
          "name": "_pAddress",
          "type": "bytes20"
        },
        {
          "internalType": "address",
          "name": "_cAddress",
          "type": "address"
        }
      ],
      "name": "registerAddresses",
      "outputs": [],
      "stateMutability": "nonpayable",
      "type": "function"
    }
  ],
  "bytecode": "0x608060405234801561001057600080fd5b50610a02806100206000396000f3fe608060405234801561001057600080fd5b50600436106100415760003560e01c8063373e6999146100465780635b75d79c14610089578063e82199ad14610114575b600080fd5b61006d6004803603602081101561005c57600080fd5b50356001600160601b031916610157565b604080516001600160a01b039092168252519081900360200190f35b6101126004803603606081101561009f57600080fd5b8101906020810181356401000000008111156100ba57600080fd5b8201836020820111156100cc57600080fd5b803590602001918460018302840111640100000000831117156100ee57600080fd5b919350915080356001600160601b03191690602001356001600160a01b0316610172565b005b61013a6004803603602081101561012a57600080fd5b50356001600160a01b03166102e4565b604080516001600160601b03199092168252519081900360200190f35b6000602081905290815260409020546001600160a01b031681565b61017c84846102f9565b6001600160601b03198381169116146101c65760405162461bcd60e51b81526004018080602001828103825260288152602001806109a56028913960400191505060405180910390fd5b6101d084846104ad565b6001600160a01b0316816001600160a01b03161461021f5760405162461bcd60e51b815260040180806020018281038252602881526020018061097d6028913960400191505060405180910390fd5b6001600160601b0319821660008181526020818152604080832080546001600160a01b0387166001600160a01b0319918216811790925581855260018452938290208054606089811c9190961617905581519283019490945281019290925280825281018490527f5438d74d11fdde1d4f54295fb3e6c454489914c68bb311c255399c3328ae30829085908590859085908060808101868680828437600083820152604051601f909101601f191690920182900397509095505050505050a150505050565b60016020526000908152604090205460601b81565b60008060006103088585610539565b91509150600061031883836107df565b905060006002826040516020018082805190602001908083835b602083106103515780518252601f199092019160209182019101610332565b6001836020036101000a0380198251168184511680821785525050505050509050019150506040516020818303038152906040526040518082805190602001908083835b602083106103b45780518252601f199092019160209182019101610395565b51815160209384036101000a60001901801990921691161790526040519190930194509192505080830381855afa1580156103f3573d6000803e3d6000fd5b5050506040513d602081101561040857600080fd5b505160408051602081810184905282518083038201815291830192839052815193945060039391929182918401908083835b602083106104595780518252601f19909201916020918201910161043a565b51815160209384036101000a60001901801990921691161790526040519190930194509192505080830381855afa158015610498573d6000803e3d6000fd5b50506040515160601b98975050505050505050565b60008060006104bc8585610539565b91509150600060405180604001604052808481526020018381525090506000816040516020018082600260200280838360005b838110156105075781810151838201526020016104ef565b505050509050019150506040516020818303038152906040528051906020012090508060001c94505050505092915050565b60008060008484600081811061054b57fe5b909101356001600160f81b03191691505060408414156105f1576105a485858080601f01602080910402602001604051908101604052809392919081815260200183838082843760009201829052509250610819915050565b604080516020601f88018190048102820181019092528681526105e491889088908190840183828082843760009201919091525060209250610819915050565b60001c92509250506107d8565b60418414801561060e57506001600160f81b03198116600160fa1b145b156106955761065585858080601f01602080910402602001604051908101604052809392919081815260200183838082843760009201919091525060019250610819915050565b604080516020601f88018190048102820181019092528681526105e491889088908190840183828082843760009201919091525060219250610819915050565b602184141561078b5760006106e286868080601f01602080910402602001604051908101604052809392919081815260200183838082843760009201919091525060019250610819915050565b905060006107106401000003d01980848509840960070163400000f4600160fe1b036401000003d019610875565b90506001600160f81b03198316600160f91b141561074e5781600282061561074057816401000003d01903610742565b815b945094505050506107d8565b6001600160f81b03198316600360f81b1415610788578160028206156107745781610742565b94506401000003d0190392506107d8915050565b50505b6040805162461bcd60e51b815260206004820152601a60248201527f77726f6e6720666f726d6174206f66207075626c6963206b6579000000000000604482015290519081900360640190fd5b9250929050565b60606108126107f160028406156108bb565b604080516020808201889052825180830390910181529082019091526108ff565b9392505050565b6000816020018351101561086c576040805162461bcd60e51b8152602060048201526015602482015274746f427974657333325f6f75744f66426f756e647360581b604482015290519081900360640190fd5b50016020015190565b600060015b83156108b357836001166001141561089a57828061089457fe5b85820990505b82806108a257fe5b8586099450600184901c935061087a565b949350505050565b6060816108cc57600360f81b6108d2565b600160f91b5b604080516001600160f81b0319909216602083015280518083036001018152602190920190529050919050565b6060806040519050835180825260208201818101602087015b81831015610930578051835260209283019201610918565b50855184518101855292509050808201602086015b8183101561095d578051835260209283019201610945565b508651929092011591909101601f01601f19166040525090509291505056fe6320636861696e206164647265737320646f65736e2774206d61746368207075626c6963206b65797020636861696e206164647265737320646f65736e2774206d61746368207075626c6963206b6579a2646970667358221220f6eba7e68139bb99440722d29be2b579585945d36430aeceff1b3c489f0a945f64736f6c63430007060033",
  "linkReferences": {},
  "deployedLinkReferences": {}
}