{
  "_format": "hh-sol-artifact-1",
  "contractName": "AddressBinder",
  "sourceName": "contracts/staking/implementation/AddressBinder.sol",
  "abi": [
    {
      "anonymous": false,
      "inputs": [
        {
          "indexed": false,
          "internalType": "bytes",
          "name": "publicKey",
          "type": "bytes"
        },
        {
          "indexed": false,
          "internalType": "bytes20",
          "name": "pAddress",
          "type": "bytes20"
        },
        {
          "indexed": false,
          "internalType": "address",
          "name": "cAddress",
          "type": "address"
        }
      ],
      "name": "AddressesRegistered",
      "type": "event"
    },
    {
      "inputs": [
        {
          "internalType": "address",
          "name": "",
          "type": "address"
        }
      ],
      "name": "cAddressToPAddress",
      "outputs": [
        {
          "internalType": "bytes20",
          "name": "",
          "type": "bytes20"
        }
      ],
      "stateMutability": "view",
      "type": "function"
    },
    {
      "inputs": [
        {
          "internalType": "bytes20",
          "name": "",
          "type": "bytes20"
        }
      ],
      "name": "pAddressToCAddress",
      "outputs": [
        {
          "internalType": "address",
          "name": "",
          "type": "address"
        }
      ],
      "stateMutability": "view",
      "type": "function"
    },
    {
      "inputs": [
        {
          "internalType": "bytes",
          "name": "_publicKey",
          "type": "bytes"
        },
        {
          "internalType": "bytes20",
          "name": "_pAddress",
          "type": "bytes20"
        },
        {
          "internalType": "address",
          "name": "_cAddress",
          "type": "address"
        }
      ],
      "name": "registerAddresses",
      "outputs": [],
      "stateMutability": "nonpayable",
      "type": "function"
    },
    {
      "inputs": [
        {
          "internalType": "bytes",
          "name": "_publicKey",
          "type": "bytes"
        }
      ],
      "name": "registerPublicKey",
      "outputs": [
        {
          "internalType": "bytes20",
          "name": "_pAddress",
          "type": "bytes20"
        },
        {
          "internalType": "address",
          "name": "_cAddress",
          "type": "address"
        }
      ],
      "stateMutability": "nonpayable",
      "type": "function"
    }
  ],
  "bytecode": "0x608060405234801561001057600080fd5b50610b8b806100206000396000f3fe608060405234801561001057600080fd5b506004361061004c5760003560e01c8063373e6999146100515780635b75d79c14610094578063856235941461011f578063e82199ad146101bb575b600080fd5b6100786004803603602081101561006757600080fd5b50356001600160601b0319166101fe565b604080516001600160a01b039092168252519081900360200190f35b61011d600480360360608110156100aa57600080fd5b8101906020810181356401000000008111156100c557600080fd5b8201836020820111156100d757600080fd5b803590602001918460018302840111640100000000831117156100f957600080fd5b919350915080356001600160601b03191690602001356001600160a01b0316610219565b005b61018f6004803603602081101561013557600080fd5b81019060208101813564010000000081111561015057600080fd5b82018360208201111561016257600080fd5b8035906020019184600183028401116401000000008311171561018457600080fd5b50909250905061038b565b604080516001600160601b031990931683526001600160a01b0390911660208301528051918290030190f35b6101e1600480360360208110156101d157600080fd5b50356001600160a01b031661046d565b604080516001600160601b03199092168252519081900360200190f35b6000602081905290815260409020546001600160a01b031681565b6102238484610482565b6001600160601b031983811691161461026d5760405162461bcd60e51b8152600401808060200182810382526028815260200180610b2e6028913960400191505060405180910390fd5b6102778484610636565b6001600160a01b0316816001600160a01b0316146102c65760405162461bcd60e51b8152600401808060200182810382526028815260200180610b066028913960400191505060405180910390fd5b6001600160601b0319821660008181526020818152604080832080546001600160a01b0387166001600160a01b0319918216811790925581855260018452938290208054606089811c9190961617905581519283019490945281019290925280825281018490527f5438d74d11fdde1d4f54295fb3e6c454489914c68bb311c255399c3328ae30829085908590859085908060808101868680828437600083820152604051601f909101601f191690920182900397509095505050505050a150505050565b6000806103988484610482565b91506103a48484610636565b6001600160601b0319831660008181526020818152604080832080546001600160a01b0387166001600160a01b031991821681179092558185526001845293829020805460608a811c9190961617905581519283019490945281019290925280825281018590529091507f5438d74d11fdde1d4f54295fb3e6c454489914c68bb311c255399c3328ae30829085908590859085908060808101868680828437600083820152604051601f909101601f191690920182900397509095505050505050a19250929050565b60016020526000908152604090205460601b81565b600080600061049185856106c2565b9150915060006104a18383610968565b905060006002826040516020018082805190602001908083835b602083106104da5780518252601f1990920191602091820191016104bb565b6001836020036101000a0380198251168184511680821785525050505050509050019150506040516020818303038152906040526040518082805190602001908083835b6020831061053d5780518252601f19909201916020918201910161051e565b51815160209384036101000a60001901801990921691161790526040519190930194509192505080830381855afa15801561057c573d6000803e3d6000fd5b5050506040513d602081101561059157600080fd5b505160408051602081810184905282518083038201815291830192839052815193945060039391929182918401908083835b602083106105e25780518252601f1990920191602091820191016105c3565b51815160209384036101000a60001901801990921691161790526040519190930194509192505080830381855afa158015610621573d6000803e3d6000fd5b50506040515160601b98975050505050505050565b600080600061064585856106c2565b91509150600060405180604001604052808481526020018381525090506000816040516020018082600260200280838360005b83811015610690578181015183820152602001610678565b505050509050019150506040516020818303038152906040528051906020012090508060001c94505050505092915050565b6000806000848460008181106106d457fe5b909101356001600160f81b031916915050604084141561077a5761072d85858080601f016020809104026020016040519081016040528093929190818152602001838380828437600092018290525092506109a2915050565b604080516020601f880181900481028201810190925286815261076d918890889081908401838280828437600092019190915250602092506109a2915050565b60001c9250925050610961565b60418414801561079757506001600160f81b03198116600160fa1b145b1561081e576107de85858080601f016020809104026020016040519081016040528093929190818152602001838380828437600092019190915250600192506109a2915050565b604080516020601f880181900481028201810190925286815261076d918890889081908401838280828437600092019190915250602192506109a2915050565b602184141561091457600061086b86868080601f016020809104026020016040519081016040528093929190818152602001838380828437600092019190915250600192506109a2915050565b905060006108996401000003d01980848509840960070163400000f4600160fe1b036401000003d0196109fe565b90506001600160f81b03198316600160f91b14156108d7578160028206156108c957816401000003d019036108cb565b815b94509450505050610961565b6001600160f81b03198316600360f81b1415610911578160028206156108fd57816108cb565b94506401000003d019039250610961915050565b50505b6040805162461bcd60e51b815260206004820152601a60248201527f77726f6e6720666f726d6174206f66207075626c6963206b6579000000000000604482015290519081900360640190fd5b9250929050565b606061099b61097a6002840615610a44565b60408051602080820188905282518083039091018152908201909152610a88565b9392505050565b600081602001835110156109f5576040805162461bcd60e51b8152602060048201526015602482015274746f427974657333325f6f75744f66426f756e647360581b604482015290519081900360640190fd5b50016020015190565b600060015b8315610a3c578360011660011415610a23578280610a1d57fe5b85820990505b8280610a2b57fe5b8586099450600184901c9350610a03565b949350505050565b606081610a5557600360f81b610a5b565b600160f91b5b604080516001600160f81b0319909216602083015280518083036001018152602190920190529050919050565b6060806040519050835180825260208201818101602087015b81831015610ab9578051835260209283019201610aa1565b50855184518101855292509050808201602086015b81831015610ae6578051835260209283019201610ace565b508651929092011591909101601f01601f19166040525090509291505056fe6320636861696e206164647265737320646f65736e2774206d61746368207075626c6963206b65797020636861696e206164647265737320646f65736e2774206d61746368207075626c6963206b6579a264697066735822122086e55a9656ed935a0cd3f6c09b953d55fd4f60be466965a52d056c34f6f70d4364736f6c63430007060033",
  "linkReferences": {},
  "deployedLinkReferences": {}
}